{"contracts/PledgeManager.sol":{"PledgeManager":{"abi":[{"inputs":[{"internalType":"address","name":"_rwaToken","type":"address"},{"internalType":"address","name":"_usdtToken","type":"address"},{"internalType":"address","name":"admin","type":"address"}],"stateMutability":"nonpayable","type":"constructor"},{"anonymous":false,"inputs":[{"indexed":true,"internalType":"string","name":"agreementId","type":"string"},{"indexed":true,"internalType":"address","name":"client","type":"address"},{"indexed":false,"internalType":"uint256","name":"amount","type":"uint256"}],"name":"ClientPaid","type":"event"},{"anonymous":false,"inputs":[{"indexed":false,"internalType":"address","name":"account","type":"address"}],"name":"Paused","type":"event"},{"anonymous":false,"inputs":[{"indexed":true,"internalType":"string","name":"agreementId","type":"string"},{"indexed":true,"internalType":"address","name":"client","type":"address"},{"indexed":false,"internalType":"string","name":"assetId","type":"string"},{"indexed":false,"internalType":"uint256","name":"originalValue","type":"uint256"},{"indexed":false,"internalType":"uint256","name":"discountedValue","type":"uint256"},{"indexed":false,"internalType":"uint256","name":"clientPayment","type":"uint256"}],"name":"PledgeCreated","type":"event"},{"anonymous":false,"inputs":[{"indexed":true,"internalType":"string","name":"agreementId","type":"string"},{"indexed":true,"internalType":"address","name":"client","type":"address"},{"indexed":false,"internalType":"uint256","name":"repaymentAmount","type":"uint256"}],"name":"PledgeRepaid","type":"event"},{"anonymous":false,"inputs":[{"indexed":true,"internalType":"bytes32","name":"role","type":"bytes32"},{"indexed":true,"internalType":"bytes32","name":"previousAdminRole","type":"bytes32"},{"indexed":true,"internalType":"bytes32","name":"newAdminRole","type":"bytes32"}],"name":"RoleAdminChanged","type":"event"},{"anonymous":false,"inputs":[{"indexed":true,"internalType":"bytes32","name":"role","type":"bytes32"},{"indexed":true,"internalType":"address","name":"account","type":"address"},{"indexed":true,"internalType":"address","name":"sender","type":"address"}],"name":"RoleGranted","type":"event"},{"anonymous":false,"inputs":[{"indexed":true,"internalType":"bytes32","name":"role","type":"bytes32"},{"indexed":true,"internalType":"address","name":"account","type":"address"},{"indexed":true,"internalType":"address","name":"sender","type":"address"}],"name":"RoleRevoked","type":"event"},{"anonymous":false,"inputs":[{"indexed":false,"internalType":"uint256","name":"oldSpread","type":"uint256"},{"indexed":false,"internalType":"uint256","name":"newSpread","type":"uint256"}],"name":"SpreadUpdated","type":"event"},{"anonymous":false,"inputs":[{"indexed":true,"internalType":"string","name":"agreementId","type":"string"},{"indexed":true,"internalType":"address","name":"investor","type":"address"},{"indexed":false,"internalType":"uint256","name":"tokenAmount","type":"uint256"},{"indexed":false,"internalType":"uint256","name":"usdtPaid","type":"uint256"},{"indexed":false,"internalType":"string","name":"purchaseId","type":"string"}],"name":"TokensPurchased","type":"event"},{"anonymous":false,"inputs":[{"indexed":false,"internalType":"address","name":"account","type":"address"}],"name":"Unpaused","type":"event"},{"inputs":[],"name":"DEFAULT_ADMIN_ROLE","outputs":[{"internalType":"bytes32","name":"","type":"bytes32"}],"stateMutability":"view","type":"function"},{"inputs":[],"name":"FINANCE_ROLE","outputs":[{"internalType":"bytes32","name":"","type":"bytes32"}],"stateMutability":"view","type":"function"},{"inputs":[],"name":"OPERATOR_ROLE","outputs":[{"internalType":"bytes32","name":"","type":"bytes32"}],"stateMutability":"view","type":"function"},{"inputs":[{"internalType":"string","name":"","type":"string"},{"internalType":"uint256","name":"","type":"uint256"}],"name":"assetInvestors","outputs":[{"internalType":"address","name":"investor","type":"address"},{"internalType":"uint256","name":"tokenAmount","type":"uint256"},{"internalType":"uint256","name":"usdtPaid","type":"uint256"},{"internalType":"uint256","name":"timestamp","type":"uint256"},{"internalType":"string","name":"purchaseId","type":"string"}],"stateMutability":"view","type":"function"},{"inputs":[{"internalType":"address","name":"","type":"address"},{"internalType":"uint256","name":"","type":"uint256"}],"name":"clientPledges","outputs":[{"internalType":"string","name":"","type":"string"}],"stateMutability":"view","type":"function"},{"inputs":[{"internalType":"string","name":"agreementId","type":"string"},{"internalType":"address","name":"client","type":"address"},{"internalType":"string","name":"assetId","type":"string"},{"internalType":"string","name":"assetType","type":"string"},{"internalType":"string","name":"description","type":"string"},{"internalType":"uint256","name":"originalValue","type":"uint256"},{"internalType":"string","name":"documentHash","type":"string"}],"name":"createPledge","outputs":[],"stateMutability":"nonpayable","type":"function"},{"inputs":[{"internalType":"string","name":"agreementId","type":"string"}],"name":"getAssetInvestors","outputs":[{"components":[{"internalType":"address","name":"investor","type":"address"},{"internalType":"uint256","name":"tokenAmount","type":"uint256"},{"internalType":"uint256","name":"usdtPaid","type":"uint256"},{"internalType":"uint256","name":"timestamp","type":"uint256"},{"internalType":"string","name":"purchaseId","type":"string"}],"internalType":"struct PledgeManager.InvestorPurchase[]","name":"","type":"tuple[]"}],"stateMutability":"view","type":"function"},{"inputs":[{"internalType":"address","name":"client","type":"address"}],"name":"getClientPledges","outputs":[{"internalType":"string[]","name":"","type":"string[]"}],"stateMutability":"view","type":"function"},{"inputs":[],"name":"getFinancialSummary","outputs":[{"internalType":"uint256","name":"_totalClientPayments","type":"uint256"},{"internalType":"uint256","name":"_totalInvestorPayments","type":"uint256"},{"internalType":"uint256","name":"_platformRevenue","type":"uint256"},{"internalType":"uint256","name":"_spreadPercentage","type":"uint256"}],"stateMutability":"view","type":"function"},{"inputs":[{"internalType":"address","name":"investor","type":"address"}],"name":"getInvestorPurchases","outputs":[{"internalType":"string[]","name":"","type":"string[]"}],"stateMutability":"view","type":"function"},{"inputs":[{"internalType":"string","name":"agreementId","type":"string"}],"name":"getPledgeAgreement","outputs":[{"components":[{"internalType":"string","name":"agreementId","type":"string"},{"internalType":"address","name":"client","type":"address"},{"internalType":"string","name":"assetId","type":"string"},{"internalType":"string","name":"assetType","type":"string"},{"internalType":"string","name":"description","type":"string"},{"internalType":"uint256","name":"originalValue","type":"uint256"},{"internalType":"uint256","name":"discountedValue","type":"uint256"},{"internalType":"uint256","name":"tokensIssued","type":"uint256"},{"internalType":"uint256","name":"clientPayment","type":"uint256"},{"internalType":"uint256","name":"timestamp","type":"uint256"},{"internalType":"enum PledgeManager.PledgeStatus","name":"status","type":"uint8"},{"internalType":"string","name":"documentHash","type":"string"}],"internalType":"struct PledgeManager.PledgeAgreement","name":"","type":"tuple"}],"stateMutability":"view","type":"function"},{"inputs":[{"internalType":"bytes32","name":"role","type":"bytes32"}],"name":"getRoleAdmin","outputs":[{"internalType":"bytes32","name":"","type":"bytes32"}],"stateMutability":"view","type":"function"},{"inputs":[{"internalType":"address","name":"account","type":"address"}],"name":"grantFinanceRole","outputs":[],"stateMutability":"nonpayable","type":"function"},{"inputs":[{"internalType":"address","name":"account","type":"address"}],"name":"grantOperatorRole","outputs":[],"stateMutability":"nonpayable","type":"function"},{"inputs":[{"internalType":"bytes32","name":"role","type":"bytes32"},{"internalType":"address","name":"account","type":"address"}],"name":"grantRole","outputs":[],"stateMutability":"nonpayable","type":"function"},{"inputs":[{"internalType":"bytes32","name":"role","type":"bytes32"},{"internalType":"address","name":"account","type":"address"}],"name":"hasRole","outputs":[{"internalType":"bool","name":"","type":"bool"}],"stateMutability":"view","type":"function"},{"inputs":[{"internalType":"address","name":"","type":"address"},{"internalType":"uint256","name":"","type":"uint256"}],"name":"investorPurchases","outputs":[{"internalType":"string","name":"","type":"string"}],"stateMutability":"view","type":"function"},{"inputs":[],"name":"pause","outputs":[],"stateMutability":"nonpayable","type":"function"},{"inputs":[],"name":"paused","outputs":[{"internalType":"bool","name":"","type":"bool"}],"stateMutability":"view","type":"function"},{"inputs":[{"internalType":"string","name":"agreementId","type":"string"}],"name":"payClient","outputs":[],"stateMutability":"nonpayable","type":"function"},{"inputs":[],"name":"platformRevenue","outputs":[{"internalType":"uint256","name":"","type":"uint256"}],"stateMutability":"view","type":"function"},{"inputs":[{"internalType":"string","name":"","type":"string"}],"name":"pledgeAgreements","outputs":[{"internalType":"string","name":"agreementId","type":"string"},{"internalType":"address","name":"client","type":"address"},{"internalType":"string","name":"assetId","type":"string"},{"internalType":"string","name":"assetType","type":"string"},{"internalType":"string","name":"description","type":"string"},{"internalType":"uint256","name":"originalValue","type":"uint256"},{"internalType":"uint256","name":"discountedValue","type":"uint256"},{"internalType":"uint256","name":"tokensIssued","type":"uint256"},{"internalType":"uint256","name":"clientPayment","type":"uint256"},{"internalType":"uint256","name":"timestamp","type":"uint256"},{"internalType":"enum PledgeManager.PledgeStatus","name":"status","type":"uint8"},{"internalType":"string","name":"documentHash","type":"string"}],"stateMutability":"view","type":"function"},{"inputs":[{"internalType":"string","name":"agreementId","type":"string"},{"internalType":"uint256","name":"tokenAmount","type":"uint256"},{"internalType":"string","name":"purchaseId","type":"string"}],"name":"purchaseTokens","outputs":[],"stateMutability":"nonpayable","type":"function"},{"inputs":[{"internalType":"bytes32","name":"role","type":"bytes32"},{"internalType":"address","name":"account","type":"address"}],"name":"renounceRole","outputs":[],"stateMutability":"nonpayable","type":"function"},{"inputs":[{"internalType":"string","name":"agreementId","type":"string"},{"internalType":"uint256","name":"repaymentAmount","type":"uint256"}],"name":"repayPledge","outputs":[],"stateMutability":"nonpayable","type":"function"},{"inputs":[{"internalType":"address","name":"account","type":"address"}],"name":"revokeFinanceRole","outputs":[],"stateMutability":"nonpayable","type":"function"},{"inputs":[{"internalType":"address","name":"account","type":"address"}],"name":"revokeOperatorRole","outputs":[],"stateMutability":"nonpayable","type":"function"},{"inputs":[{"internalType":"bytes32","name":"role","type":"bytes32"},{"internalType":"address","name":"account","type":"address"}],"name":"revokeRole","outputs":[],"stateMutability":"nonpayable","type":"function"},{"inputs":[],"name":"rwaToken","outputs":[{"internalType":"contract RWAToken","name":"","type":"address"}],"stateMutability":"view","type":"function"},{"inputs":[{"internalType":"uint256","name":"newSpread","type":"uint256"}],"name":"setSpreadPercentage","outputs":[],"stateMutability":"nonpayable","type":"function"},{"inputs":[],"name":"spreadPercentage","outputs":[{"internalType":"uint256","name":"","type":"uint256"}],"stateMutability":"view","type":"function"},{"inputs":[{"internalType":"bytes4","name":"interfaceId","type":"bytes4"}],"name":"supportsInterface","outputs":[{"internalType":"bool","name":"","type":"bool"}],"stateMutability":"view","type":"function"},{"inputs":[],"name":"totalClientPayments","outputs":[{"internalType":"uint256","name":"","type":"uint256"}],"stateMutability":"view","type":"function"},{"inputs":[],"name":"totalInvestorPayments","outputs":[{"internalType":"uint256","name":"","type":"uint256"}],"stateMutability":"view","type":"function"},{"inputs":[],"name":"unpause","outputs":[],"stateMutability":"nonpayable","type":"function"},{"inputs":[],"name":"usdtToken","outputs":[{"internalType":"contract IERC20","name":"","type":"address"}],"stateMutability":"view","type":"function"},{"inputs":[{"internalType":"address","name":"to","type":"address"},{"internalType":"uint256","name":"amount","type":"uint256"}],"name":"withdrawRevenue","outputs":[],"stateMutability":"nonpayable","type":"function"}],"evm":{"bytecode":{"linkReferences":{},"object":"6080604052600f600b553480156200001657600080fd5b5060405162003796380380620037968339810160408190526200003991620002f0565b600180556002805460ff191690556001600160a01b038316620000a35760405162461bcd60e51b815260206004820152601960248201527f496e76616c69642052574120746f6b656e20616464726573730000000000000060448201526064015b60405180910390fd5b6001600160a01b038216620000fb5760405162461bcd60e51b815260206004820152601a60248201527f496e76616c6964205553445420746f6b656e206164647265737300000000000060448201526064016200009a565b6001600160a01b038116620001535760405162461bcd60e51b815260206004820152601560248201527f496e76616c69642061646d696e2061646472657373000000000000000000000060448201526064016200009a565b60028054610100600160a81b0319166101006001600160a01b038681169190910291909117909155600380546001600160a01b0319169184169190911790556200019f60008262000232565b620001ba600080516020620037768339815191528262000232565b620001d5600080516020620037568339815191528262000232565b6001600160a01b03811633146200022957620001f360003362000232565b6200020e600080516020620037768339815191523362000232565b62000229600080516020620037568339815191523362000232565b5050506200033a565b6000828152602081815260408083206001600160a01b038516845290915290205460ff16620002cf576000828152602081815260408083206001600160a01b03851684529091529020805460ff191660011790556200028e3390565b6001600160a01b0316816001600160a01b0316837f2f8788117e7eff1d82e926ec794901d17c78024a50270940304540a733656f0d60405160405180910390a45b5050565b80516001600160a01b0381168114620002eb57600080fd5b919050565b6000806000606084860312156200030657600080fd5b6200031184620002d3565b92506200032160208501620002d3565b91506200033160408501620002d3565b90509250925092565b61340c806200034a6000396000f3fe608060405234801561001057600080fd5b50600436106102275760003560e01c80638f55aac411610130578063b219f7d7116100b8578063db880da21161007c578063db880da2146104f7578063dbe5457914610522578063e4f7b2cc14610535578063f1ceff331461053e578063f5b541a61461055157600080fd5b8063b219f7d71461048b578063b39901661461049e578063d436b75f146104be578063d547741f146104d1578063d849eead146104e457600080fd5b80639f2af9c7116100ff5780639f2af9c71461044b578063a217fddf14610454578063a637d6c21461045c578063a98ad46c1461046f578063ac0e00331461048257600080fd5b80638f55aac4146103e657806391d14854146103f95780639837f0df1461040c5780639dbade7f1461043857600080fd5b80633f4ba83a116101b35780635c975abb116101825780635c975abb14610389578063718535591461039457806382aefe6c146103a75780638456cb59146103cb5780638b63c267146103d357600080fd5b80633f4ba83a1461032e578063413976ad146103365780634b6a28eb146103565780634b73884c1461036957600080fd5b806327ac0c58116101fa57806327ac0c58146102be5780632cbd9c33146102d35780632f2ff15d146102f3578063349b59541461030657806336568abe1461031b57600080fd5b806301ffc9a71461022c5780630c5bf3511461025457806324048ba114610284578063248a9ca31461029b575b600080fd5b61023f61023a36600461281e565b610566565b60405190151581526020015b60405180910390f35b60025461026c9061010090046001600160a01b031681565b6040516001600160a01b03909116815260200161024b565b61028d600a5481565b60405190815260200161024b565b61028d6102a9366004612848565b60009081526020819052604090206001015490565b6102d16102cc36600461287d565b61059d565b005b6102e66102e136600461293b565b6105c4565b60405161024b91906129c8565b6102d1610301366004612a66565b610708565b61028d60008051602061339783398151915281565b6102d1610329366004612a66565b610732565b6102d16107b1565b61034961034436600461287d565b6107c7565b60405161024b9190612a92565b6102d1610364366004612af4565b6108ab565b61037c61037736600461293b565b610dcc565b60405161024b9190612c18565b60025460ff1661023f565b6103496103a236600461287d565b61115b565b6103ba6103b5366004612d26565b61123f565b60405161024b959493929190612d6b565b6102d1611334565b6102d16103e1366004612da9565b611347565b6102d16103f4366004612dd3565b6114a8565b61023f610407366004612a66565b61193f565b600854600954600a54600b5460408051948552602085019390935291830152606082015260800161024b565b6102d161044636600461287d565b611968565b61028d60095481565b61028d600081565b6102d161046a36600461293b565b61198b565b60035461026c906001600160a01b031681565b61028d60085481565b6102d161049936600461287d565b611bfa565b6104b16104ac366004612da9565b611c1d565b60405161024b9190612e40565b6102d16104cc366004612848565b611cd6565b6102d16104df366004612a66565b611d78565b6102d16104f2366004612d26565b611d9d565b61050a61050536600461293b565b611fc3565b60405161024b9c9b9a99989796959493929190612e53565b6104b1610530366004612da9565b6122ea565b61028d600b5481565b6102d161054c36600461287d565b612306565b61028d6000805160206133b783398151915281565b60006001600160e01b03198216637965db0b60e01b148061059757506301ffc9a760e01b6001600160e01b03198316145b92915050565b60006105a881612329565b6105c06000805160206133b783398151915283610708565b5050565b60606005826040516105d69190612f07565b9081526020016040518091039020805480602002602001604051908101604052809291908181526020016000905b828210156106fd5760008481526020908190206040805160a0810182526005860290920180546001600160a01b031683526001810154938301939093526002830154908201526003820154606082015260048201805491929160808401919061066c90612f23565b80601f016020809104026020016040519081016040528092919081815260200182805461069890612f23565b80156106e55780601f106106ba576101008083540402835291602001916106e5565b820191906000526020600020905b8154815290600101906020018083116106c857829003601f168201915b50505050508152505081526020019060010190610604565b505050509050919050565b60008281526020819052604090206001015461072381612329565b61072d8383612333565b505050565b6001600160a01b03811633146107a75760405162461bcd60e51b815260206004820152602f60248201527f416363657373436f6e74726f6c3a2063616e206f6e6c792072656e6f756e636560448201526e103937b632b9903337b91039b2b63360891b60648201526084015b60405180910390fd5b6105c082826123b7565b60006107bc81612329565b6107c461241c565b50565b6001600160a01b0381166000908152600660209081526040808320805482518185028101850190935280835260609492939192909184015b828210156106fd57838290600052602060002001805461081e90612f23565b80601f016020809104026020016040519081016040528092919081815260200182805461084a90612f23565b80156108975780601f1061086c57610100808354040283529160200191610897565b820191906000526020600020905b81548152906001019060200180831161087a57829003601f168201915b5050505050815260200190600101906107ff565b6000805160206133b78339815191526108c381612329565b6108cb61246e565b6108d36124b6565b60008851116109245760405162461bcd60e51b815260206004820152601c60248201527f41677265656d656e742049442063616e6e6f7420626520656d70747900000000604482015260640161079e565b6001600160a01b0387166109735760405162461bcd60e51b8152602060048201526016602482015275496e76616c696420636c69656e74206164647265737360501b604482015260640161079e565b600083116109ce5760405162461bcd60e51b815260206004820152602260248201527f41737365742076616c7565206d7573742062652067726561746572207468616e604482015261020360f41b606482015260840161079e565b6004886040516109de9190612f07565b908152602001604051809103902060090154600014610a3f5760405162461bcd60e51b815260206004820152601860248201527f41677265656d656e7420616c7265616479206578697374730000000000000000604482015260640161079e565b6000600260019054906101000a90046001600160a01b03166001600160a01b031663e6c0e6d56040518163ffffffff1660e01b8152600401602060405180830381865afa158015610a94573d6000803e3d6000fd5b505050506040513d601f19601f82011682018060405250810190610ab89190612f5d565b905060006064610ac88387612f8c565b610ad29190612fa3565b905060006064600b546064610ae79190612fc5565b610af19084612f8c565b610afb9190612fa3565b90506040518061018001604052808c81526020018b6001600160a01b031681526020018a8152602001898152602001888152602001878152602001838152602001670de0b6b3a764000084610b509190612fa3565b815260208101839052426040820152606001600081526020018681525060048c604051610b7d9190612f07565b90815260405190819003602001902081518190610b9a9082613026565b5060208201516001820180546001600160a01b0319166001600160a01b0390921691909117905560408201516002820190610bd59082613026565b5060608201516003820190610bea9082613026565b5060808201516004820190610bff9082613026565b5060a0820151600582015560c0820151600682015560e0820151600782015561010082015160088201556101208201516009820155610140820151600a8201805460ff19166001836004811115610c5857610c58612be0565b0217905550610160820151600b820190610c729082613026565b5050506001600160a01b038a16600090815260066020908152604082208054600181018255908352912001610ca78c82613026565b5060025460405163aa85889960e01b81526101009091046001600160a01b03169063aa85889990610ce4908c908c908c908c9030906004016130e6565b600060405180830381600087803b158015610cfe57600080fd5b505af1158015610d12573d6000803e3d6000fd5b50505050600160048c604051610d289190612f07565b908152604051908190036020019020600a01805460ff19166001836004811115610d5457610d54612be0565b0217905550896001600160a01b03168b604051610d719190612f07565b60405180910390207f2533cae92c0efbd48bd4d6ba697b1ebbbb319f2e92c02f000f1367861fee8abb8b898686604051610dae9493929190613142565b60405180910390a3505050610dc260018055565b5050505050505050565b610dd46127a3565b600482604051610de49190612f07565b908152602001604051809103902060405180610180016040529081600082018054610e0e90612f23565b80601f0160208091040260200160405190810160405280929190818152602001828054610e3a90612f23565b8015610e875780601f10610e5c57610100808354040283529160200191610e87565b820191906000526020600020905b815481529060010190602001808311610e6a57829003601f168201915b505050918352505060018201546001600160a01b03166020820152600282018054604090920191610eb790612f23565b80601f0160208091040260200160405190810160405280929190818152602001828054610ee390612f23565b8015610f305780601f10610f0557610100808354040283529160200191610f30565b820191906000526020600020905b815481529060010190602001808311610f1357829003601f168201915b50505050508152602001600382018054610f4990612f23565b80601f0160208091040260200160405190810160405280929190818152602001828054610f7590612f23565b8015610fc25780601f10610f9757610100808354040283529160200191610fc2565b820191906000526020600020905b815481529060010190602001808311610fa557829003601f168201915b50505050508152602001600482018054610fdb90612f23565b80601f016020809104026020016040519081016040528092919081815260200182805461100790612f23565b80156110545780601f1061102957610100808354040283529160200191611054565b820191906000526020600020905b81548152906001019060200180831161103757829003601f168201915b505050918352505060058201546020820152600682015460408201526007820154606082015260088201546080820152600982015460a0820152600a82015460c09091019060ff1660048111156110ad576110ad612be0565b60048111156110be576110be612be0565b8152602001600b820180546110d290612f23565b80601f01602080910402602001604051908101604052809291908181526020018280546110fe90612f23565b801561114b5780601f106111205761010080835404028352916020019161114b565b820191906000526020600020905b81548152906001019060200180831161112e57829003601f168201915b5050505050815250509050919050565b6001600160a01b0381166000908152600760209081526040808320805482518185028101850190935280835260609492939192909184015b828210156106fd5783829060005260206000200180546111b290612f23565b80601f01602080910402602001604051908101604052809291908181526020018280546111de90612f23565b801561122b5780601f106112005761010080835404028352916020019161122b565b820191906000526020600020905b81548152906001019060200180831161120e57829003601f168201915b505050505081526020019060010190611193565b8151602081840181018051600582529282019185019190912091905280548290811061126a57600080fd5b6000918252602090912060059091020180546001820154600283015460038401546004850180546001600160a01b039095169750929550909390929091906112b190612f23565b80601f01602080910402602001604051908101604052809291908181526020018280546112dd90612f23565b801561132a5780601f106112ff5761010080835404028352916020019161132a565b820191906000526020600020905b81548152906001019060200180831161130d57829003601f168201915b5050505050905085565b600061133f81612329565b6107c461250f565b60008051602061339783398151915261135f81612329565b6001600160a01b0383166113a75760405162461bcd60e51b815260206004820152600f60248201526e496e76616c6964206164647265737360881b604482015260640161079e565b600a548211156113f95760405162461bcd60e51b815260206004820181905260248201527f416d6f756e74206578636565647320617661696c61626c6520726576656e7565604482015260640161079e565b60035460405163a9059cbb60e01b81526001600160a01b038581166004830152602482018590529091169063a9059cbb906044016020604051808303816000875af115801561144c573d6000803e3d6000fd5b505050506040513d601f19601f820116820180604052508101906114709190613171565b61148c5760405162461bcd60e51b815260040161079e90613193565b81600a600082825461149e9190612fc5565b9091555050505050565b6114b061246e565b6114b86124b6565b60006004846040516114ca9190612f07565b9081526020016040518091039020905080600901546000036114fe5760405162461bcd60e51b815260040161079e906131c1565b6001600a82015460ff16600481111561151957611519612be0565b146115365760405162461bcd60e51b815260040161079e906131eb565b600083116115925760405162461bcd60e51b815260206004820152602360248201527f546f6b656e20616d6f756e74206d75737420626520677265617465722074686160448201526206e20360ec1b606482015260840161079e565b6002546040516370a0823160e01b815230600482015260009161010090046001600160a01b0316906370a0823190602401602060405180830381865afa1580156115e0573d6000803e3d6000fd5b505050506040513d601f19601f820116820180604052508101906116049190612f5d565b9050838110156116565760405162461bcd60e51b815260206004820152601d60248201527f496e73756666696369656e7420746f6b656e7320617661696c61626c65000000604482015260640161079e565b600061166585620f4240612f8c565b6003546040516323b872dd60e01b8152336004820152306024820152604481018390529192506001600160a01b0316906323b872dd906064016020604051808303816000875af11580156116bd573d6000803e3d6000fd5b505050506040513d601f19601f820116820180604052508101906116e19190613171565b6116fd5760405162461bcd60e51b815260040161079e90613193565b60025460405163a9059cbb60e01b8152336004820152602481018790526101009091046001600160a01b03169063a9059cbb906044016020604051808303816000875af1158015611752573d6000803e3d6000fd5b505050506040513d601f19601f820116820180604052508101906117769190613171565b6117ba5760405162461bcd60e51b8152602060048201526015602482015274151bdad95b881d1c985b9cd9995c8819985a5b1959605a1b604482015260640161079e565b6040805160a081018252338152602081018790528082018390524260608201526080810186905290516005906117f1908990612f07565b9081526040805160209281900383019020805460018082018355600092835291849020855160059092020180546001600160a01b0319166001600160a01b0390921691909117815592840151908301558201516002820155606082015160038201556080820151829190600482019061186a9082613026565b50503360009081526007602090815260408220805460018101825590835291200190506118978882613026565b5081600960008282546118aa9190613216565b9091555050600b546064906118bf9084612f8c565b6118c99190612fa3565b600a60008282546118da9190613216565b909155505060405133906118ef908990612f07565b60405180910390207fe45cab90d162ad25c4beda323237a6796054f3c4a4132e157c2f0fb03c12788288858960405161192a93929190613229565b60405180910390a35050505061072d60018055565b6000918252602082815260408084206001600160a01b0393909316845291905290205460ff1690565b600061197381612329565b6105c060008051602061339783398151915283611d78565b6000805160206133978339815191526119a381612329565b6119ab6124b6565b60006004836040516119bd9190612f07565b9081526020016040518091039020905080600901546000036119f15760405162461bcd60e51b815260040161079e906131c1565b6001600a82015460ff166004811115611a0c57611a0c612be0565b14611a295760405162461bcd60e51b815260040161079e906131eb565b60088101546003546040516370a0823160e01b815230600482015282916001600160a01b0316906370a0823190602401602060405180830381865afa158015611a76573d6000803e3d6000fd5b505050506040513d601f19601f82011682018060405250810190611a9a9190612f5d565b1015611ae85760405162461bcd60e51b815260206004820152601960248201527f496e73756666696369656e7420555344542062616c616e636500000000000000604482015260640161079e565b600354600183015460405163a9059cbb60e01b81526001600160a01b0391821660048201526024810184905291169063a9059cbb906044016020604051808303816000875af1158015611b3f573d6000803e3d6000fd5b505050506040513d601f19601f82011682018060405250810190611b639190613171565b611b7f5760405162461bcd60e51b815260040161079e90613193565b8060086000828254611b919190613216565b909155505060018201546040516001600160a01b0390911690611bb5908690612f07565b604051908190038120838252907f7d665c40b604b6866cf93ad4a21f2f2ac6a05ff7aa18daa8e0cbba9b81f282309060200160405180910390a350506105c060018055565b6000611c0581612329565b6105c06000805160206133b783398151915283611d78565b60076020528160005260406000208181548110611c3957600080fd5b90600052602060002001600091509150508054611c5590612f23565b80601f0160208091040260200160405190810160405280929190818152602001828054611c8190612f23565b8015611cce5780601f10611ca357610100808354040283529160200191611cce565b820191906000526020600020905b815481529060010190602001808311611cb157829003601f168201915b505050505081565b6000611ce181612329565b6032821115611d325760405162461bcd60e51b815260206004820152601860248201527f5370726561642063616e6e6f7420657863656564203530250000000000000000604482015260640161079e565b600b80549083905560408051828152602081018590527ff1dd40af50044c9e71928f1e31ac462e53f9af4cb0279ca9f29e9adff0218b96910160405180910390a1505050565b600082815260208190526040902060010154611d9381612329565b61072d83836123b7565b600080516020613397833981519152611db581612329565b611dbd6124b6565b6000600484604051611dcf9190612f07565b908152602001604051809103902090508060090154600003611e035760405162461bcd60e51b815260040161079e906131c1565b6001600a82015460ff166004811115611e1e57611e1e612be0565b14611e3b5760405162461bcd60e51b815260040161079e906131eb565b60035460018201546040516323b872dd60e01b81526001600160a01b039182166004820152306024820152604481018690529116906323b872dd906064016020604051808303816000875af1158015611e98573d6000803e3d6000fd5b505050506040513d601f19601f82011682018060405250810190611ebc9190613171565b611ed85760405162461bcd60e51b815260040161079e90613193565b600a810180546002919060ff1916600183021790555060078101546002805460405163b5d6de2760e01b81526101009091046001600160a01b03169163b5d6de2791611f2d9186019030908690600401613251565b600060405180830381600087803b158015611f4757600080fd5b505af1158015611f5b573d6000803e3d6000fd5b50505060018301546040516001600160a01b039091169150611f7e908790612f07565b604051908190038120868252907f2a6c6caf864b51573f7ebc472ea8a2b327e951563a4cc7748049a55d34959d989060200160405180910390a3505061072d60018055565b8051602081830181018051600482529282019190930120915280548190611fe990612f23565b80601f016020809104026020016040519081016040528092919081815260200182805461201590612f23565b80156120625780601f1061203757610100808354040283529160200191612062565b820191906000526020600020905b81548152906001019060200180831161204557829003601f168201915b505050600184015460028501805494956001600160a01b0390921694919350915061208c90612f23565b80601f01602080910402602001604051908101604052809291908181526020018280546120b890612f23565b80156121055780601f106120da57610100808354040283529160200191612105565b820191906000526020600020905b8154815290600101906020018083116120e857829003601f168201915b50505050509080600301805461211a90612f23565b80601f016020809104026020016040519081016040528092919081815260200182805461214690612f23565b80156121935780601f1061216857610100808354040283529160200191612193565b820191906000526020600020905b81548152906001019060200180831161217657829003601f168201915b5050505050908060040180546121a890612f23565b80601f01602080910402602001604051908101604052809291908181526020018280546121d490612f23565b80156122215780601f106121f657610100808354040283529160200191612221565b820191906000526020600020905b81548152906001019060200180831161220457829003601f168201915b50505050509080600501549080600601549080600701549080600801549080600901549080600a0160009054906101000a900460ff169080600b01805461226790612f23565b80601f016020809104026020016040519081016040528092919081815260200182805461229390612f23565b80156122e05780601f106122b5576101008083540402835291602001916122e0565b820191906000526020600020905b8154815290600101906020018083116122c357829003601f168201915b505050505090508c565b60066020528160005260406000208181548110611c3957600080fd5b600061231181612329565b6105c060008051602061339783398151915283610708565b6107c4813361254c565b61233d828261193f565b6105c0576000828152602081815260408083206001600160a01b03851684529091529020805460ff191660011790556123733390565b6001600160a01b0316816001600160a01b0316837f2f8788117e7eff1d82e926ec794901d17c78024a50270940304540a733656f0d60405160405180910390a45050565b6123c1828261193f565b156105c0576000828152602081815260408083206001600160a01b0385168085529252808320805460ff1916905551339285917ff6391f5c32d9c69d2a47ea670b442974b53935d1edc7fd64eb21e047a839171b9190a45050565b6124246125a5565b6002805460ff191690557f5db9ee0a495bf2e6ff9c91a7834c1ba4fdd244a5e8aa4e537bd38aeae4b073aa335b6040516001600160a01b03909116815260200160405180910390a1565b60025460ff16156124b45760405162461bcd60e51b815260206004820152601060248201526f14185d5cd8589b194e881c185d5cd95960821b604482015260640161079e565b565b6002600154036125085760405162461bcd60e51b815260206004820152601f60248201527f5265656e7472616e637947756172643a207265656e7472616e742063616c6c00604482015260640161079e565b6002600155565b61251761246e565b6002805460ff191660011790557f62e78cea01bee320cd4e420270b5ea74000d11b0c9f74754ebdbfc544b05a2586124513390565b612556828261193f565b6105c057612563816125ee565b61256e836020612600565b60405160200161257f9291906132f4565b60408051601f198184030181529082905262461bcd60e51b825261079e91600401612e40565b60025460ff166124b45760405162461bcd60e51b815260206004820152601460248201527314185d5cd8589b194e881b9bdd081c185d5cd95960621b604482015260640161079e565b60606105976001600160a01b03831660145b6060600061260f836002612f8c565b61261a906002613216565b67ffffffffffffffff81111561263257612632612898565b6040519080825280601f01601f19166020018201604052801561265c576020820181803683370190505b509050600360fc1b8160008151811061267757612677613369565b60200101906001600160f81b031916908160001a905350600f60fb1b816001815181106126a6576126a6613369565b60200101906001600160f81b031916908160001a90535060006126ca846002612f8c565b6126d5906001613216565b90505b600181111561274d576f181899199a1a9b1b9c1cb0b131b232b360811b85600f166010811061270957612709613369565b1a60f81b82828151811061271f5761271f613369565b60200101906001600160f81b031916908160001a90535060049490941c936127468161337f565b90506126d8565b50831561279c5760405162461bcd60e51b815260206004820181905260248201527f537472696e67733a20686578206c656e67746820696e73756666696369656e74604482015260640161079e565b9392505050565b6040518061018001604052806060815260200160006001600160a01b0316815260200160608152602001606081526020016060815260200160008152602001600081526020016000815260200160008152602001600081526020016000600481111561281157612811612be0565b8152602001606081525090565b60006020828403121561283057600080fd5b81356001600160e01b03198116811461279c57600080fd5b60006020828403121561285a57600080fd5b5035919050565b80356001600160a01b038116811461287857600080fd5b919050565b60006020828403121561288f57600080fd5b61279c82612861565b634e487b7160e01b600052604160045260246000fd5b600082601f8301126128bf57600080fd5b813567ffffffffffffffff808211156128da576128da612898565b604051601f8301601f19908116603f0116810190828211818310171561290257612902612898565b8160405283815286602085880101111561291b57600080fd5b836020870160208301376000602085830101528094505050505092915050565b60006020828403121561294d57600080fd5b813567ffffffffffffffff81111561296457600080fd5b612970848285016128ae565b949350505050565b60005b8381101561299357818101518382015260200161297b565b50506000910152565b600081518084526129b4816020860160208601612978565b601f01601f19169290920160200192915050565b60006020808301818452808551808352604092508286019150828160051b87010184880160005b83811015612a5857888303603f19018552815180516001600160a01b03168452878101518885015286810151878501526060808201519085015260809081015160a091850182905290612a448186018361299c565b9689019694505050908601906001016129ef565b509098975050505050505050565b60008060408385031215612a7957600080fd5b82359150612a8960208401612861565b90509250929050565b6000602080830181845280855180835260408601915060408160051b870101925083870160005b82811015612ae757603f19888603018452612ad585835161299c565b94509285019290850190600101612ab9565b5092979650505050505050565b600080600080600080600060e0888a031215612b0f57600080fd5b873567ffffffffffffffff80821115612b2757600080fd5b612b338b838c016128ae565b9850612b4160208b01612861565b975060408a0135915080821115612b5757600080fd5b612b638b838c016128ae565b965060608a0135915080821115612b7957600080fd5b612b858b838c016128ae565b955060808a0135915080821115612b9b57600080fd5b612ba78b838c016128ae565b945060a08a0135935060c08a0135915080821115612bc457600080fd5b50612bd18a828b016128ae565b91505092959891949750929550565b634e487b7160e01b600052602160045260246000fd5b60058110612c1457634e487b7160e01b600052602160045260246000fd5b9052565b6020815260008251610180806020850152612c376101a085018361299c565b91506020850151612c5360408601826001600160a01b03169052565b506040850151601f1980868503016060870152612c70848361299c565b93506060870151915080868503016080870152612c8d848361299c565b935060808701519150808685030160a0870152612caa848361299c565b935060a087015160c087015260c087015160e087015260e08701519150610100828188015280880151925050610120828188015280880151925050610140828188015280880151925050610160612d0381880184612bf6565b870151868503909101838701529050612d1c838261299c565b9695505050505050565b60008060408385031215612d3957600080fd5b823567ffffffffffffffff811115612d5057600080fd5b612d5c858286016128ae565b95602094909401359450505050565b60018060a01b038616815284602082015283604082015282606082015260a060808201526000612d9e60a083018461299c565b979650505050505050565b60008060408385031215612dbc57600080fd5b612dc583612861565b946020939093013593505050565b600080600060608486031215612de857600080fd5b833567ffffffffffffffff80821115612e0057600080fd5b612e0c878388016128ae565b9450602086013593506040860135915080821115612e2957600080fd5b50612e36868287016128ae565b9150509250925092565b60208152600061279c602083018461299c565b61018081526000612e6861018083018f61299c565b6001600160a01b038e1660208401528281036040840152612e89818e61299c565b90508281036060840152612e9d818d61299c565b90508281036080840152612eb1818c61299c565b90508960a08401528860c08401528760e08401528661010084015285610120840152612ee1610140840186612bf6565b828103610160840152612ef4818561299c565b9f9e505050505050505050505050505050565b60008251612f19818460208701612978565b9190910192915050565b600181811c90821680612f3757607f821691505b602082108103612f5757634e487b7160e01b600052602260045260246000fd5b50919050565b600060208284031215612f6f57600080fd5b5051919050565b634e487b7160e01b600052601160045260246000fd5b808202811582820484141761059757610597612f76565b600082612fc057634e487b7160e01b600052601260045260246000fd5b500490565b8181038181111561059757610597612f76565b601f82111561072d57600081815260208120601f850160051c81016020861015612fff5750805b601f850160051c820191505b8181101561301e5782815560010161300b565b505050505050565b815167ffffffffffffffff81111561304057613040612898565b6130548161304e8454612f23565b84612fd8565b602080601f83116001811461308957600084156130715750858301515b600019600386901b1c1916600185901b17855561301e565b600085815260208120601f198616915b828110156130b857888601518255948401946001909101908401613099565b50858210156130d65787850151600019600388901b60f8161c191681555b5050505050600190811b01905550565b60a0815260006130f960a083018861299c565b828103602084015261310b818861299c565b9050828103604084015261311f818761299c565b606084019590955250506001600160a01b03919091166080909101529392505050565b608081526000613155608083018761299c565b6020830195909552506040810192909252606090910152919050565b60006020828403121561318357600080fd5b8151801515811461279c57600080fd5b6020808252601490820152731554d115081d1c985b9cd9995c8819985a5b195960621b604082015260600190565b60208082526010908201526f141b195919d9481b9bdd08199bdd5b9960821b604082015260600190565b602080825260119082015270506c65646765206e6f742061637469766560781b604082015260600190565b8082018082111561059757610597612f76565b838152826020820152606060408201526000613248606083018461299c565b95945050505050565b60608152600080855461326381612f23565b8060608601526080600180841660008114613285576001811461329f576132d0565b60ff1985168884015283151560051b8801830195506132d0565b8a60005260208060002060005b868110156132c75781548b82018701529084019082016132ac565b8a018501975050505b505050506001600160a01b0386166020850152509050826040830152949350505050565b7f416363657373436f6e74726f6c3a206163636f756e742000000000000000000081526000835161332c816017850160208801612978565b7001034b99036b4b9b9b4b733903937b6329607d1b601791840191820152835161335d816028840160208801612978565b01602801949350505050565b634e487b7160e01b600052603260045260246000fd5b60008161338e5761338e612f76565b50600019019056fe940d6b1946ff1d2b5a9f1909219c3c81a370804b5ba0f91ec0828c99a2e6a68197667070c54ef182b0f5858b034beac1b6f3089aa2d3188bb1e8929f4fa9b929a26469706673582212207f14d4eed531c666f3007ef8e770475e77c4da1ee14f5fef858b16b7327196ce64736f6c63430008130033940d6b1946ff1d2b5a9f1909219c3c81a370804b5ba0f91ec0828c99a2e6a68197667070c54ef182b0f5858b034beac1b6f3089aa2d3188bb1e8929f4fa9b929","opcodes":"PUSH1 0x80 PUSH1 0x40 MSTORE PUSH1 0xF PUSH1 0xB SSTORE CALLVALUE DUP1 ISZERO PUSH3 0x16 JUMPI PUSH1 0x0 DUP1 REVERT JUMPDEST POP PUSH1 0x40 MLOAD PUSH3 0x3796 CODESIZE SUB DUP1 PUSH3 0x3796 DUP4 CODECOPY DUP2 ADD PUSH1 0x40 DUP2 SWAP1 MSTORE PUSH3 0x39 SWAP2 PUSH3 0x2F0 JUMP JUMPDEST PUSH1 0x1 DUP1 SSTORE PUSH1 0x2 DUP1 SLOAD PUSH1 0xFF NOT AND SWAP1 SSTORE PUSH1 0x1 PUSH1 0x1 PUSH1 0xA0 SHL SUB DUP4 AND PUSH3 0xA3 JUMPI PUSH1 0x40 MLOAD PUSH3 0x461BCD PUSH1 0xE5 SHL DUP2 MSTORE PUSH1 0x20 PUSH1 0x4 DUP3 ADD MSTORE PUSH1 0x19 PUSH1 0x24 DUP3 ADD MSTORE PUSH32 0x496E76616C69642052574120746F6B656E206164647265737300000000000000 PUSH1 0x44 DUP3 ADD MSTORE PUSH1 0x64 ADD JUMPDEST PUSH1 0x40 MLOAD DUP1 SWAP2 SUB SWAP1 REVERT JUMPDEST PUSH1 0x1 PUSH1 0x1 PUSH1 0xA0 SHL SUB DUP3 AND PUSH3 0xFB JUMPI PUSH1 0x40 MLOAD PUSH3 0x461BCD PUSH1 0xE5 SHL DUP2 MSTORE PUSH1 0x20 PUSH1 0x4 DUP3 ADD MSTORE PUSH1 0x1A PUSH1 0x24 DUP3 ADD MSTORE PUSH32 0x496E76616C6964205553445420746F6B656E2061646472657373000000000000 PUSH1 0x44 DUP3 ADD MSTORE PUSH1 0x64 ADD PUSH3 0x9A JUMP JUMPDEST PUSH1 0x1 PUSH1 0x1 PUSH1 0xA0 SHL SUB DUP2 AND PUSH3 0x153 JUMPI PUSH1 0x40 MLOAD PUSH3 0x461BCD PUSH1 0xE5 SHL DUP2 MSTORE PUSH1 0x20 PUSH1 0x4 DUP3 ADD MSTORE PUSH1 0x15 PUSH1 0x24 DUP3 ADD MSTORE PUSH32 0x496E76616C69642061646D696E20616464726573730000000000000000000000 PUSH1 0x44 DUP3 ADD MSTORE PUSH1 0x64 ADD PUSH3 0x9A JUMP JUMPDEST PUSH1 0x2 DUP1 SLOAD PUSH2 0x100 PUSH1 0x1 PUSH1 0xA8 SHL SUB NOT AND PUSH2 0x100 PUSH1 0x1 PUSH1 0x1 PUSH1 0xA0 SHL SUB DUP7 DUP2 AND SWAP2 SWAP1 SWAP2 MUL SWAP2 SWAP1 SWAP2 OR SWAP1 SWAP2 SSTORE PUSH1 0x3 DUP1 SLOAD PUSH1 0x1 PUSH1 0x1 PUSH1 0xA0 SHL SUB NOT AND SWAP2 DUP5 AND SWAP2 SWAP1 SWAP2 OR SWAP1 SSTORE PUSH3 0x19F PUSH1 0x0 DUP3 PUSH3 0x232 JUMP JUMPDEST PUSH3 0x1BA PUSH1 0x0 DUP1 MLOAD PUSH1 0x20 PUSH3 0x3776 DUP4 CODECOPY DUP2 MLOAD SWAP2 MSTORE DUP3 PUSH3 0x232 JUMP JUMPDEST PUSH3 0x1D5 PUSH1 0x0 DUP1 MLOAD PUSH1 0x20 PUSH3 0x3756 DUP4 CODECOPY DUP2 MLOAD SWAP2 MSTORE DUP3 PUSH3 0x232 JUMP JUMPDEST PUSH1 0x1 PUSH1 0x1 PUSH1 0xA0 SHL SUB DUP2 AND CALLER EQ PUSH3 0x229 JUMPI PUSH3 0x1F3 PUSH1 0x0 CALLER PUSH3 0x232 JUMP JUMPDEST PUSH3 0x20E PUSH1 0x0 DUP1 MLOAD PUSH1 0x20 PUSH3 0x3776 DUP4 CODECOPY DUP2 MLOAD SWAP2 MSTORE CALLER PUSH3 0x232 JUMP JUMPDEST PUSH3 0x229 PUSH1 0x0 DUP1 MLOAD PUSH1 0x20 PUSH3 0x3756 DUP4 CODECOPY DUP2 MLOAD SWAP2 MSTORE CALLER PUSH3 0x232 JUMP JUMPDEST POP POP POP PUSH3 0x33A JUMP JUMPDEST PUSH1 0x0 DUP3 DUP2 MSTORE PUSH1 0x20 DUP2 DUP2 MSTORE PUSH1 0x40 DUP1 DUP4 KECCAK256 PUSH1 0x1 PUSH1 0x1 PUSH1 0xA0 SHL SUB DUP6 AND DUP5 MSTORE SWAP1 SWAP2 MSTORE SWAP1 KECCAK256 SLOAD PUSH1 0xFF AND PUSH3 0x2CF JUMPI PUSH1 0x0 DUP3 DUP2 MSTORE PUSH1 0x20 DUP2 DUP2 MSTORE PUSH1 0x40 DUP1 DUP4 KECCAK256 PUSH1 0x1 PUSH1 0x1 PUSH1 0xA0 SHL SUB DUP6 AND DUP5 MSTORE SWAP1 SWAP2 MSTORE SWAP1 KECCAK256 DUP1 SLOAD PUSH1 0xFF NOT AND PUSH1 0x1 OR SWAP1 SSTORE PUSH3 0x28E CALLER SWAP1 JUMP JUMPDEST PUSH1 0x1 PUSH1 0x1 PUSH1 0xA0 SHL SUB AND DUP2 PUSH1 0x1 PUSH1 0x1 PUSH1 0xA0 SHL SUB AND DUP4 PUSH32 0x2F8788117E7EFF1D82E926EC794901D17C78024A50270940304540A733656F0D PUSH1 0x40 MLOAD PUSH1 0x40 MLOAD DUP1 SWAP2 SUB SWAP1 LOG4 JUMPDEST POP POP JUMP JUMPDEST DUP1 MLOAD PUSH1 0x1 PUSH1 0x1 PUSH1 0xA0 SHL SUB DUP2 AND DUP2 EQ PUSH3 0x2EB JUMPI PUSH1 0x0 DUP1 REVERT JUMPDEST SWAP2 SWAP1 POP JUMP JUMPDEST PUSH1 0x0 DUP1 PUSH1 0x0 PUSH1 0x60 DUP5 DUP7 SUB SLT ISZERO PUSH3 0x306 JUMPI PUSH1 0x0 DUP1 REVERT JUMPDEST PUSH3 0x311 DUP5 PUSH3 0x2D3 JUMP JUMPDEST SWAP3 POP PUSH3 0x321 PUSH1 0x20 DUP6 ADD PUSH3 0x2D3 JUMP JUMPDEST SWAP2 POP PUSH3 0x331 PUSH1 0x40 DUP6 ADD PUSH3 0x2D3 JUMP JUMPDEST SWAP1 POP SWAP3 POP SWAP3 POP SWAP3 JUMP JUMPDEST PUSH2 0x340C DUP1 PUSH3 0x34A PUSH1 0x0 CODECOPY PUSH1 0x0 RETURN INVALID PUSH1 0x80 PUSH1 0x40 MSTORE CALLVALUE DUP1 ISZERO PUSH2 0x10 JUMPI PUSH1 0x0 DUP1 REVERT JUMPDEST POP PUSH1 0x4 CALLDATASIZE LT PUSH2 0x227 JUMPI PUSH1 0x0 CALLDATALOAD PUSH1 0xE0 SHR DUP1 PUSH4 0x8F55AAC4 GT PUSH2 0x130 JUMPI DUP1 PUSH4 0xB219F7D7 GT PUSH2 0xB8 JUMPI DUP1 PUSH4 0xDB880DA2 GT PUSH2 0x7C JUMPI DUP1 PUSH4 0xDB880DA2 EQ PUSH2 0x4F7 JUMPI DUP1 PUSH4 0xDBE54579 EQ PUSH2 0x522 JUMPI DUP1 PUSH4 0xE4F7B2CC EQ PUSH2 0x535 JUMPI DUP1 PUSH4 0xF1CEFF33 EQ PUSH2 0x53E JUMPI DUP1 PUSH4 0xF5B541A6 EQ PUSH2 0x551 JUMPI PUSH1 0x0 DUP1 REVERT JUMPDEST DUP1 PUSH4 0xB219F7D7 EQ PUSH2 0x48B JUMPI DUP1 PUSH4 0xB3990166 EQ PUSH2 0x49E JUMPI DUP1 PUSH4 0xD436B75F EQ PUSH2 0x4BE JUMPI DUP1 PUSH4 0xD547741F EQ PUSH2 0x4D1 JUMPI DUP1 PUSH4 0xD849EEAD EQ PUSH2 0x4E4 JUMPI PUSH1 0x0 DUP1 REVERT JUMPDEST DUP1 PUSH4 0x9F2AF9C7 GT PUSH2 0xFF JUMPI DUP1 PUSH4 0x9F2AF9C7 EQ PUSH2 0x44B JUMPI DUP1 PUSH4 0xA217FDDF EQ PUSH2 0x454 JUMPI DUP1 PUSH4 0xA637D6C2 EQ PUSH2 0x45C JUMPI DUP1 PUSH4 0xA98AD46C EQ PUSH2 0x46F JUMPI DUP1 PUSH4 0xAC0E0033 EQ PUSH2 0x482 JUMPI PUSH1 0x0 DUP1 REVERT JUMPDEST DUP1 PUSH4 0x8F55AAC4 EQ PUSH2 0x3E6 JUMPI DUP1 PUSH4 0x91D14854 EQ PUSH2 0x3F9 JUMPI DUP1 PUSH4 0x9837F0DF EQ PUSH2 0x40C JUMPI DUP1 PUSH4 0x9DBADE7F EQ PUSH2 0x438 JUMPI PUSH1 0x0 DUP1 REVERT JUMPDEST DUP1 PUSH4 0x3F4BA83A GT PUSH2 0x1B3 JUMPI DUP1 PUSH4 0x5C975ABB GT PUSH2 0x182 JUMPI DUP1 PUSH4 0x5C975ABB EQ PUSH2 0x389 JUMPI DUP1 PUSH4 0x71853559 EQ PUSH2 0x394 JUMPI DUP1 PUSH4 0x82AEFE6C EQ PUSH2 0x3A7 JUMPI DUP1 PUSH4 0x8456CB59 EQ PUSH2 0x3CB JUMPI DUP1 PUSH4 0x8B63C267 EQ PUSH2 0x3D3 JUMPI PUSH1 0x0 DUP1 REVERT JUMPDEST DUP1 PUSH4 0x3F4BA83A EQ PUSH2 0x32E JUMPI DUP1 PUSH4 0x413976AD EQ PUSH2 0x336 JUMPI DUP1 PUSH4 0x4B6A28EB EQ PUSH2 0x356 JUMPI DUP1 PUSH4 0x4B73884C EQ PUSH2 0x369 JUMPI PUSH1 0x0 DUP1 REVERT JUMPDEST DUP1 PUSH4 0x27AC0C58 GT PUSH2 0x1FA JUMPI DUP1 PUSH4 0x27AC0C58 EQ PUSH2 0x2BE JUMPI DUP1 PUSH4 0x2CBD9C33 EQ PUSH2 0x2D3 JUMPI DUP1 PUSH4 0x2F2FF15D EQ PUSH2 0x2F3 JUMPI DUP1 PUSH4 0x349B5954 EQ PUSH2 0x306 JUMPI DUP1 PUSH4 0x36568ABE EQ PUSH2 0x31B JUMPI PUSH1 0x0 DUP1 REVERT JUMPDEST DUP1 PUSH4 0x1FFC9A7 EQ PUSH2 0x22C JUMPI DUP1 PUSH4 0xC5BF351 EQ PUSH2 0x254 JUMPI DUP1 PUSH4 0x24048BA1 EQ PUSH2 0x284 JUMPI DUP1 PUSH4 0x248A9CA3 EQ PUSH2 0x29B JUMPI JUMPDEST PUSH1 0x0 DUP1 REVERT JUMPDEST PUSH2 0x23F PUSH2 0x23A CALLDATASIZE PUSH1 0x4 PUSH2 0x281E JUMP JUMPDEST PUSH2 0x566 JUMP JUMPDEST PUSH1 0x40 MLOAD SWAP1 ISZERO ISZERO DUP2 MSTORE PUSH1 0x20 ADD JUMPDEST PUSH1 0x40 MLOAD DUP1 SWAP2 SUB SWAP1 RETURN JUMPDEST PUSH1 0x2 SLOAD PUSH2 0x26C SWAP1 PUSH2 0x100 SWAP1 DIV PUSH1 0x1 PUSH1 0x1 PUSH1 0xA0 SHL SUB AND DUP2 JUMP JUMPDEST PUSH1 0x40 MLOAD PUSH1 0x1 PUSH1 0x1 PUSH1 0xA0 SHL SUB SWAP1 SWAP2 AND DUP2 MSTORE PUSH1 0x20 ADD PUSH2 0x24B JUMP JUMPDEST PUSH2 0x28D PUSH1 0xA SLOAD DUP2 JUMP JUMPDEST PUSH1 0x40 MLOAD SWAP1 DUP2 MSTORE PUSH1 0x20 ADD PUSH2 0x24B JUMP JUMPDEST PUSH2 0x28D PUSH2 0x2A9 CALLDATASIZE PUSH1 0x4 PUSH2 0x2848 JUMP JUMPDEST PUSH1 0x0 SWAP1 DUP2 MSTORE PUSH1 0x20 DUP2 SWAP1 MSTORE PUSH1 0x40 SWAP1 KECCAK256 PUSH1 0x1 ADD SLOAD SWAP1 JUMP JUMPDEST PUSH2 0x2D1 PUSH2 0x2CC CALLDATASIZE PUSH1 0x4 PUSH2 0x287D JUMP JUMPDEST PUSH2 0x59D JUMP JUMPDEST STOP JUMPDEST PUSH2 0x2E6 PUSH2 0x2E1 CALLDATASIZE PUSH1 0x4 PUSH2 0x293B JUMP JUMPDEST PUSH2 0x5C4 JUMP JUMPDEST PUSH1 0x40 MLOAD PUSH2 0x24B SWAP2 SWAP1 PUSH2 0x29C8 JUMP JUMPDEST PUSH2 0x2D1 PUSH2 0x301 CALLDATASIZE PUSH1 0x4 PUSH2 0x2A66 JUMP JUMPDEST PUSH2 0x708 JUMP JUMPDEST PUSH2 0x28D PUSH1 0x0 DUP1 MLOAD PUSH1 0x20 PUSH2 0x3397 DUP4 CODECOPY DUP2 MLOAD SWAP2 MSTORE DUP2 JUMP JUMPDEST PUSH2 0x2D1 PUSH2 0x329 CALLDATASIZE PUSH1 0x4 PUSH2 0x2A66 JUMP JUMPDEST PUSH2 0x732 JUMP JUMPDEST PUSH2 0x2D1 PUSH2 0x7B1 JUMP JUMPDEST PUSH2 0x349 PUSH2 0x344 CALLDATASIZE PUSH1 0x4 PUSH2 0x287D JUMP JUMPDEST PUSH2 0x7C7 JUMP JUMPDEST PUSH1 0x40 MLOAD PUSH2 0x24B SWAP2 SWAP1 PUSH2 0x2A92 JUMP JUMPDEST PUSH2 0x2D1 PUSH2 0x364 CALLDATASIZE PUSH1 0x4 PUSH2 0x2AF4 JUMP JUMPDEST PUSH2 0x8AB JUMP JUMPDEST PUSH2 0x37C PUSH2 0x377 CALLDATASIZE PUSH1 0x4 PUSH2 0x293B JUMP JUMPDEST PUSH2 0xDCC JUMP JUMPDEST PUSH1 0x40 MLOAD PUSH2 0x24B SWAP2 SWAP1 PUSH2 0x2C18 JUMP JUMPDEST PUSH1 0x2 SLOAD PUSH1 0xFF AND PUSH2 0x23F JUMP JUMPDEST PUSH2 0x349 PUSH2 0x3A2 CALLDATASIZE PUSH1 0x4 PUSH2 0x287D JUMP JUMPDEST PUSH2 0x115B JUMP JUMPDEST PUSH2 0x3BA PUSH2 0x3B5 CALLDATASIZE PUSH1 0x4 PUSH2 0x2D26 JUMP JUMPDEST PUSH2 0x123F JUMP JUMPDEST PUSH1 0x40 MLOAD PUSH2 0x24B SWAP6 SWAP5 SWAP4 SWAP3 SWAP2 SWAP1 PUSH2 0x2D6B JUMP JUMPDEST PUSH2 0x2D1 PUSH2 0x1334 JUMP JUMPDEST PUSH2 0x2D1 PUSH2 0x3E1 CALLDATASIZE PUSH1 0x4 PUSH2 0x2DA9 JUMP JUMPDEST PUSH2 0x1347 JUMP JUMPDEST PUSH2 0x2D1 PUSH2 0x3F4 CALLDATASIZE PUSH1 0x4 PUSH2 0x2DD3 JUMP JUMPDEST PUSH2 0x14A8 JUMP JUMPDEST PUSH2 0x23F PUSH2 0x407 CALLDATASIZE PUSH1 0x4 PUSH2 0x2A66 JUMP JUMPDEST PUSH2 0x193F JUMP JUMPDEST PUSH1 0x8 SLOAD PUSH1 0x9 SLOAD PUSH1 0xA SLOAD PUSH1 0xB SLOAD PUSH1 0x40 DUP1 MLOAD SWAP5 DUP6 MSTORE PUSH1 0x20 DUP6 ADD SWAP4 SWAP1 SWAP4 MSTORE SWAP2 DUP4 ADD MSTORE PUSH1 0x60 DUP3 ADD MSTORE PUSH1 0x80 ADD PUSH2 0x24B JUMP JUMPDEST PUSH2 0x2D1 PUSH2 0x446 CALLDATASIZE PUSH1 0x4 PUSH2 0x287D JUMP JUMPDEST PUSH2 0x1968 JUMP JUMPDEST PUSH2 0x28D PUSH1 0x9 SLOAD DUP2 JUMP JUMPDEST PUSH2 0x28D PUSH1 0x0 DUP2 JUMP JUMPDEST PUSH2 0x2D1 PUSH2 0x46A CALLDATASIZE PUSH1 0x4 PUSH2 0x293B JUMP JUMPDEST PUSH2 0x198B JUMP JUMPDEST PUSH1 0x3 SLOAD PUSH2 0x26C SWAP1 PUSH1 0x1 PUSH1 0x1 PUSH1 0xA0 SHL SUB AND DUP2 JUMP JUMPDEST PUSH2 0x28D PUSH1 0x8 SLOAD DUP2 JUMP JUMPDEST PUSH2 0x2D1 PUSH2 0x499 CALLDATASIZE PUSH1 0x4 PUSH2 0x287D JUMP JUMPDEST PUSH2 0x1BFA JUMP JUMPDEST PUSH2 0x4B1 PUSH2 0x4AC CALLDATASIZE PUSH1 0x4 PUSH2 0x2DA9 JUMP JUMPDEST PUSH2 0x1C1D JUMP JUMPDEST PUSH1 0x40 MLOAD PUSH2 0x24B SWAP2 SWAP1 PUSH2 0x2E40 JUMP JUMPDEST PUSH2 0x2D1 PUSH2 0x4CC CALLDATASIZE PUSH1 0x4 PUSH2 0x2848 JUMP JUMPDEST PUSH2 0x1CD6 JUMP JUMPDEST PUSH2 0x2D1 PUSH2 0x4DF CALLDATASIZE PUSH1 0x4 PUSH2 0x2A66 JUMP JUMPDEST PUSH2 0x1D78 JUMP JUMPDEST PUSH2 0x2D1 PUSH2 0x4F2 CALLDATASIZE PUSH1 0x4 PUSH2 0x2D26 JUMP JUMPDEST PUSH2 0x1D9D JUMP JUMPDEST PUSH2 0x50A PUSH2 0x505 CALLDATASIZE PUSH1 0x4 PUSH2 0x293B JUMP JUMPDEST PUSH2 0x1FC3 JUMP JUMPDEST PUSH1 0x40 MLOAD PUSH2 0x24B SWAP13 SWAP12 SWAP11 SWAP10 SWAP9 SWAP8 SWAP7 SWAP6 SWAP5 SWAP4 SWAP3 SWAP2 SWAP1 PUSH2 0x2E53 JUMP JUMPDEST PUSH2 0x4B1 PUSH2 0x530 CALLDATASIZE PUSH1 0x4 PUSH2 0x2DA9 JUMP JUMPDEST PUSH2 0x22EA JUMP JUMPDEST PUSH2 0x28D PUSH1 0xB SLOAD DUP2 JUMP JUMPDEST PUSH2 0x2D1 PUSH2 0x54C CALLDATASIZE PUSH1 0x4 PUSH2 0x287D JUMP JUMPDEST PUSH2 0x2306 JUMP JUMPDEST PUSH2 0x28D PUSH1 0x0 DUP1 MLOAD PUSH1 0x20 PUSH2 0x33B7 DUP4 CODECOPY DUP2 MLOAD SWAP2 MSTORE DUP2 JUMP JUMPDEST PUSH1 0x0 PUSH1 0x1 PUSH1 0x1 PUSH1 0xE0 SHL SUB NOT DUP3 AND PUSH4 0x7965DB0B PUSH1 0xE0 SHL EQ DUP1 PUSH2 0x597 JUMPI POP PUSH4 0x1FFC9A7 PUSH1 0xE0 SHL PUSH1 0x1 PUSH1 0x1 PUSH1 0xE0 SHL SUB NOT DUP4 AND EQ JUMPDEST SWAP3 SWAP2 POP POP JUMP JUMPDEST PUSH1 0x0 PUSH2 0x5A8 DUP2 PUSH2 0x2329 JUMP JUMPDEST PUSH2 0x5C0 PUSH1 0x0 DUP1 MLOAD PUSH1 0x20 PUSH2 0x33B7 DUP4 CODECOPY DUP2 MLOAD SWAP2 MSTORE DUP4 PUSH2 0x708 JUMP JUMPDEST POP POP JUMP JUMPDEST PUSH1 0x60 PUSH1 0x5 DUP3 PUSH1 0x40 MLOAD PUSH2 0x5D6 SWAP2 SWAP1 PUSH2 0x2F07 JUMP JUMPDEST SWAP1 DUP2 MSTORE PUSH1 0x20 ADD PUSH1 0x40 MLOAD DUP1 SWAP2 SUB SWAP1 KECCAK256 DUP1 SLOAD DUP1 PUSH1 0x20 MUL PUSH1 0x20 ADD PUSH1 0x40 MLOAD SWAP1 DUP2 ADD PUSH1 0x40 MSTORE DUP1 SWAP3 SWAP2 SWAP1 DUP2 DUP2 MSTORE PUSH1 0x20 ADD PUSH1 0x0 SWAP1 JUMPDEST DUP3 DUP3 LT ISZERO PUSH2 0x6FD JUMPI PUSH1 0x0 DUP5 DUP2 MSTORE PUSH1 0x20 SWAP1 DUP2 SWAP1 KECCAK256 PUSH1 0x40 DUP1 MLOAD PUSH1 0xA0 DUP2 ADD DUP3 MSTORE PUSH1 0x5 DUP7 MUL SWAP1 SWAP3 ADD DUP1 SLOAD PUSH1 0x1 PUSH1 0x1 PUSH1 0xA0 SHL SUB AND DUP4 MSTORE PUSH1 0x1 DUP2 ADD SLOAD SWAP4 DUP4 ADD SWAP4 SWAP1 SWAP4 MSTORE PUSH1 0x2 DUP4 ADD SLOAD SWAP1 DUP3 ADD MSTORE PUSH1 0x3 DUP3 ADD SLOAD PUSH1 0x60 DUP3 ADD MSTORE PUSH1 0x4 DUP3 ADD DUP1 SLOAD SWAP2 SWAP3 SWAP2 PUSH1 0x80 DUP5 ADD SWAP2 SWAP1 PUSH2 0x66C SWAP1 PUSH2 0x2F23 JUMP JUMPDEST DUP1 PUSH1 0x1F ADD PUSH1 0x20 DUP1 SWAP2 DIV MUL PUSH1 0x20 ADD PUSH1 0x40 MLOAD SWAP1 DUP2 ADD PUSH1 0x40 MSTORE DUP1 SWAP3 SWAP2 SWAP1 DUP2 DUP2 MSTORE PUSH1 0x20 ADD DUP3 DUP1 SLOAD PUSH2 0x698 SWAP1 PUSH2 0x2F23 JUMP JUMPDEST DUP1 ISZERO PUSH2 0x6E5 JUMPI DUP1 PUSH1 0x1F LT PUSH2 0x6BA JUMPI PUSH2 0x100 DUP1 DUP4 SLOAD DIV MUL DUP4 MSTORE SWAP2 PUSH1 0x20 ADD SWAP2 PUSH2 0x6E5 JUMP JUMPDEST DUP3 ADD SWAP2 SWAP1 PUSH1 0x0 MSTORE PUSH1 0x20 PUSH1 0x0 KECCAK256 SWAP1 JUMPDEST DUP2 SLOAD DUP2 MSTORE SWAP1 PUSH1 0x1 ADD SWAP1 PUSH1 0x20 ADD DUP1 DUP4 GT PUSH2 0x6C8 JUMPI DUP3 SWAP1 SUB PUSH1 0x1F AND DUP3 ADD SWAP2 JUMPDEST POP POP POP POP POP DUP2 MSTORE POP POP DUP2 MSTORE PUSH1 0x20 ADD SWAP1 PUSH1 0x1 ADD SWAP1 PUSH2 0x604 JUMP JUMPDEST POP POP POP POP SWAP1 POP SWAP2 SWAP1 POP JUMP JUMPDEST PUSH1 0x0 DUP3 DUP2 MSTORE PUSH1 0x20 DUP2 SWAP1 MSTORE PUSH1 0x40 SWAP1 KECCAK256 PUSH1 0x1 ADD SLOAD PUSH2 0x723 DUP2 PUSH2 0x2329 JUMP JUMPDEST PUSH2 0x72D DUP4 DUP4 PUSH2 0x2333 JUMP JUMPDEST POP POP POP JUMP JUMPDEST PUSH1 0x1 PUSH1 0x1 PUSH1 0xA0 SHL SUB DUP2 AND CALLER EQ PUSH2 0x7A7 JUMPI PUSH1 0x40 MLOAD PUSH3 0x461BCD PUSH1 0xE5 SHL DUP2 MSTORE PUSH1 0x20 PUSH1 0x4 DUP3 ADD MSTORE PUSH1 0x2F PUSH1 0x24 DUP3 ADD MSTORE PUSH32 0x416363657373436F6E74726F6C3A2063616E206F6E6C792072656E6F756E6365 PUSH1 0x44 DUP3 ADD MSTORE PUSH15 0x103937B632B9903337B91039B2B633 PUSH1 0x89 SHL PUSH1 0x64 DUP3 ADD MSTORE PUSH1 0x84 ADD JUMPDEST PUSH1 0x40 MLOAD DUP1 SWAP2 SUB SWAP1 REVERT JUMPDEST PUSH2 0x5C0 DUP3 DUP3 PUSH2 0x23B7 JUMP JUMPDEST PUSH1 0x0 PUSH2 0x7BC DUP2 PUSH2 0x2329 JUMP JUMPDEST PUSH2 0x7C4 PUSH2 0x241C JUMP JUMPDEST POP JUMP JUMPDEST PUSH1 0x1 PUSH1 0x1 PUSH1 0xA0 SHL SUB DUP2 AND PUSH1 0x0 SWAP1 DUP2 MSTORE PUSH1 0x6 PUSH1 0x20 SWAP1 DUP2 MSTORE PUSH1 0x40 DUP1 DUP4 KECCAK256 DUP1 SLOAD DUP3 MLOAD DUP2 DUP6 MUL DUP2 ADD DUP6 ADD SWAP1 SWAP4 MSTORE DUP1 DUP4 MSTORE PUSH1 0x60 SWAP5 SWAP3 SWAP4 SWAP2 SWAP3 SWAP1 SWAP2 DUP5 ADD JUMPDEST DUP3 DUP3 LT ISZERO PUSH2 0x6FD JUMPI DUP4 DUP3 SWAP1 PUSH1 0x0 MSTORE PUSH1 0x20 PUSH1 0x0 KECCAK256 ADD DUP1 SLOAD PUSH2 0x81E SWAP1 PUSH2 0x2F23 JUMP JUMPDEST DUP1 PUSH1 0x1F ADD PUSH1 0x20 DUP1 SWAP2 DIV MUL PUSH1 0x20 ADD PUSH1 0x40 MLOAD SWAP1 DUP2 ADD PUSH1 0x40 MSTORE DUP1 SWAP3 SWAP2 SWAP1 DUP2 DUP2 MSTORE PUSH1 0x20 ADD DUP3 DUP1 SLOAD PUSH2 0x84A SWAP1 PUSH2 0x2F23 JUMP JUMPDEST DUP1 ISZERO PUSH2 0x897 JUMPI DUP1 PUSH1 0x1F LT PUSH2 0x86C JUMPI PUSH2 0x100 DUP1 DUP4 SLOAD DIV MUL DUP4 MSTORE SWAP2 PUSH1 0x20 ADD SWAP2 PUSH2 0x897 JUMP JUMPDEST DUP3 ADD SWAP2 SWAP1 PUSH1 0x0 MSTORE PUSH1 0x20 PUSH1 0x0 KECCAK256 SWAP1 JUMPDEST DUP2 SLOAD DUP2 MSTORE SWAP1 PUSH1 0x1 ADD SWAP1 PUSH1 0x20 ADD DUP1 DUP4 GT PUSH2 0x87A JUMPI DUP3 SWAP1 SUB PUSH1 0x1F AND DUP3 ADD SWAP2 JUMPDEST POP POP POP POP POP DUP2 MSTORE PUSH1 0x20 ADD SWAP1 PUSH1 0x1 ADD SWAP1 PUSH2 0x7FF JUMP JUMPDEST PUSH1 0x0 DUP1 MLOAD PUSH1 0x20 PUSH2 0x33B7 DUP4 CODECOPY DUP2 MLOAD SWAP2 MSTORE PUSH2 0x8C3 DUP2 PUSH2 0x2329 JUMP JUMPDEST PUSH2 0x8CB PUSH2 0x246E JUMP JUMPDEST PUSH2 0x8D3 PUSH2 0x24B6 JUMP JUMPDEST PUSH1 0x0 DUP9 MLOAD GT PUSH2 0x924 JUMPI PUSH1 0x40 MLOAD PUSH3 0x461BCD PUSH1 0xE5 SHL DUP2 MSTORE PUSH1 0x20 PUSH1 0x4 DUP3 ADD MSTORE PUSH1 0x1C PUSH1 0x24 DUP3 ADD MSTORE PUSH32 0x41677265656D656E742049442063616E6E6F7420626520656D70747900000000 PUSH1 0x44 DUP3 ADD MSTORE PUSH1 0x64 ADD PUSH2 0x79E JUMP JUMPDEST PUSH1 0x1 PUSH1 0x1 PUSH1 0xA0 SHL SUB DUP8 AND PUSH2 0x973 JUMPI PUSH1 0x40 MLOAD PUSH3 0x461BCD PUSH1 0xE5 SHL DUP2 MSTORE PUSH1 0x20 PUSH1 0x4 DUP3 ADD MSTORE PUSH1 0x16 PUSH1 0x24 DUP3 ADD MSTORE PUSH22 0x496E76616C696420636C69656E742061646472657373 PUSH1 0x50 SHL PUSH1 0x44 DUP3 ADD MSTORE PUSH1 0x64 ADD PUSH2 0x79E JUMP JUMPDEST PUSH1 0x0 DUP4 GT PUSH2 0x9CE JUMPI PUSH1 0x40 MLOAD PUSH3 0x461BCD PUSH1 0xE5 SHL DUP2 MSTORE PUSH1 0x20 PUSH1 0x4 DUP3 ADD MSTORE PUSH1 0x22 PUSH1 0x24 DUP3 ADD MSTORE PUSH32 0x41737365742076616C7565206D7573742062652067726561746572207468616E PUSH1 0x44 DUP3 ADD MSTORE PUSH2 0x203 PUSH1 0xF4 SHL PUSH1 0x64 DUP3 ADD MSTORE PUSH1 0x84 ADD PUSH2 0x79E JUMP JUMPDEST PUSH1 0x4 DUP9 PUSH1 0x40 MLOAD PUSH2 0x9DE SWAP2 SWAP1 PUSH2 0x2F07 JUMP JUMPDEST SWAP1 DUP2 MSTORE PUSH1 0x20 ADD PUSH1 0x40 MLOAD DUP1 SWAP2 SUB SWAP1 KECCAK256 PUSH1 0x9 ADD SLOAD PUSH1 0x0 EQ PUSH2 0xA3F JUMPI PUSH1 0x40 MLOAD PUSH3 0x461BCD PUSH1 0xE5 SHL DUP2 MSTORE PUSH1 0x20 PUSH1 0x4 DUP3 ADD MSTORE PUSH1 0x18 PUSH1 0x24 DUP3 ADD MSTORE PUSH32 0x41677265656D656E7420616C7265616479206578697374730000000000000000 PUSH1 0x44 DUP3 ADD MSTORE PUSH1 0x64 ADD PUSH2 0x79E JUMP JUMPDEST PUSH1 0x0 PUSH1 0x2 PUSH1 0x1 SWAP1 SLOAD SWAP1 PUSH2 0x100 EXP SWAP1 DIV PUSH1 0x1 PUSH1 0x1 PUSH1 0xA0 SHL SUB AND PUSH1 0x1 PUSH1 0x1 PUSH1 0xA0 SHL SUB AND PUSH4 0xE6C0E6D5 PUSH1 0x40 MLOAD DUP2 PUSH4 0xFFFFFFFF AND PUSH1 0xE0 SHL DUP2 MSTORE PUSH1 0x4 ADD PUSH1 0x20 PUSH1 0x40 MLOAD DUP1 DUP4 SUB DUP2 DUP7 GAS STATICCALL ISZERO DUP1 ISZERO PUSH2 0xA94 JUMPI RETURNDATASIZE PUSH1 0x0 DUP1 RETURNDATACOPY RETURNDATASIZE PUSH1 0x0 REVERT JUMPDEST POP POP POP POP PUSH1 0x40 MLOAD RETURNDATASIZE PUSH1 0x1F NOT PUSH1 0x1F DUP3 ADD AND DUP3 ADD DUP1 PUSH1 0x40 MSTORE POP DUP2 ADD SWAP1 PUSH2 0xAB8 SWAP2 SWAP1 PUSH2 0x2F5D JUMP JUMPDEST SWAP1 POP PUSH1 0x0 PUSH1 0x64 PUSH2 0xAC8 DUP4 DUP8 PUSH2 0x2F8C JUMP JUMPDEST PUSH2 0xAD2 SWAP2 SWAP1 PUSH2 0x2FA3 JUMP JUMPDEST SWAP1 POP PUSH1 0x0 PUSH1 0x64 PUSH1 0xB SLOAD PUSH1 0x64 PUSH2 0xAE7 SWAP2 SWAP1 PUSH2 0x2FC5 JUMP JUMPDEST PUSH2 0xAF1 SWAP1 DUP5 PUSH2 0x2F8C JUMP JUMPDEST PUSH2 0xAFB SWAP2 SWAP1 PUSH2 0x2FA3 JUMP JUMPDEST SWAP1 POP PUSH1 0x40 MLOAD DUP1 PUSH2 0x180 ADD PUSH1 0x40 MSTORE DUP1 DUP13 DUP2 MSTORE PUSH1 0x20 ADD DUP12 PUSH1 0x1 PUSH1 0x1 PUSH1 0xA0 SHL SUB AND DUP2 MSTORE PUSH1 0x20 ADD DUP11 DUP2 MSTORE PUSH1 0x20 ADD DUP10 DUP2 MSTORE PUSH1 0x20 ADD DUP9 DUP2 MSTORE PUSH1 0x20 ADD DUP8 DUP2 MSTORE PUSH1 0x20 ADD DUP4 DUP2 MSTORE PUSH1 0x20 ADD PUSH8 0xDE0B6B3A7640000 DUP5 PUSH2 0xB50 SWAP2 SWAP1 PUSH2 0x2FA3 JUMP JUMPDEST DUP2 MSTORE PUSH1 0x20 DUP2 ADD DUP4 SWAP1 MSTORE TIMESTAMP PUSH1 0x40 DUP3 ADD MSTORE PUSH1 0x60 ADD PUSH1 0x0 DUP2 MSTORE PUSH1 0x20 ADD DUP7 DUP2 MSTORE POP PUSH1 0x4 DUP13 PUSH1 0x40 MLOAD PUSH2 0xB7D SWAP2 SWAP1 PUSH2 0x2F07 JUMP JUMPDEST SWAP1 DUP2 MSTORE PUSH1 0x40 MLOAD SWAP1 DUP2 SWAP1 SUB PUSH1 0x20 ADD SWAP1 KECCAK256 DUP2 MLOAD DUP2 SWAP1 PUSH2 0xB9A SWAP1 DUP3 PUSH2 0x3026 JUMP JUMPDEST POP PUSH1 0x20 DUP3 ADD MLOAD PUSH1 0x1 DUP3 ADD DUP1 SLOAD PUSH1 0x1 PUSH1 0x1 PUSH1 0xA0 SHL SUB NOT AND PUSH1 0x1 PUSH1 0x1 PUSH1 0xA0 SHL SUB SWAP1 SWAP3 AND SWAP2 SWAP1 SWAP2 OR SWAP1 SSTORE PUSH1 0x40 DUP3 ADD MLOAD PUSH1 0x2 DUP3 ADD SWAP1 PUSH2 0xBD5 SWAP1 DUP3 PUSH2 0x3026 JUMP JUMPDEST POP PUSH1 0x60 DUP3 ADD MLOAD PUSH1 0x3 DUP3 ADD SWAP1 PUSH2 0xBEA SWAP1 DUP3 PUSH2 0x3026 JUMP JUMPDEST POP PUSH1 0x80 DUP3 ADD MLOAD PUSH1 0x4 DUP3 ADD SWAP1 PUSH2 0xBFF SWAP1 DUP3 PUSH2 0x3026 JUMP JUMPDEST POP PUSH1 0xA0 DUP3 ADD MLOAD PUSH1 0x5 DUP3 ADD SSTORE PUSH1 0xC0 DUP3 ADD MLOAD PUSH1 0x6 DUP3 ADD SSTORE PUSH1 0xE0 DUP3 ADD MLOAD PUSH1 0x7 DUP3 ADD SSTORE PUSH2 0x100 DUP3 ADD MLOAD PUSH1 0x8 DUP3 ADD SSTORE PUSH2 0x120 DUP3 ADD MLOAD PUSH1 0x9 DUP3 ADD SSTORE PUSH2 0x140 DUP3 ADD MLOAD PUSH1 0xA DUP3 ADD DUP1 SLOAD PUSH1 0xFF NOT AND PUSH1 0x1 DUP4 PUSH1 0x4 DUP2 GT ISZERO PUSH2 0xC58 JUMPI PUSH2 0xC58 PUSH2 0x2BE0 JUMP JUMPDEST MUL OR SWAP1 SSTORE POP PUSH2 0x160 DUP3 ADD MLOAD PUSH1 0xB DUP3 ADD SWAP1 PUSH2 0xC72 SWAP1 DUP3 PUSH2 0x3026 JUMP JUMPDEST POP POP POP PUSH1 0x1 PUSH1 0x1 PUSH1 0xA0 SHL SUB DUP11 AND PUSH1 0x0 SWAP1 DUP2 MSTORE PUSH1 0x6 PUSH1 0x20 SWAP1 DUP2 MSTORE PUSH1 0x40 DUP3 KECCAK256 DUP1 SLOAD PUSH1 0x1 DUP2 ADD DUP3 SSTORE SWAP1 DUP4 MSTORE SWAP2 KECCAK256 ADD PUSH2 0xCA7 DUP13 DUP3 PUSH2 0x3026 JUMP JUMPDEST POP PUSH1 0x2 SLOAD PUSH1 0x40 MLOAD PUSH4 0xAA858899 PUSH1 0xE0 SHL DUP2 MSTORE PUSH2 0x100 SWAP1 SWAP2 DIV PUSH1 0x1 PUSH1 0x1 PUSH1 0xA0 SHL SUB AND SWAP1 PUSH4 0xAA858899 SWAP1 PUSH2 0xCE4 SWAP1 DUP13 SWAP1 DUP13 SWAP1 DUP13 SWAP1 DUP13 SWAP1 ADDRESS SWAP1 PUSH1 0x4 ADD PUSH2 0x30E6 JUMP JUMPDEST PUSH1 0x0 PUSH1 0x40 MLOAD DUP1 DUP4 SUB DUP2 PUSH1 0x0 DUP8 DUP1 EXTCODESIZE ISZERO DUP1 ISZERO PUSH2 0xCFE JUMPI PUSH1 0x0 DUP1 REVERT JUMPDEST POP GAS CALL ISZERO DUP1 ISZERO PUSH2 0xD12 JUMPI RETURNDATASIZE PUSH1 0x0 DUP1 RETURNDATACOPY RETURNDATASIZE PUSH1 0x0 REVERT JUMPDEST POP POP POP POP PUSH1 0x1 PUSH1 0x4 DUP13 PUSH1 0x40 MLOAD PUSH2 0xD28 SWAP2 SWAP1 PUSH2 0x2F07 JUMP JUMPDEST SWAP1 DUP2 MSTORE PUSH1 0x40 MLOAD SWAP1 DUP2 SWAP1 SUB PUSH1 0x20 ADD SWAP1 KECCAK256 PUSH1 0xA ADD DUP1 SLOAD PUSH1 0xFF NOT AND PUSH1 0x1 DUP4 PUSH1 0x4 DUP2 GT ISZERO PUSH2 0xD54 JUMPI PUSH2 0xD54 PUSH2 0x2BE0 JUMP JUMPDEST MUL OR SWAP1 SSTORE POP DUP10 PUSH1 0x1 PUSH1 0x1 PUSH1 0xA0 SHL SUB AND DUP12 PUSH1 0x40 MLOAD PUSH2 0xD71 SWAP2 SWAP1 PUSH2 0x2F07 JUMP JUMPDEST PUSH1 0x40 MLOAD DUP1 SWAP2 SUB SWAP1 KECCAK256 PUSH32 0x2533CAE92C0EFBD48BD4D6BA697B1EBBBB319F2E92C02F000F1367861FEE8ABB DUP12 DUP10 DUP7 DUP7 PUSH1 0x40 MLOAD PUSH2 0xDAE SWAP5 SWAP4 SWAP3 SWAP2 SWAP1 PUSH2 0x3142 JUMP JUMPDEST PUSH1 0x40 MLOAD DUP1 SWAP2 SUB SWAP1 LOG3 POP POP POP PUSH2 0xDC2 PUSH1 0x1 DUP1 SSTORE JUMP JUMPDEST POP POP POP POP POP POP POP POP JUMP JUMPDEST PUSH2 0xDD4 PUSH2 0x27A3 JUMP JUMPDEST PUSH1 0x4 DUP3 PUSH1 0x40 MLOAD PUSH2 0xDE4 SWAP2 SWAP1 PUSH2 0x2F07 JUMP JUMPDEST SWAP1 DUP2 MSTORE PUSH1 0x20 ADD PUSH1 0x40 MLOAD DUP1 SWAP2 SUB SWAP1 KECCAK256 PUSH1 0x40 MLOAD DUP1 PUSH2 0x180 ADD PUSH1 0x40 MSTORE SWAP1 DUP2 PUSH1 0x0 DUP3 ADD DUP1 SLOAD PUSH2 0xE0E SWAP1 PUSH2 0x2F23 JUMP JUMPDEST DUP1 PUSH1 0x1F ADD PUSH1 0x20 DUP1 SWAP2 DIV MUL PUSH1 0x20 ADD PUSH1 0x40 MLOAD SWAP1 DUP2 ADD PUSH1 0x40 MSTORE DUP1 SWAP3 SWAP2 SWAP1 DUP2 DUP2 MSTORE PUSH1 0x20 ADD DUP3 DUP1 SLOAD PUSH2 0xE3A SWAP1 PUSH2 0x2F23 JUMP JUMPDEST DUP1 ISZERO PUSH2 0xE87 JUMPI DUP1 PUSH1 0x1F LT PUSH2 0xE5C JUMPI PUSH2 0x100 DUP1 DUP4 SLOAD DIV MUL DUP4 MSTORE SWAP2 PUSH1 0x20 ADD SWAP2 PUSH2 0xE87 JUMP JUMPDEST DUP3 ADD SWAP2 SWAP1 PUSH1 0x0 MSTORE PUSH1 0x20 PUSH1 0x0 KECCAK256 SWAP1 JUMPDEST DUP2 SLOAD DUP2 MSTORE SWAP1 PUSH1 0x1 ADD SWAP1 PUSH1 0x20 ADD DUP1 DUP4 GT PUSH2 0xE6A JUMPI DUP3 SWAP1 SUB PUSH1 0x1F AND DUP3 ADD SWAP2 JUMPDEST POP POP POP SWAP2 DUP4 MSTORE POP POP PUSH1 0x1 DUP3 ADD SLOAD PUSH1 0x1 PUSH1 0x1 PUSH1 0xA0 SHL SUB AND PUSH1 0x20 DUP3 ADD MSTORE PUSH1 0x2 DUP3 ADD DUP1 SLOAD PUSH1 0x40 SWAP1 SWAP3 ADD SWAP2 PUSH2 0xEB7 SWAP1 PUSH2 0x2F23 JUMP JUMPDEST DUP1 PUSH1 0x1F ADD PUSH1 0x20 DUP1 SWAP2 DIV MUL PUSH1 0x20 ADD PUSH1 0x40 MLOAD SWAP1 DUP2 ADD PUSH1 0x40 MSTORE DUP1 SWAP3 SWAP2 SWAP1 DUP2 DUP2 MSTORE PUSH1 0x20 ADD DUP3 DUP1 SLOAD PUSH2 0xEE3 SWAP1 PUSH2 0x2F23 JUMP JUMPDEST DUP1 ISZERO PUSH2 0xF30 JUMPI DUP1 PUSH1 0x1F LT PUSH2 0xF05 JUMPI PUSH2 0x100 DUP1 DUP4 SLOAD DIV MUL DUP4 MSTORE SWAP2 PUSH1 0x20 ADD SWAP2 PUSH2 0xF30 JUMP JUMPDEST DUP3 ADD SWAP2 SWAP1 PUSH1 0x0 MSTORE PUSH1 0x20 PUSH1 0x0 KECCAK256 SWAP1 JUMPDEST DUP2 SLOAD DUP2 MSTORE SWAP1 PUSH1 0x1 ADD SWAP1 PUSH1 0x20 ADD DUP1 DUP4 GT PUSH2 0xF13 JUMPI DUP3 SWAP1 SUB PUSH1 0x1F AND DUP3 ADD SWAP2 JUMPDEST POP POP POP POP POP DUP2 MSTORE PUSH1 0x20 ADD PUSH1 0x3 DUP3 ADD DUP1 SLOAD PUSH2 0xF49 SWAP1 PUSH2 0x2F23 JUMP JUMPDEST DUP1 PUSH1 0x1F ADD PUSH1 0x20 DUP1 SWAP2 DIV MUL PUSH1 0x20 ADD PUSH1 0x40 MLOAD SWAP1 DUP2 ADD PUSH1 0x40 MSTORE DUP1 SWAP3 SWAP2 SWAP1 DUP2 DUP2 MSTORE PUSH1 0x20 ADD DUP3 DUP1 SLOAD PUSH2 0xF75 SWAP1 PUSH2 0x2F23 JUMP JUMPDEST DUP1 ISZERO PUSH2 0xFC2 JUMPI DUP1 PUSH1 0x1F LT PUSH2 0xF97 JUMPI PUSH2 0x100 DUP1 DUP4 SLOAD DIV MUL DUP4 MSTORE SWAP2 PUSH1 0x20 ADD SWAP2 PUSH2 0xFC2 JUMP JUMPDEST DUP3 ADD SWAP2 SWAP1 PUSH1 0x0 MSTORE PUSH1 0x20 PUSH1 0x0 KECCAK256 SWAP1 JUMPDEST DUP2 SLOAD DUP2 MSTORE SWAP1 PUSH1 0x1 ADD SWAP1 PUSH1 0x20 ADD DUP1 DUP4 GT PUSH2 0xFA5 JUMPI DUP3 SWAP1 SUB PUSH1 0x1F AND DUP3 ADD SWAP2 JUMPDEST POP POP POP POP POP DUP2 MSTORE PUSH1 0x20 ADD PUSH1 0x4 DUP3 ADD DUP1 SLOAD PUSH2 0xFDB SWAP1 PUSH2 0x2F23 JUMP JUMPDEST DUP1 PUSH1 0x1F ADD PUSH1 0x20 DUP1 SWAP2 DIV MUL PUSH1 0x20 ADD PUSH1 0x40 MLOAD SWAP1 DUP2 ADD PUSH1 0x40 MSTORE DUP1 SWAP3 SWAP2 SWAP1 DUP2 DUP2 MSTORE PUSH1 0x20 ADD DUP3 DUP1 SLOAD PUSH2 0x1007 SWAP1 PUSH2 0x2F23 JUMP JUMPDEST DUP1 ISZERO PUSH2 0x1054 JUMPI DUP1 PUSH1 0x1F LT PUSH2 0x1029 JUMPI PUSH2 0x100 DUP1 DUP4 SLOAD DIV MUL DUP4 MSTORE SWAP2 PUSH1 0x20 ADD SWAP2 PUSH2 0x1054 JUMP JUMPDEST DUP3 ADD SWAP2 SWAP1 PUSH1 0x0 MSTORE PUSH1 0x20 PUSH1 0x0 KECCAK256 SWAP1 JUMPDEST DUP2 SLOAD DUP2 MSTORE SWAP1 PUSH1 0x1 ADD SWAP1 PUSH1 0x20 ADD DUP1 DUP4 GT PUSH2 0x1037 JUMPI DUP3 SWAP1 SUB PUSH1 0x1F AND DUP3 ADD SWAP2 JUMPDEST POP POP POP SWAP2 DUP4 MSTORE POP POP PUSH1 0x5 DUP3 ADD SLOAD PUSH1 0x20 DUP3 ADD MSTORE PUSH1 0x6 DUP3 ADD SLOAD PUSH1 0x40 DUP3 ADD MSTORE PUSH1 0x7 DUP3 ADD SLOAD PUSH1 0x60 DUP3 ADD MSTORE PUSH1 0x8 DUP3 ADD SLOAD PUSH1 0x80 DUP3 ADD MSTORE PUSH1 0x9 DUP3 ADD SLOAD PUSH1 0xA0 DUP3 ADD MSTORE PUSH1 0xA DUP3 ADD SLOAD PUSH1 0xC0 SWAP1 SWAP2 ADD SWAP1 PUSH1 0xFF AND PUSH1 0x4 DUP2 GT ISZERO PUSH2 0x10AD JUMPI PUSH2 0x10AD PUSH2 0x2BE0 JUMP JUMPDEST PUSH1 0x4 DUP2 GT ISZERO PUSH2 0x10BE JUMPI PUSH2 0x10BE PUSH2 0x2BE0 JUMP JUMPDEST DUP2 MSTORE PUSH1 0x20 ADD PUSH1 0xB DUP3 ADD DUP1 SLOAD PUSH2 0x10D2 SWAP1 PUSH2 0x2F23 JUMP JUMPDEST DUP1 PUSH1 0x1F ADD PUSH1 0x20 DUP1 SWAP2 DIV MUL PUSH1 0x20 ADD PUSH1 0x40 MLOAD SWAP1 DUP2 ADD PUSH1 0x40 MSTORE DUP1 SWAP3 SWAP2 SWAP1 DUP2 DUP2 MSTORE PUSH1 0x20 ADD DUP3 DUP1 SLOAD PUSH2 0x10FE SWAP1 PUSH2 0x2F23 JUMP JUMPDEST DUP1 ISZERO PUSH2 0x114B JUMPI DUP1 PUSH1 0x1F LT PUSH2 0x1120 JUMPI PUSH2 0x100 DUP1 DUP4 SLOAD DIV MUL DUP4 MSTORE SWAP2 PUSH1 0x20 ADD SWAP2 PUSH2 0x114B JUMP JUMPDEST DUP3 ADD SWAP2 SWAP1 PUSH1 0x0 MSTORE PUSH1 0x20 PUSH1 0x0 KECCAK256 SWAP1 JUMPDEST DUP2 SLOAD DUP2 MSTORE SWAP1 PUSH1 0x1 ADD SWAP1 PUSH1 0x20 ADD DUP1 DUP4 GT PUSH2 0x112E JUMPI DUP3 SWAP1 SUB PUSH1 0x1F AND DUP3 ADD SWAP2 JUMPDEST POP POP POP POP POP DUP2 MSTORE POP POP SWAP1 POP SWAP2 SWAP1 POP JUMP JUMPDEST PUSH1 0x1 PUSH1 0x1 PUSH1 0xA0 SHL SUB DUP2 AND PUSH1 0x0 SWAP1 DUP2 MSTORE PUSH1 0x7 PUSH1 0x20 SWAP1 DUP2 MSTORE PUSH1 0x40 DUP1 DUP4 KECCAK256 DUP1 SLOAD DUP3 MLOAD DUP2 DUP6 MUL DUP2 ADD DUP6 ADD SWAP1 SWAP4 MSTORE DUP1 DUP4 MSTORE PUSH1 0x60 SWAP5 SWAP3 SWAP4 SWAP2 SWAP3 SWAP1 SWAP2 DUP5 ADD JUMPDEST DUP3 DUP3 LT ISZERO PUSH2 0x6FD JUMPI DUP4 DUP3 SWAP1 PUSH1 0x0 MSTORE PUSH1 0x20 PUSH1 0x0 KECCAK256 ADD DUP1 SLOAD PUSH2 0x11B2 SWAP1 PUSH2 0x2F23 JUMP JUMPDEST DUP1 PUSH1 0x1F ADD PUSH1 0x20 DUP1 SWAP2 DIV MUL PUSH1 0x20 ADD PUSH1 0x40 MLOAD SWAP1 DUP2 ADD PUSH1 0x40 MSTORE DUP1 SWAP3 SWAP2 SWAP1 DUP2 DUP2 MSTORE PUSH1 0x20 ADD DUP3 DUP1 SLOAD PUSH2 0x11DE SWAP1 PUSH2 0x2F23 JUMP JUMPDEST DUP1 ISZERO PUSH2 0x122B JUMPI DUP1 PUSH1 0x1F LT PUSH2 0x1200 JUMPI PUSH2 0x100 DUP1 DUP4 SLOAD DIV MUL DUP4 MSTORE SWAP2 PUSH1 0x20 ADD SWAP2 PUSH2 0x122B JUMP JUMPDEST DUP3 ADD SWAP2 SWAP1 PUSH1 0x0 MSTORE PUSH1 0x20 PUSH1 0x0 KECCAK256 SWAP1 JUMPDEST DUP2 SLOAD DUP2 MSTORE SWAP1 PUSH1 0x1 ADD SWAP1 PUSH1 0x20 ADD DUP1 DUP4 GT PUSH2 0x120E JUMPI DUP3 SWAP1 SUB PUSH1 0x1F AND DUP3 ADD SWAP2 JUMPDEST POP POP POP POP POP DUP2 MSTORE PUSH1 0x20 ADD SWAP1 PUSH1 0x1 ADD SWAP1 PUSH2 0x1193 JUMP JUMPDEST DUP2 MLOAD PUSH1 0x20 DUP2 DUP5 ADD DUP2 ADD DUP1 MLOAD PUSH1 0x5 DUP3 MSTORE SWAP3 DUP3 ADD SWAP2 DUP6 ADD SWAP2 SWAP1 SWAP2 KECCAK256 SWAP2 SWAP1 MSTORE DUP1 SLOAD DUP3 SWAP1 DUP2 LT PUSH2 0x126A JUMPI PUSH1 0x0 DUP1 REVERT JUMPDEST PUSH1 0x0 SWAP2 DUP3 MSTORE PUSH1 0x20 SWAP1 SWAP2 KECCAK256 PUSH1 0x5 SWAP1 SWAP2 MUL ADD DUP1 SLOAD PUSH1 0x1 DUP3 ADD SLOAD PUSH1 0x2 DUP4 ADD SLOAD PUSH1 0x3 DUP5 ADD SLOAD PUSH1 0x4 DUP6 ADD DUP1 SLOAD PUSH1 0x1 PUSH1 0x1 PUSH1 0xA0 SHL SUB SWAP1 SWAP6 AND SWAP8 POP SWAP3 SWAP6 POP SWAP1 SWAP4 SWAP1 SWAP3 SWAP1 SWAP2 SWAP1 PUSH2 0x12B1 SWAP1 PUSH2 0x2F23 JUMP JUMPDEST DUP1 PUSH1 0x1F ADD PUSH1 0x20 DUP1 SWAP2 DIV MUL PUSH1 0x20 ADD PUSH1 0x40 MLOAD SWAP1 DUP2 ADD PUSH1 0x40 MSTORE DUP1 SWAP3 SWAP2 SWAP1 DUP2 DUP2 MSTORE PUSH1 0x20 ADD DUP3 DUP1 SLOAD PUSH2 0x12DD SWAP1 PUSH2 0x2F23 JUMP JUMPDEST DUP1 ISZERO PUSH2 0x132A JUMPI DUP1 PUSH1 0x1F LT PUSH2 0x12FF JUMPI PUSH2 0x100 DUP1 DUP4 SLOAD DIV MUL DUP4 MSTORE SWAP2 PUSH1 0x20 ADD SWAP2 PUSH2 0x132A JUMP JUMPDEST DUP3 ADD SWAP2 SWAP1 PUSH1 0x0 MSTORE PUSH1 0x20 PUSH1 0x0 KECCAK256 SWAP1 JUMPDEST DUP2 SLOAD DUP2 MSTORE SWAP1 PUSH1 0x1 ADD SWAP1 PUSH1 0x20 ADD DUP1 DUP4 GT PUSH2 0x130D JUMPI DUP3 SWAP1 SUB PUSH1 0x1F AND DUP3 ADD SWAP2 JUMPDEST POP POP POP POP POP SWAP1 POP DUP6 JUMP JUMPDEST PUSH1 0x0 PUSH2 0x133F DUP2 PUSH2 0x2329 JUMP JUMPDEST PUSH2 0x7C4 PUSH2 0x250F JUMP JUMPDEST PUSH1 0x0 DUP1 MLOAD PUSH1 0x20 PUSH2 0x3397 DUP4 CODECOPY DUP2 MLOAD SWAP2 MSTORE PUSH2 0x135F DUP2 PUSH2 0x2329 JUMP JUMPDEST PUSH1 0x1 PUSH1 0x1 PUSH1 0xA0 SHL SUB DUP4 AND PUSH2 0x13A7 JUMPI PUSH1 0x40 MLOAD PUSH3 0x461BCD PUSH1 0xE5 SHL DUP2 MSTORE PUSH1 0x20 PUSH1 0x4 DUP3 ADD MSTORE PUSH1 0xF PUSH1 0x24 DUP3 ADD MSTORE PUSH15 0x496E76616C69642061646472657373 PUSH1 0x88 SHL PUSH1 0x44 DUP3 ADD MSTORE PUSH1 0x64 ADD PUSH2 0x79E JUMP JUMPDEST PUSH1 0xA SLOAD DUP3 GT ISZERO PUSH2 0x13F9 JUMPI PUSH1 0x40 MLOAD PUSH3 0x461BCD PUSH1 0xE5 SHL DUP2 MSTORE PUSH1 0x20 PUSH1 0x4 DUP3 ADD DUP2 SWAP1 MSTORE PUSH1 0x24 DUP3 ADD MSTORE PUSH32 0x416D6F756E74206578636565647320617661696C61626C6520726576656E7565 PUSH1 0x44 DUP3 ADD MSTORE PUSH1 0x64 ADD PUSH2 0x79E JUMP JUMPDEST PUSH1 0x3 SLOAD PUSH1 0x40 MLOAD PUSH4 0xA9059CBB PUSH1 0xE0 SHL DUP2 MSTORE PUSH1 0x1 PUSH1 0x1 PUSH1 0xA0 SHL SUB DUP6 DUP2 AND PUSH1 0x4 DUP4 ADD MSTORE PUSH1 0x24 DUP3 ADD DUP6 SWAP1 MSTORE SWAP1 SWAP2 AND SWAP1 PUSH4 0xA9059CBB SWAP1 PUSH1 0x44 ADD PUSH1 0x20 PUSH1 0x40 MLOAD DUP1 DUP4 SUB DUP2 PUSH1 0x0 DUP8 GAS CALL ISZERO DUP1 ISZERO PUSH2 0x144C JUMPI RETURNDATASIZE PUSH1 0x0 DUP1 RETURNDATACOPY RETURNDATASIZE PUSH1 0x0 REVERT JUMPDEST POP POP POP POP PUSH1 0x40 MLOAD RETURNDATASIZE PUSH1 0x1F NOT PUSH1 0x1F DUP3 ADD AND DUP3 ADD DUP1 PUSH1 0x40 MSTORE POP DUP2 ADD SWAP1 PUSH2 0x1470 SWAP2 SWAP1 PUSH2 0x3171 JUMP JUMPDEST PUSH2 0x148C JUMPI PUSH1 0x40 MLOAD PUSH3 0x461BCD PUSH1 0xE5 SHL DUP2 MSTORE PUSH1 0x4 ADD PUSH2 0x79E SWAP1 PUSH2 0x3193 JUMP JUMPDEST DUP2 PUSH1 0xA PUSH1 0x0 DUP3 DUP3 SLOAD PUSH2 0x149E SWAP2 SWAP1 PUSH2 0x2FC5 JUMP JUMPDEST SWAP1 SWAP2 SSTORE POP POP POP POP POP JUMP JUMPDEST PUSH2 0x14B0 PUSH2 0x246E JUMP JUMPDEST PUSH2 0x14B8 PUSH2 0x24B6 JUMP JUMPDEST PUSH1 0x0 PUSH1 0x4 DUP5 PUSH1 0x40 MLOAD PUSH2 0x14CA SWAP2 SWAP1 PUSH2 0x2F07 JUMP JUMPDEST SWAP1 DUP2 MSTORE PUSH1 0x20 ADD PUSH1 0x40 MLOAD DUP1 SWAP2 SUB SWAP1 KECCAK256 SWAP1 POP DUP1 PUSH1 0x9 ADD SLOAD PUSH1 0x0 SUB PUSH2 0x14FE JUMPI PUSH1 0x40 MLOAD PUSH3 0x461BCD PUSH1 0xE5 SHL DUP2 MSTORE PUSH1 0x4 ADD PUSH2 0x79E SWAP1 PUSH2 0x31C1 JUMP JUMPDEST PUSH1 0x1 PUSH1 0xA DUP3 ADD SLOAD PUSH1 0xFF AND PUSH1 0x4 DUP2 GT ISZERO PUSH2 0x1519 JUMPI PUSH2 0x1519 PUSH2 0x2BE0 JUMP JUMPDEST EQ PUSH2 0x1536 JUMPI PUSH1 0x40 MLOAD PUSH3 0x461BCD PUSH1 0xE5 SHL DUP2 MSTORE PUSH1 0x4 ADD PUSH2 0x79E SWAP1 PUSH2 0x31EB JUMP JUMPDEST PUSH1 0x0 DUP4 GT PUSH2 0x1592 JUMPI PUSH1 0x40 MLOAD PUSH3 0x461BCD PUSH1 0xE5 SHL DUP2 MSTORE PUSH1 0x20 PUSH1 0x4 DUP3 ADD MSTORE PUSH1 0x23 PUSH1 0x24 DUP3 ADD MSTORE PUSH32 0x546F6B656E20616D6F756E74206D757374206265206772656174657220746861 PUSH1 0x44 DUP3 ADD MSTORE PUSH3 0x6E203 PUSH1 0xEC SHL PUSH1 0x64 DUP3 ADD MSTORE PUSH1 0x84 ADD PUSH2 0x79E JUMP JUMPDEST PUSH1 0x2 SLOAD PUSH1 0x40 MLOAD PUSH4 0x70A08231 PUSH1 0xE0 SHL DUP2 MSTORE ADDRESS PUSH1 0x4 DUP3 ADD MSTORE PUSH1 0x0 SWAP2 PUSH2 0x100 SWAP1 DIV PUSH1 0x1 PUSH1 0x1 PUSH1 0xA0 SHL SUB AND SWAP1 PUSH4 0x70A08231 SWAP1 PUSH1 0x24 ADD PUSH1 0x20 PUSH1 0x40 MLOAD DUP1 DUP4 SUB DUP2 DUP7 GAS STATICCALL ISZERO DUP1 ISZERO PUSH2 0x15E0 JUMPI RETURNDATASIZE PUSH1 0x0 DUP1 RETURNDATACOPY RETURNDATASIZE PUSH1 0x0 REVERT JUMPDEST POP POP POP POP PUSH1 0x40 MLOAD RETURNDATASIZE PUSH1 0x1F NOT PUSH1 0x1F DUP3 ADD AND DUP3 ADD DUP1 PUSH1 0x40 MSTORE POP DUP2 ADD SWAP1 PUSH2 0x1604 SWAP2 SWAP1 PUSH2 0x2F5D JUMP JUMPDEST SWAP1 POP DUP4 DUP2 LT ISZERO PUSH2 0x1656 JUMPI PUSH1 0x40 MLOAD PUSH3 0x461BCD PUSH1 0xE5 SHL DUP2 MSTORE PUSH1 0x20 PUSH1 0x4 DUP3 ADD MSTORE PUSH1 0x1D PUSH1 0x24 DUP3 ADD MSTORE PUSH32 0x496E73756666696369656E7420746F6B656E7320617661696C61626C65000000 PUSH1 0x44 DUP3 ADD MSTORE PUSH1 0x64 ADD PUSH2 0x79E JUMP JUMPDEST PUSH1 0x0 PUSH2 0x1665 DUP6 PUSH3 0xF4240 PUSH2 0x2F8C JUMP JUMPDEST PUSH1 0x3 SLOAD PUSH1 0x40 MLOAD PUSH4 0x23B872DD PUSH1 0xE0 SHL DUP2 MSTORE CALLER PUSH1 0x4 DUP3 ADD MSTORE ADDRESS PUSH1 0x24 DUP3 ADD MSTORE PUSH1 0x44 DUP2 ADD DUP4 SWAP1 MSTORE SWAP2 SWAP3 POP PUSH1 0x1 PUSH1 0x1 PUSH1 0xA0 SHL SUB AND SWAP1 PUSH4 0x23B872DD SWAP1 PUSH1 0x64 ADD PUSH1 0x20 PUSH1 0x40 MLOAD DUP1 DUP4 SUB DUP2 PUSH1 0x0 DUP8 GAS CALL ISZERO DUP1 ISZERO PUSH2 0x16BD JUMPI RETURNDATASIZE PUSH1 0x0 DUP1 RETURNDATACOPY RETURNDATASIZE PUSH1 0x0 REVERT JUMPDEST POP POP POP POP PUSH1 0x40 MLOAD RETURNDATASIZE PUSH1 0x1F NOT PUSH1 0x1F DUP3 ADD AND DUP3 ADD DUP1 PUSH1 0x40 MSTORE POP DUP2 ADD SWAP1 PUSH2 0x16E1 SWAP2 SWAP1 PUSH2 0x3171 JUMP JUMPDEST PUSH2 0x16FD JUMPI PUSH1 0x40 MLOAD PUSH3 0x461BCD PUSH1 0xE5 SHL DUP2 MSTORE PUSH1 0x4 ADD PUSH2 0x79E SWAP1 PUSH2 0x3193 JUMP JUMPDEST PUSH1 0x2 SLOAD PUSH1 0x40 MLOAD PUSH4 0xA9059CBB PUSH1 0xE0 SHL DUP2 MSTORE CALLER PUSH1 0x4 DUP3 ADD MSTORE PUSH1 0x24 DUP2 ADD DUP8 SWAP1 MSTORE PUSH2 0x100 SWAP1 SWAP2 DIV PUSH1 0x1 PUSH1 0x1 PUSH1 0xA0 SHL SUB AND SWAP1 PUSH4 0xA9059CBB SWAP1 PUSH1 0x44 ADD PUSH1 0x20 PUSH1 0x40 MLOAD DUP1 DUP4 SUB DUP2 PUSH1 0x0 DUP8 GAS CALL ISZERO DUP1 ISZERO PUSH2 0x1752 JUMPI RETURNDATASIZE PUSH1 0x0 DUP1 RETURNDATACOPY RETURNDATASIZE PUSH1 0x0 REVERT JUMPDEST POP POP POP POP PUSH1 0x40 MLOAD RETURNDATASIZE PUSH1 0x1F NOT PUSH1 0x1F DUP3 ADD AND DUP3 ADD DUP1 PUSH1 0x40 MSTORE POP DUP2 ADD SWAP1 PUSH2 0x1776 SWAP2 SWAP1 PUSH2 0x3171 JUMP JUMPDEST PUSH2 0x17BA JUMPI PUSH1 0x40 MLOAD PUSH3 0x461BCD PUSH1 0xE5 SHL DUP2 MSTORE PUSH1 0x20 PUSH1 0x4 DUP3 ADD MSTORE PUSH1 0x15 PUSH1 0x24 DUP3 ADD MSTORE PUSH21 0x151BDAD95B881D1C985B9CD9995C8819985A5B1959 PUSH1 0x5A SHL PUSH1 0x44 DUP3 ADD MSTORE PUSH1 0x64 ADD PUSH2 0x79E JUMP JUMPDEST PUSH1 0x40 DUP1 MLOAD PUSH1 0xA0 DUP2 ADD DUP3 MSTORE CALLER DUP2 MSTORE PUSH1 0x20 DUP2 ADD DUP8 SWAP1 MSTORE DUP1 DUP3 ADD DUP4 SWAP1 MSTORE TIMESTAMP PUSH1 0x60 DUP3 ADD MSTORE PUSH1 0x80 DUP2 ADD DUP7 SWAP1 MSTORE SWAP1 MLOAD PUSH1 0x5 SWAP1 PUSH2 0x17F1 SWAP1 DUP10 SWAP1 PUSH2 0x2F07 JUMP JUMPDEST SWAP1 DUP2 MSTORE PUSH1 0x40 DUP1 MLOAD PUSH1 0x20 SWAP3 DUP2 SWAP1 SUB DUP4 ADD SWAP1 KECCAK256 DUP1 SLOAD PUSH1 0x1 DUP1 DUP3 ADD DUP4 SSTORE PUSH1 0x0 SWAP3 DUP4 MSTORE SWAP2 DUP5 SWAP1 KECCAK256 DUP6 MLOAD PUSH1 0x5 SWAP1 SWAP3 MUL ADD DUP1 SLOAD PUSH1 0x1 PUSH1 0x1 PUSH1 0xA0 SHL SUB NOT AND PUSH1 0x1 PUSH1 0x1 PUSH1 0xA0 SHL SUB SWAP1 SWAP3 AND SWAP2 SWAP1 SWAP2 OR DUP2 SSTORE SWAP3 DUP5 ADD MLOAD SWAP1 DUP4 ADD SSTORE DUP3 ADD MLOAD PUSH1 0x2 DUP3 ADD SSTORE PUSH1 0x60 DUP3 ADD MLOAD PUSH1 0x3 DUP3 ADD SSTORE PUSH1 0x80 DUP3 ADD MLOAD DUP3 SWAP2 SWAP1 PUSH1 0x4 DUP3 ADD SWAP1 PUSH2 0x186A SWAP1 DUP3 PUSH2 0x3026 JUMP JUMPDEST POP POP CALLER PUSH1 0x0 SWAP1 DUP2 MSTORE PUSH1 0x7 PUSH1 0x20 SWAP1 DUP2 MSTORE PUSH1 0x40 DUP3 KECCAK256 DUP1 SLOAD PUSH1 0x1 DUP2 ADD DUP3 SSTORE SWAP1 DUP4 MSTORE SWAP2 KECCAK256 ADD SWAP1 POP PUSH2 0x1897 DUP9 DUP3 PUSH2 0x3026 JUMP JUMPDEST POP DUP2 PUSH1 0x9 PUSH1 0x0 DUP3 DUP3 SLOAD PUSH2 0x18AA SWAP2 SWAP1 PUSH2 0x3216 JUMP JUMPDEST SWAP1 SWAP2 SSTORE POP POP PUSH1 0xB SLOAD PUSH1 0x64 SWAP1 PUSH2 0x18BF SWAP1 DUP5 PUSH2 0x2F8C JUMP JUMPDEST PUSH2 0x18C9 SWAP2 SWAP1 PUSH2 0x2FA3 JUMP JUMPDEST PUSH1 0xA PUSH1 0x0 DUP3 DUP3 SLOAD PUSH2 0x18DA SWAP2 SWAP1 PUSH2 0x3216 JUMP JUMPDEST SWAP1 SWAP2 SSTORE POP POP PUSH1 0x40 MLOAD CALLER SWAP1 PUSH2 0x18EF SWAP1 DUP10 SWAP1 PUSH2 0x2F07 JUMP JUMPDEST PUSH1 0x40 MLOAD DUP1 SWAP2 SUB SWAP1 KECCAK256 PUSH32 0xE45CAB90D162AD25C4BEDA323237A6796054F3C4A4132E157C2F0FB03C127882 DUP9 DUP6 DUP10 PUSH1 0x40 MLOAD PUSH2 0x192A SWAP4 SWAP3 SWAP2 SWAP1 PUSH2 0x3229 JUMP JUMPDEST PUSH1 0x40 MLOAD DUP1 SWAP2 SUB SWAP1 LOG3 POP POP POP POP PUSH2 0x72D PUSH1 0x1 DUP1 SSTORE JUMP JUMPDEST PUSH1 0x0 SWAP2 DUP3 MSTORE PUSH1 0x20 DUP3 DUP2 MSTORE PUSH1 0x40 DUP1 DUP5 KECCAK256 PUSH1 0x1 PUSH1 0x1 PUSH1 0xA0 SHL SUB SWAP4 SWAP1 SWAP4 AND DUP5 MSTORE SWAP2 SWAP1 MSTORE SWAP1 KECCAK256 SLOAD PUSH1 0xFF AND SWAP1 JUMP JUMPDEST PUSH1 0x0 PUSH2 0x1973 DUP2 PUSH2 0x2329 JUMP JUMPDEST PUSH2 0x5C0 PUSH1 0x0 DUP1 MLOAD PUSH1 0x20 PUSH2 0x3397 DUP4 CODECOPY DUP2 MLOAD SWAP2 MSTORE DUP4 PUSH2 0x1D78 JUMP JUMPDEST PUSH1 0x0 DUP1 MLOAD PUSH1 0x20 PUSH2 0x3397 DUP4 CODECOPY DUP2 MLOAD SWAP2 MSTORE PUSH2 0x19A3 DUP2 PUSH2 0x2329 JUMP JUMPDEST PUSH2 0x19AB PUSH2 0x24B6 JUMP JUMPDEST PUSH1 0x0 PUSH1 0x4 DUP4 PUSH1 0x40 MLOAD PUSH2 0x19BD SWAP2 SWAP1 PUSH2 0x2F07 JUMP JUMPDEST SWAP1 DUP2 MSTORE PUSH1 0x20 ADD PUSH1 0x40 MLOAD DUP1 SWAP2 SUB SWAP1 KECCAK256 SWAP1 POP DUP1 PUSH1 0x9 ADD SLOAD PUSH1 0x0 SUB PUSH2 0x19F1 JUMPI PUSH1 0x40 MLOAD PUSH3 0x461BCD PUSH1 0xE5 SHL DUP2 MSTORE PUSH1 0x4 ADD PUSH2 0x79E SWAP1 PUSH2 0x31C1 JUMP JUMPDEST PUSH1 0x1 PUSH1 0xA DUP3 ADD SLOAD PUSH1 0xFF AND PUSH1 0x4 DUP2 GT ISZERO PUSH2 0x1A0C JUMPI PUSH2 0x1A0C PUSH2 0x2BE0 JUMP JUMPDEST EQ PUSH2 0x1A29 JUMPI PUSH1 0x40 MLOAD PUSH3 0x461BCD PUSH1 0xE5 SHL DUP2 MSTORE PUSH1 0x4 ADD PUSH2 0x79E SWAP1 PUSH2 0x31EB JUMP JUMPDEST PUSH1 0x8 DUP2 ADD SLOAD PUSH1 0x3 SLOAD PUSH1 0x40 MLOAD PUSH4 0x70A08231 PUSH1 0xE0 SHL DUP2 MSTORE ADDRESS PUSH1 0x4 DUP3 ADD MSTORE DUP3 SWAP2 PUSH1 0x1 PUSH1 0x1 PUSH1 0xA0 SHL SUB AND SWAP1 PUSH4 0x70A08231 SWAP1 PUSH1 0x24 ADD PUSH1 0x20 PUSH1 0x40 MLOAD DUP1 DUP4 SUB DUP2 DUP7 GAS STATICCALL ISZERO DUP1 ISZERO PUSH2 0x1A76 JUMPI RETURNDATASIZE PUSH1 0x0 DUP1 RETURNDATACOPY RETURNDATASIZE PUSH1 0x0 REVERT JUMPDEST POP POP POP POP PUSH1 0x40 MLOAD RETURNDATASIZE PUSH1 0x1F NOT PUSH1 0x1F DUP3 ADD AND DUP3 ADD DUP1 PUSH1 0x40 MSTORE POP DUP2 ADD SWAP1 PUSH2 0x1A9A SWAP2 SWAP1 PUSH2 0x2F5D JUMP JUMPDEST LT ISZERO PUSH2 0x1AE8 JUMPI PUSH1 0x40 MLOAD PUSH3 0x461BCD PUSH1 0xE5 SHL DUP2 MSTORE PUSH1 0x20 PUSH1 0x4 DUP3 ADD MSTORE PUSH1 0x19 PUSH1 0x24 DUP3 ADD MSTORE PUSH32 0x496E73756666696369656E7420555344542062616C616E636500000000000000 PUSH1 0x44 DUP3 ADD MSTORE PUSH1 0x64 ADD PUSH2 0x79E JUMP JUMPDEST PUSH1 0x3 SLOAD PUSH1 0x1 DUP4 ADD SLOAD PUSH1 0x40 MLOAD PUSH4 0xA9059CBB PUSH1 0xE0 SHL DUP2 MSTORE PUSH1 0x1 PUSH1 0x1 PUSH1 0xA0 SHL SUB SWAP2 DUP3 AND PUSH1 0x4 DUP3 ADD MSTORE PUSH1 0x24 DUP2 ADD DUP5 SWAP1 MSTORE SWAP2 AND SWAP1 PUSH4 0xA9059CBB SWAP1 PUSH1 0x44 ADD PUSH1 0x20 PUSH1 0x40 MLOAD DUP1 DUP4 SUB DUP2 PUSH1 0x0 DUP8 GAS CALL ISZERO DUP1 ISZERO PUSH2 0x1B3F JUMPI RETURNDATASIZE PUSH1 0x0 DUP1 RETURNDATACOPY RETURNDATASIZE PUSH1 0x0 REVERT JUMPDEST POP POP POP POP PUSH1 0x40 MLOAD RETURNDATASIZE PUSH1 0x1F NOT PUSH1 0x1F DUP3 ADD AND DUP3 ADD DUP1 PUSH1 0x40 MSTORE POP DUP2 ADD SWAP1 PUSH2 0x1B63 SWAP2 SWAP1 PUSH2 0x3171 JUMP JUMPDEST PUSH2 0x1B7F JUMPI PUSH1 0x40 MLOAD PUSH3 0x461BCD PUSH1 0xE5 SHL DUP2 MSTORE PUSH1 0x4 ADD PUSH2 0x79E SWAP1 PUSH2 0x3193 JUMP JUMPDEST DUP1 PUSH1 0x8 PUSH1 0x0 DUP3 DUP3 SLOAD PUSH2 0x1B91 SWAP2 SWAP1 PUSH2 0x3216 JUMP JUMPDEST SWAP1 SWAP2 SSTORE POP POP PUSH1 0x1 DUP3 ADD SLOAD PUSH1 0x40 MLOAD PUSH1 0x1 PUSH1 0x1 PUSH1 0xA0 SHL SUB SWAP1 SWAP2 AND SWAP1 PUSH2 0x1BB5 SWAP1 DUP7 SWAP1 PUSH2 0x2F07 JUMP JUMPDEST PUSH1 0x40 MLOAD SWAP1 DUP2 SWAP1 SUB DUP2 KECCAK256 DUP4 DUP3 MSTORE SWAP1 PUSH32 0x7D665C40B604B6866CF93AD4A21F2F2AC6A05FF7AA18DAA8E0CBBA9B81F28230 SWAP1 PUSH1 0x20 ADD PUSH1 0x40 MLOAD DUP1 SWAP2 SUB SWAP1 LOG3 POP POP PUSH2 0x5C0 PUSH1 0x1 DUP1 SSTORE JUMP JUMPDEST PUSH1 0x0 PUSH2 0x1C05 DUP2 PUSH2 0x2329 JUMP JUMPDEST PUSH2 0x5C0 PUSH1 0x0 DUP1 MLOAD PUSH1 0x20 PUSH2 0x33B7 DUP4 CODECOPY DUP2 MLOAD SWAP2 MSTORE DUP4 PUSH2 0x1D78 JUMP JUMPDEST PUSH1 0x7 PUSH1 0x20 MSTORE DUP2 PUSH1 0x0 MSTORE PUSH1 0x40 PUSH1 0x0 KECCAK256 DUP2 DUP2 SLOAD DUP2 LT PUSH2 0x1C39 JUMPI PUSH1 0x0 DUP1 REVERT JUMPDEST SWAP1 PUSH1 0x0 MSTORE PUSH1 0x20 PUSH1 0x0 KECCAK256 ADD PUSH1 0x0 SWAP2 POP SWAP2 POP POP DUP1 SLOAD PUSH2 0x1C55 SWAP1 PUSH2 0x2F23 JUMP JUMPDEST DUP1 PUSH1 0x1F ADD PUSH1 0x20 DUP1 SWAP2 DIV MUL PUSH1 0x20 ADD PUSH1 0x40 MLOAD SWAP1 DUP2 ADD PUSH1 0x40 MSTORE DUP1 SWAP3 SWAP2 SWAP1 DUP2 DUP2 MSTORE PUSH1 0x20 ADD DUP3 DUP1 SLOAD PUSH2 0x1C81 SWAP1 PUSH2 0x2F23 JUMP JUMPDEST DUP1 ISZERO PUSH2 0x1CCE JUMPI DUP1 PUSH1 0x1F LT PUSH2 0x1CA3 JUMPI PUSH2 0x100 DUP1 DUP4 SLOAD DIV MUL DUP4 MSTORE SWAP2 PUSH1 0x20 ADD SWAP2 PUSH2 0x1CCE JUMP JUMPDEST DUP3 ADD SWAP2 SWAP1 PUSH1 0x0 MSTORE PUSH1 0x20 PUSH1 0x0 KECCAK256 SWAP1 JUMPDEST DUP2 SLOAD DUP2 MSTORE SWAP1 PUSH1 0x1 ADD SWAP1 PUSH1 0x20 ADD DUP1 DUP4 GT PUSH2 0x1CB1 JUMPI DUP3 SWAP1 SUB PUSH1 0x1F AND DUP3 ADD SWAP2 JUMPDEST POP POP POP POP POP DUP2 JUMP JUMPDEST PUSH1 0x0 PUSH2 0x1CE1 DUP2 PUSH2 0x2329 JUMP JUMPDEST PUSH1 0x32 DUP3 GT ISZERO PUSH2 0x1D32 JUMPI PUSH1 0x40 MLOAD PUSH3 0x461BCD PUSH1 0xE5 SHL DUP2 MSTORE PUSH1 0x20 PUSH1 0x4 DUP3 ADD MSTORE PUSH1 0x18 PUSH1 0x24 DUP3 ADD MSTORE PUSH32 0x5370726561642063616E6E6F7420657863656564203530250000000000000000 PUSH1 0x44 DUP3 ADD MSTORE PUSH1 0x64 ADD PUSH2 0x79E JUMP JUMPDEST PUSH1 0xB DUP1 SLOAD SWAP1 DUP4 SWAP1 SSTORE PUSH1 0x40 DUP1 MLOAD DUP3 DUP2 MSTORE PUSH1 0x20 DUP2 ADD DUP6 SWAP1 MSTORE PUSH32 0xF1DD40AF50044C9E71928F1E31AC462E53F9AF4CB0279CA9F29E9ADFF0218B96 SWAP2 ADD PUSH1 0x40 MLOAD DUP1 SWAP2 SUB SWAP1 LOG1 POP POP POP JUMP JUMPDEST PUSH1 0x0 DUP3 DUP2 MSTORE PUSH1 0x20 DUP2 SWAP1 MSTORE PUSH1 0x40 SWAP1 KECCAK256 PUSH1 0x1 ADD SLOAD PUSH2 0x1D93 DUP2 PUSH2 0x2329 JUMP JUMPDEST PUSH2 0x72D DUP4 DUP4 PUSH2 0x23B7 JUMP JUMPDEST PUSH1 0x0 DUP1 MLOAD PUSH1 0x20 PUSH2 0x3397 DUP4 CODECOPY DUP2 MLOAD SWAP2 MSTORE PUSH2 0x1DB5 DUP2 PUSH2 0x2329 JUMP JUMPDEST PUSH2 0x1DBD PUSH2 0x24B6 JUMP JUMPDEST PUSH1 0x0 PUSH1 0x4 DUP5 PUSH1 0x40 MLOAD PUSH2 0x1DCF SWAP2 SWAP1 PUSH2 0x2F07 JUMP JUMPDEST SWAP1 DUP2 MSTORE PUSH1 0x20 ADD PUSH1 0x40 MLOAD DUP1 SWAP2 SUB SWAP1 KECCAK256 SWAP1 POP DUP1 PUSH1 0x9 ADD SLOAD PUSH1 0x0 SUB PUSH2 0x1E03 JUMPI PUSH1 0x40 MLOAD PUSH3 0x461BCD PUSH1 0xE5 SHL DUP2 MSTORE PUSH1 0x4 ADD PUSH2 0x79E SWAP1 PUSH2 0x31C1 JUMP JUMPDEST PUSH1 0x1 PUSH1 0xA DUP3 ADD SLOAD PUSH1 0xFF AND PUSH1 0x4 DUP2 GT ISZERO PUSH2 0x1E1E JUMPI PUSH2 0x1E1E PUSH2 0x2BE0 JUMP JUMPDEST EQ PUSH2 0x1E3B JUMPI PUSH1 0x40 MLOAD PUSH3 0x461BCD PUSH1 0xE5 SHL DUP2 MSTORE PUSH1 0x4 ADD PUSH2 0x79E SWAP1 PUSH2 0x31EB JUMP JUMPDEST PUSH1 0x3 SLOAD PUSH1 0x1 DUP3 ADD SLOAD PUSH1 0x40 MLOAD PUSH4 0x23B872DD PUSH1 0xE0 SHL DUP2 MSTORE PUSH1 0x1 PUSH1 0x1 PUSH1 0xA0 SHL SUB SWAP2 DUP3 AND PUSH1 0x4 DUP3 ADD MSTORE ADDRESS PUSH1 0x24 DUP3 ADD MSTORE PUSH1 0x44 DUP2 ADD DUP7 SWAP1 MSTORE SWAP2 AND SWAP1 PUSH4 0x23B872DD SWAP1 PUSH1 0x64 ADD PUSH1 0x20 PUSH1 0x40 MLOAD DUP1 DUP4 SUB DUP2 PUSH1 0x0 DUP8 GAS CALL ISZERO DUP1 ISZERO PUSH2 0x1E98 JUMPI RETURNDATASIZE PUSH1 0x0 DUP1 RETURNDATACOPY RETURNDATASIZE PUSH1 0x0 REVERT JUMPDEST POP POP POP POP PUSH1 0x40 MLOAD RETURNDATASIZE PUSH1 0x1F NOT PUSH1 0x1F DUP3 ADD AND DUP3 ADD DUP1 PUSH1 0x40 MSTORE POP DUP2 ADD SWAP1 PUSH2 0x1EBC SWAP2 SWAP1 PUSH2 0x3171 JUMP JUMPDEST PUSH2 0x1ED8 JUMPI PUSH1 0x40 MLOAD PUSH3 0x461BCD PUSH1 0xE5 SHL DUP2 MSTORE PUSH1 0x4 ADD PUSH2 0x79E SWAP1 PUSH2 0x3193 JUMP JUMPDEST PUSH1 0xA DUP2 ADD DUP1 SLOAD PUSH1 0x2 SWAP2 SWAP1 PUSH1 0xFF NOT AND PUSH1 0x1 DUP4 MUL OR SWAP1 SSTORE POP PUSH1 0x7 DUP2 ADD SLOAD PUSH1 0x2 DUP1 SLOAD PUSH1 0x40 MLOAD PUSH4 0xB5D6DE27 PUSH1 0xE0 SHL DUP2 MSTORE PUSH2 0x100 SWAP1 SWAP2 DIV PUSH1 0x1 PUSH1 0x1 PUSH1 0xA0 SHL SUB AND SWAP2 PUSH4 0xB5D6DE27 SWAP2 PUSH2 0x1F2D SWAP2 DUP7 ADD SWAP1 ADDRESS SWAP1 DUP7 SWAP1 PUSH1 0x4 ADD PUSH2 0x3251 JUMP JUMPDEST PUSH1 0x0 PUSH1 0x40 MLOAD DUP1 DUP4 SUB DUP2 PUSH1 0x0 DUP8 DUP1 EXTCODESIZE ISZERO DUP1 ISZERO PUSH2 0x1F47 JUMPI PUSH1 0x0 DUP1 REVERT JUMPDEST POP GAS CALL ISZERO DUP1 ISZERO PUSH2 0x1F5B JUMPI RETURNDATASIZE PUSH1 0x0 DUP1 RETURNDATACOPY RETURNDATASIZE PUSH1 0x0 REVERT JUMPDEST POP POP POP PUSH1 0x1 DUP4 ADD SLOAD PUSH1 0x40 MLOAD PUSH1 0x1 PUSH1 0x1 PUSH1 0xA0 SHL SUB SWAP1 SWAP2 AND SWAP2 POP PUSH2 0x1F7E SWAP1 DUP8 SWAP1 PUSH2 0x2F07 JUMP JUMPDEST PUSH1 0x40 MLOAD SWAP1 DUP2 SWAP1 SUB DUP2 KECCAK256 DUP7 DUP3 MSTORE SWAP1 PUSH32 0x2A6C6CAF864B51573F7EBC472EA8A2B327E951563A4CC7748049A55D34959D98 SWAP1 PUSH1 0x20 ADD PUSH1 0x40 MLOAD DUP1 SWAP2 SUB SWAP1 LOG3 POP POP PUSH2 0x72D PUSH1 0x1 DUP1 SSTORE JUMP JUMPDEST DUP1 MLOAD PUSH1 0x20 DUP2 DUP4 ADD DUP2 ADD DUP1 MLOAD PUSH1 0x4 DUP3 MSTORE SWAP3 DUP3 ADD SWAP2 SWAP1 SWAP4 ADD KECCAK256 SWAP2 MSTORE DUP1 SLOAD DUP2 SWAP1 PUSH2 0x1FE9 SWAP1 PUSH2 0x2F23 JUMP JUMPDEST DUP1 PUSH1 0x1F ADD PUSH1 0x20 DUP1 SWAP2 DIV MUL PUSH1 0x20 ADD PUSH1 0x40 MLOAD SWAP1 DUP2 ADD PUSH1 0x40 MSTORE DUP1 SWAP3 SWAP2 SWAP1 DUP2 DUP2 MSTORE PUSH1 0x20 ADD DUP3 DUP1 SLOAD PUSH2 0x2015 SWAP1 PUSH2 0x2F23 JUMP JUMPDEST DUP1 ISZERO PUSH2 0x2062 JUMPI DUP1 PUSH1 0x1F LT PUSH2 0x2037 JUMPI PUSH2 0x100 DUP1 DUP4 SLOAD DIV MUL DUP4 MSTORE SWAP2 PUSH1 0x20 ADD SWAP2 PUSH2 0x2062 JUMP JUMPDEST DUP3 ADD SWAP2 SWAP1 PUSH1 0x0 MSTORE PUSH1 0x20 PUSH1 0x0 KECCAK256 SWAP1 JUMPDEST DUP2 SLOAD DUP2 MSTORE SWAP1 PUSH1 0x1 ADD SWAP1 PUSH1 0x20 ADD DUP1 DUP4 GT PUSH2 0x2045 JUMPI DUP3 SWAP1 SUB PUSH1 0x1F AND DUP3 ADD SWAP2 JUMPDEST POP POP POP PUSH1 0x1 DUP5 ADD SLOAD PUSH1 0x2 DUP6 ADD DUP1 SLOAD SWAP5 SWAP6 PUSH1 0x1 PUSH1 0x1 PUSH1 0xA0 SHL SUB SWAP1 SWAP3 AND SWAP5 SWAP2 SWAP4 POP SWAP2 POP PUSH2 0x208C SWAP1 PUSH2 0x2F23 JUMP JUMPDEST DUP1 PUSH1 0x1F ADD PUSH1 0x20 DUP1 SWAP2 DIV MUL PUSH1 0x20 ADD PUSH1 0x40 MLOAD SWAP1 DUP2 ADD PUSH1 0x40 MSTORE DUP1 SWAP3 SWAP2 SWAP1 DUP2 DUP2 MSTORE PUSH1 0x20 ADD DUP3 DUP1 SLOAD PUSH2 0x20B8 SWAP1 PUSH2 0x2F23 JUMP JUMPDEST DUP1 ISZERO PUSH2 0x2105 JUMPI DUP1 PUSH1 0x1F LT PUSH2 0x20DA JUMPI PUSH2 0x100 DUP1 DUP4 SLOAD DIV MUL DUP4 MSTORE SWAP2 PUSH1 0x20 ADD SWAP2 PUSH2 0x2105 JUMP JUMPDEST DUP3 ADD SWAP2 SWAP1 PUSH1 0x0 MSTORE PUSH1 0x20 PUSH1 0x0 KECCAK256 SWAP1 JUMPDEST DUP2 SLOAD DUP2 MSTORE SWAP1 PUSH1 0x1 ADD SWAP1 PUSH1 0x20 ADD DUP1 DUP4 GT PUSH2 0x20E8 JUMPI DUP3 SWAP1 SUB PUSH1 0x1F AND DUP3 ADD SWAP2 JUMPDEST POP POP POP POP POP SWAP1 DUP1 PUSH1 0x3 ADD DUP1 SLOAD PUSH2 0x211A SWAP1 PUSH2 0x2F23 JUMP JUMPDEST DUP1 PUSH1 0x1F ADD PUSH1 0x20 DUP1 SWAP2 DIV MUL PUSH1 0x20 ADD PUSH1 0x40 MLOAD SWAP1 DUP2 ADD PUSH1 0x40 MSTORE DUP1 SWAP3 SWAP2 SWAP1 DUP2 DUP2 MSTORE PUSH1 0x20 ADD DUP3 DUP1 SLOAD PUSH2 0x2146 SWAP1 PUSH2 0x2F23 JUMP JUMPDEST DUP1 ISZERO PUSH2 0x2193 JUMPI DUP1 PUSH1 0x1F LT PUSH2 0x2168 JUMPI PUSH2 0x100 DUP1 DUP4 SLOAD DIV MUL DUP4 MSTORE SWAP2 PUSH1 0x20 ADD SWAP2 PUSH2 0x2193 JUMP JUMPDEST DUP3 ADD SWAP2 SWAP1 PUSH1 0x0 MSTORE PUSH1 0x20 PUSH1 0x0 KECCAK256 SWAP1 JUMPDEST DUP2 SLOAD DUP2 MSTORE SWAP1 PUSH1 0x1 ADD SWAP1 PUSH1 0x20 ADD DUP1 DUP4 GT PUSH2 0x2176 JUMPI DUP3 SWAP1 SUB PUSH1 0x1F AND DUP3 ADD SWAP2 JUMPDEST POP POP POP POP POP SWAP1 DUP1 PUSH1 0x4 ADD DUP1 SLOAD PUSH2 0x21A8 SWAP1 PUSH2 0x2F23 JUMP JUMPDEST DUP1 PUSH1 0x1F ADD PUSH1 0x20 DUP1 SWAP2 DIV MUL PUSH1 0x20 ADD PUSH1 0x40 MLOAD SWAP1 DUP2 ADD PUSH1 0x40 MSTORE DUP1 SWAP3 SWAP2 SWAP1 DUP2 DUP2 MSTORE PUSH1 0x20 ADD DUP3 DUP1 SLOAD PUSH2 0x21D4 SWAP1 PUSH2 0x2F23 JUMP JUMPDEST DUP1 ISZERO PUSH2 0x2221 JUMPI DUP1 PUSH1 0x1F LT PUSH2 0x21F6 JUMPI PUSH2 0x100 DUP1 DUP4 SLOAD DIV MUL DUP4 MSTORE SWAP2 PUSH1 0x20 ADD SWAP2 PUSH2 0x2221 JUMP JUMPDEST DUP3 ADD SWAP2 SWAP1 PUSH1 0x0 MSTORE PUSH1 0x20 PUSH1 0x0 KECCAK256 SWAP1 JUMPDEST DUP2 SLOAD DUP2 MSTORE SWAP1 PUSH1 0x1 ADD SWAP1 PUSH1 0x20 ADD DUP1 DUP4 GT PUSH2 0x2204 JUMPI DUP3 SWAP1 SUB PUSH1 0x1F AND DUP3 ADD SWAP2 JUMPDEST POP POP POP POP POP SWAP1 DUP1 PUSH1 0x5 ADD SLOAD SWAP1 DUP1 PUSH1 0x6 ADD SLOAD SWAP1 DUP1 PUSH1 0x7 ADD SLOAD SWAP1 DUP1 PUSH1 0x8 ADD SLOAD SWAP1 DUP1 PUSH1 0x9 ADD SLOAD SWAP1 DUP1 PUSH1 0xA ADD PUSH1 0x0 SWAP1 SLOAD SWAP1 PUSH2 0x100 EXP SWAP1 DIV PUSH1 0xFF AND SWAP1 DUP1 PUSH1 0xB ADD DUP1 SLOAD PUSH2 0x2267 SWAP1 PUSH2 0x2F23 JUMP JUMPDEST DUP1 PUSH1 0x1F ADD PUSH1 0x20 DUP1 SWAP2 DIV MUL PUSH1 0x20 ADD PUSH1 0x40 MLOAD SWAP1 DUP2 ADD PUSH1 0x40 MSTORE DUP1 SWAP3 SWAP2 SWAP1 DUP2 DUP2 MSTORE PUSH1 0x20 ADD DUP3 DUP1 SLOAD PUSH2 0x2293 SWAP1 PUSH2 0x2F23 JUMP JUMPDEST DUP1 ISZERO PUSH2 0x22E0 JUMPI DUP1 PUSH1 0x1F LT PUSH2 0x22B5 JUMPI PUSH2 0x100 DUP1 DUP4 SLOAD DIV MUL DUP4 MSTORE SWAP2 PUSH1 0x20 ADD SWAP2 PUSH2 0x22E0 JUMP JUMPDEST DUP3 ADD SWAP2 SWAP1 PUSH1 0x0 MSTORE PUSH1 0x20 PUSH1 0x0 KECCAK256 SWAP1 JUMPDEST DUP2 SLOAD DUP2 MSTORE SWAP1 PUSH1 0x1 ADD SWAP1 PUSH1 0x20 ADD DUP1 DUP4 GT PUSH2 0x22C3 JUMPI DUP3 SWAP1 SUB PUSH1 0x1F AND DUP3 ADD SWAP2 JUMPDEST POP POP POP POP POP SWAP1 POP DUP13 JUMP JUMPDEST PUSH1 0x6 PUSH1 0x20 MSTORE DUP2 PUSH1 0x0 MSTORE PUSH1 0x40 PUSH1 0x0 KECCAK256 DUP2 DUP2 SLOAD DUP2 LT PUSH2 0x1C39 JUMPI PUSH1 0x0 DUP1 REVERT JUMPDEST PUSH1 0x0 PUSH2 0x2311 DUP2 PUSH2 0x2329 JUMP JUMPDEST PUSH2 0x5C0 PUSH1 0x0 DUP1 MLOAD PUSH1 0x20 PUSH2 0x3397 DUP4 CODECOPY DUP2 MLOAD SWAP2 MSTORE DUP4 PUSH2 0x708 JUMP JUMPDEST PUSH2 0x7C4 DUP2 CALLER PUSH2 0x254C JUMP JUMPDEST PUSH2 0x233D DUP3 DUP3 PUSH2 0x193F JUMP JUMPDEST PUSH2 0x5C0 JUMPI PUSH1 0x0 DUP3 DUP2 MSTORE PUSH1 0x20 DUP2 DUP2 MSTORE PUSH1 0x40 DUP1 DUP4 KECCAK256 PUSH1 0x1 PUSH1 0x1 PUSH1 0xA0 SHL SUB DUP6 AND DUP5 MSTORE SWAP1 SWAP2 MSTORE SWAP1 KECCAK256 DUP1 SLOAD PUSH1 0xFF NOT AND PUSH1 0x1 OR SWAP1 SSTORE PUSH2 0x2373 CALLER SWAP1 JUMP JUMPDEST PUSH1 0x1 PUSH1 0x1 PUSH1 0xA0 SHL SUB AND DUP2 PUSH1 0x1 PUSH1 0x1 PUSH1 0xA0 SHL SUB AND DUP4 PUSH32 0x2F8788117E7EFF1D82E926EC794901D17C78024A50270940304540A733656F0D PUSH1 0x40 MLOAD PUSH1 0x40 MLOAD DUP1 SWAP2 SUB SWAP1 LOG4 POP POP JUMP JUMPDEST PUSH2 0x23C1 DUP3 DUP3 PUSH2 0x193F JUMP JUMPDEST ISZERO PUSH2 0x5C0 JUMPI PUSH1 0x0 DUP3 DUP2 MSTORE PUSH1 0x20 DUP2 DUP2 MSTORE PUSH1 0x40 DUP1 DUP4 KECCAK256 PUSH1 0x1 PUSH1 0x1 PUSH1 0xA0 SHL SUB DUP6 AND DUP1 DUP6 MSTORE SWAP3 MSTORE DUP1 DUP4 KECCAK256 DUP1 SLOAD PUSH1 0xFF NOT AND SWAP1 SSTORE MLOAD CALLER SWAP3 DUP6 SWAP2 PUSH32 0xF6391F5C32D9C69D2A47EA670B442974B53935D1EDC7FD64EB21E047A839171B SWAP2 SWAP1 LOG4 POP POP JUMP JUMPDEST PUSH2 0x2424 PUSH2 0x25A5 JUMP JUMPDEST PUSH1 0x2 DUP1 SLOAD PUSH1 0xFF NOT AND SWAP1 SSTORE PUSH32 0x5DB9EE0A495BF2E6FF9C91A7834C1BA4FDD244A5E8AA4E537BD38AEAE4B073AA CALLER JUMPDEST PUSH1 0x40 MLOAD PUSH1 0x1 PUSH1 0x1 PUSH1 0xA0 SHL SUB SWAP1 SWAP2 AND DUP2 MSTORE PUSH1 0x20 ADD PUSH1 0x40 MLOAD DUP1 SWAP2 SUB SWAP1 LOG1 JUMP JUMPDEST PUSH1 0x2 SLOAD PUSH1 0xFF AND ISZERO PUSH2 0x24B4 JUMPI PUSH1 0x40 MLOAD PUSH3 0x461BCD PUSH1 0xE5 SHL DUP2 MSTORE PUSH1 0x20 PUSH1 0x4 DUP3 ADD MSTORE PUSH1 0x10 PUSH1 0x24 DUP3 ADD MSTORE PUSH16 0x14185D5CD8589B194E881C185D5CD959 PUSH1 0x82 SHL PUSH1 0x44 DUP3 ADD MSTORE PUSH1 0x64 ADD PUSH2 0x79E JUMP JUMPDEST JUMP JUMPDEST PUSH1 0x2 PUSH1 0x1 SLOAD SUB PUSH2 0x2508 JUMPI PUSH1 0x40 MLOAD PUSH3 0x461BCD PUSH1 0xE5 SHL DUP2 MSTORE PUSH1 0x20 PUSH1 0x4 DUP3 ADD MSTORE PUSH1 0x1F PUSH1 0x24 DUP3 ADD MSTORE PUSH32 0x5265656E7472616E637947756172643A207265656E7472616E742063616C6C00 PUSH1 0x44 DUP3 ADD MSTORE PUSH1 0x64 ADD PUSH2 0x79E JUMP JUMPDEST PUSH1 0x2 PUSH1 0x1 SSTORE JUMP JUMPDEST PUSH2 0x2517 PUSH2 0x246E JUMP JUMPDEST PUSH1 0x2 DUP1 SLOAD PUSH1 0xFF NOT AND PUSH1 0x1 OR SWAP1 SSTORE PUSH32 0x62E78CEA01BEE320CD4E420270B5EA74000D11B0C9F74754EBDBFC544B05A258 PUSH2 0x2451 CALLER SWAP1 JUMP JUMPDEST PUSH2 0x2556 DUP3 DUP3 PUSH2 0x193F JUMP JUMPDEST PUSH2 0x5C0 JUMPI PUSH2 0x2563 DUP2 PUSH2 0x25EE JUMP JUMPDEST PUSH2 0x256E DUP4 PUSH1 0x20 PUSH2 0x2600 JUMP JUMPDEST PUSH1 0x40 MLOAD PUSH1 0x20 ADD PUSH2 0x257F SWAP3 SWAP2 SWAP1 PUSH2 0x32F4 JUMP JUMPDEST PUSH1 0x40 DUP1 MLOAD PUSH1 0x1F NOT DUP2 DUP5 SUB ADD DUP2 MSTORE SWAP1 DUP3 SWAP1 MSTORE PUSH3 0x461BCD PUSH1 0xE5 SHL DUP3 MSTORE PUSH2 0x79E SWAP2 PUSH1 0x4 ADD PUSH2 0x2E40 JUMP JUMPDEST PUSH1 0x2 SLOAD PUSH1 0xFF AND PUSH2 0x24B4 JUMPI PUSH1 0x40 MLOAD PUSH3 0x461BCD PUSH1 0xE5 SHL DUP2 MSTORE PUSH1 0x20 PUSH1 0x4 DUP3 ADD MSTORE PUSH1 0x14 PUSH1 0x24 DUP3 ADD MSTORE PUSH20 0x14185D5CD8589B194E881B9BDD081C185D5CD959 PUSH1 0x62 SHL PUSH1 0x44 DUP3 ADD MSTORE PUSH1 0x64 ADD PUSH2 0x79E JUMP JUMPDEST PUSH1 0x60 PUSH2 0x597 PUSH1 0x1 PUSH1 0x1 PUSH1 0xA0 SHL SUB DUP4 AND PUSH1 0x14 JUMPDEST PUSH1 0x60 PUSH1 0x0 PUSH2 0x260F DUP4 PUSH1 0x2 PUSH2 0x2F8C JUMP JUMPDEST PUSH2 0x261A SWAP1 PUSH1 0x2 PUSH2 0x3216 JUMP JUMPDEST PUSH8 0xFFFFFFFFFFFFFFFF DUP2 GT ISZERO PUSH2 0x2632 JUMPI PUSH2 0x2632 PUSH2 0x2898 JUMP JUMPDEST PUSH1 0x40 MLOAD SWAP1 DUP1 DUP3 MSTORE DUP1 PUSH1 0x1F ADD PUSH1 0x1F NOT AND PUSH1 0x20 ADD DUP3 ADD PUSH1 0x40 MSTORE DUP1 ISZERO PUSH2 0x265C JUMPI PUSH1 0x20 DUP3 ADD DUP2 DUP1 CALLDATASIZE DUP4 CALLDATACOPY ADD SWAP1 POP JUMPDEST POP SWAP1 POP PUSH1 0x3 PUSH1 0xFC SHL DUP2 PUSH1 0x0 DUP2 MLOAD DUP2 LT PUSH2 0x2677 JUMPI PUSH2 0x2677 PUSH2 0x3369 JUMP JUMPDEST PUSH1 0x20 ADD ADD SWAP1 PUSH1 0x1 PUSH1 0x1 PUSH1 0xF8 SHL SUB NOT AND SWAP1 DUP2 PUSH1 0x0 BYTE SWAP1 MSTORE8 POP PUSH1 0xF PUSH1 0xFB SHL DUP2 PUSH1 0x1 DUP2 MLOAD DUP2 LT PUSH2 0x26A6 JUMPI PUSH2 0x26A6 PUSH2 0x3369 JUMP JUMPDEST PUSH1 0x20 ADD ADD SWAP1 PUSH1 0x1 PUSH1 0x1 PUSH1 0xF8 SHL SUB NOT AND SWAP1 DUP2 PUSH1 0x0 BYTE SWAP1 MSTORE8 POP PUSH1 0x0 PUSH2 0x26CA DUP5 PUSH1 0x2 PUSH2 0x2F8C JUMP JUMPDEST PUSH2 0x26D5 SWAP1 PUSH1 0x1 PUSH2 0x3216 JUMP JUMPDEST SWAP1 POP JUMPDEST PUSH1 0x1 DUP2 GT ISZERO PUSH2 0x274D JUMPI PUSH16 0x181899199A1A9B1B9C1CB0B131B232B3 PUSH1 0x81 SHL DUP6 PUSH1 0xF AND PUSH1 0x10 DUP2 LT PUSH2 0x2709 JUMPI PUSH2 0x2709 PUSH2 0x3369 JUMP JUMPDEST BYTE PUSH1 0xF8 SHL DUP3 DUP3 DUP2 MLOAD DUP2 LT PUSH2 0x271F JUMPI PUSH2 0x271F PUSH2 0x3369 JUMP JUMPDEST PUSH1 0x20 ADD ADD SWAP1 PUSH1 0x1 PUSH1 0x1 PUSH1 0xF8 SHL SUB NOT AND SWAP1 DUP2 PUSH1 0x0 BYTE SWAP1 MSTORE8 POP PUSH1 0x4 SWAP5 SWAP1 SWAP5 SHR SWAP4 PUSH2 0x2746 DUP2 PUSH2 0x337F JUMP JUMPDEST SWAP1 POP PUSH2 0x26D8 JUMP JUMPDEST POP DUP4 ISZERO PUSH2 0x279C JUMPI PUSH1 0x40 MLOAD PUSH3 0x461BCD PUSH1 0xE5 SHL DUP2 MSTORE PUSH1 0x20 PUSH1 0x4 DUP3 ADD DUP2 SWAP1 MSTORE PUSH1 0x24 DUP3 ADD MSTORE PUSH32 0x537472696E67733A20686578206C656E67746820696E73756666696369656E74 PUSH1 0x44 DUP3 ADD MSTORE PUSH1 0x64 ADD PUSH2 0x79E JUMP JUMPDEST SWAP4 SWAP3 POP POP POP JUMP JUMPDEST PUSH1 0x40 MLOAD DUP1 PUSH2 0x180 ADD PUSH1 0x40 MSTORE DUP1 PUSH1 0x60 DUP2 MSTORE PUSH1 0x20 ADD PUSH1 0x0 PUSH1 0x1 PUSH1 0x1 PUSH1 0xA0 SHL SUB AND DUP2 MSTORE PUSH1 0x20 ADD PUSH1 0x60 DUP2 MSTORE PUSH1 0x20 ADD PUSH1 0x60 DUP2 MSTORE PUSH1 0x20 ADD PUSH1 0x60 DUP2 MSTORE PUSH1 0x20 ADD PUSH1 0x0 DUP2 MSTORE PUSH1 0x20 ADD PUSH1 0x0 DUP2 MSTORE PUSH1 0x20 ADD PUSH1 0x0 DUP2 MSTORE PUSH1 0x20 ADD PUSH1 0x0 DUP2 MSTORE PUSH1 0x20 ADD PUSH1 0x0 DUP2 MSTORE PUSH1 0x20 ADD PUSH1 0x0 PUSH1 0x4 DUP2 GT ISZERO PUSH2 0x2811 JUMPI PUSH2 0x2811 PUSH2 0x2BE0 JUMP JUMPDEST DUP2 MSTORE PUSH1 0x20 ADD PUSH1 0x60 DUP2 MSTORE POP SWAP1 JUMP JUMPDEST PUSH1 0x0 PUSH1 0x20 DUP3 DUP5 SUB SLT ISZERO PUSH2 0x2830 JUMPI PUSH1 0x0 DUP1 REVERT JUMPDEST DUP2 CALLDATALOAD PUSH1 0x1 PUSH1 0x1 PUSH1 0xE0 SHL SUB NOT DUP2 AND DUP2 EQ PUSH2 0x279C JUMPI PUSH1 0x0 DUP1 REVERT JUMPDEST PUSH1 0x0 PUSH1 0x20 DUP3 DUP5 SUB SLT ISZERO PUSH2 0x285A JUMPI PUSH1 0x0 DUP1 REVERT JUMPDEST POP CALLDATALOAD SWAP2 SWAP1 POP JUMP JUMPDEST DUP1 CALLDATALOAD PUSH1 0x1 PUSH1 0x1 PUSH1 0xA0 SHL SUB DUP2 AND DUP2 EQ PUSH2 0x2878 JUMPI PUSH1 0x0 DUP1 REVERT JUMPDEST SWAP2 SWAP1 POP JUMP JUMPDEST PUSH1 0x0 PUSH1 0x20 DUP3 DUP5 SUB SLT ISZERO PUSH2 0x288F JUMPI PUSH1 0x0 DUP1 REVERT JUMPDEST PUSH2 0x279C DUP3 PUSH2 0x2861 JUMP JUMPDEST PUSH4 0x4E487B71 PUSH1 0xE0 SHL PUSH1 0x0 MSTORE PUSH1 0x41 PUSH1 0x4 MSTORE PUSH1 0x24 PUSH1 0x0 REVERT JUMPDEST PUSH1 0x0 DUP3 PUSH1 0x1F DUP4 ADD SLT PUSH2 0x28BF JUMPI PUSH1 0x0 DUP1 REVERT JUMPDEST DUP2 CALLDATALOAD PUSH8 0xFFFFFFFFFFFFFFFF DUP1 DUP3 GT ISZERO PUSH2 0x28DA JUMPI PUSH2 0x28DA PUSH2 0x2898 JUMP JUMPDEST PUSH1 0x40 MLOAD PUSH1 0x1F DUP4 ADD PUSH1 0x1F NOT SWAP1 DUP2 AND PUSH1 0x3F ADD AND DUP2 ADD SWAP1 DUP3 DUP3 GT DUP2 DUP4 LT OR ISZERO PUSH2 0x2902 JUMPI PUSH2 0x2902 PUSH2 0x2898 JUMP JUMPDEST DUP2 PUSH1 0x40 MSTORE DUP4 DUP2 MSTORE DUP7 PUSH1 0x20 DUP6 DUP9 ADD ADD GT ISZERO PUSH2 0x291B JUMPI PUSH1 0x0 DUP1 REVERT JUMPDEST DUP4 PUSH1 0x20 DUP8 ADD PUSH1 0x20 DUP4 ADD CALLDATACOPY PUSH1 0x0 PUSH1 0x20 DUP6 DUP4 ADD ADD MSTORE DUP1 SWAP5 POP POP POP POP POP SWAP3 SWAP2 POP POP JUMP JUMPDEST PUSH1 0x0 PUSH1 0x20 DUP3 DUP5 SUB SLT ISZERO PUSH2 0x294D JUMPI PUSH1 0x0 DUP1 REVERT JUMPDEST DUP2 CALLDATALOAD PUSH8 0xFFFFFFFFFFFFFFFF DUP2 GT ISZERO PUSH2 0x2964 JUMPI PUSH1 0x0 DUP1 REVERT JUMPDEST PUSH2 0x2970 DUP5 DUP3 DUP6 ADD PUSH2 0x28AE JUMP JUMPDEST SWAP5 SWAP4 POP POP POP POP JUMP JUMPDEST PUSH1 0x0 JUMPDEST DUP4 DUP2 LT ISZERO PUSH2 0x2993 JUMPI DUP2 DUP2 ADD MLOAD DUP4 DUP3 ADD MSTORE PUSH1 0x20 ADD PUSH2 0x297B JUMP JUMPDEST POP POP PUSH1 0x0 SWAP2 ADD MSTORE JUMP JUMPDEST PUSH1 0x0 DUP2 MLOAD DUP1 DUP5 MSTORE PUSH2 0x29B4 DUP2 PUSH1 0x20 DUP7 ADD PUSH1 0x20 DUP7 ADD PUSH2 0x2978 JUMP JUMPDEST PUSH1 0x1F ADD PUSH1 0x1F NOT AND SWAP3 SWAP1 SWAP3 ADD PUSH1 0x20 ADD SWAP3 SWAP2 POP POP JUMP JUMPDEST PUSH1 0x0 PUSH1 0x20 DUP1 DUP4 ADD DUP2 DUP5 MSTORE DUP1 DUP6 MLOAD DUP1 DUP4 MSTORE PUSH1 0x40 SWAP3 POP DUP3 DUP7 ADD SWAP2 POP DUP3 DUP2 PUSH1 0x5 SHL DUP8 ADD ADD DUP5 DUP9 ADD PUSH1 0x0 JUMPDEST DUP4 DUP2 LT ISZERO PUSH2 0x2A58 JUMPI DUP9 DUP4 SUB PUSH1 0x3F NOT ADD DUP6 MSTORE DUP2 MLOAD DUP1 MLOAD PUSH1 0x1 PUSH1 0x1 PUSH1 0xA0 SHL SUB AND DUP5 MSTORE DUP8 DUP2 ADD MLOAD DUP9 DUP6 ADD MSTORE DUP7 DUP2 ADD MLOAD DUP8 DUP6 ADD MSTORE PUSH1 0x60 DUP1 DUP3 ADD MLOAD SWAP1 DUP6 ADD MSTORE PUSH1 0x80 SWAP1 DUP2 ADD MLOAD PUSH1 0xA0 SWAP2 DUP6 ADD DUP3 SWAP1 MSTORE SWAP1 PUSH2 0x2A44 DUP2 DUP7 ADD DUP4 PUSH2 0x299C JUMP JUMPDEST SWAP7 DUP10 ADD SWAP7 SWAP5 POP POP POP SWAP1 DUP7 ADD SWAP1 PUSH1 0x1 ADD PUSH2 0x29EF JUMP JUMPDEST POP SWAP1 SWAP9 SWAP8 POP POP POP POP POP POP POP POP JUMP JUMPDEST PUSH1 0x0 DUP1 PUSH1 0x40 DUP4 DUP6 SUB SLT ISZERO PUSH2 0x2A79 JUMPI PUSH1 0x0 DUP1 REVERT JUMPDEST DUP3 CALLDATALOAD SWAP2 POP PUSH2 0x2A89 PUSH1 0x20 DUP5 ADD PUSH2 0x2861 JUMP JUMPDEST SWAP1 POP SWAP3 POP SWAP3 SWAP1 POP JUMP JUMPDEST PUSH1 0x0 PUSH1 0x20 DUP1 DUP4 ADD DUP2 DUP5 MSTORE DUP1 DUP6 MLOAD DUP1 DUP4 MSTORE PUSH1 0x40 DUP7 ADD SWAP2 POP PUSH1 0x40 DUP2 PUSH1 0x5 SHL DUP8 ADD ADD SWAP3 POP DUP4 DUP8 ADD PUSH1 0x0 JUMPDEST DUP3 DUP2 LT ISZERO PUSH2 0x2AE7 JUMPI PUSH1 0x3F NOT DUP9 DUP7 SUB ADD DUP5 MSTORE PUSH2 0x2AD5 DUP6 DUP4 MLOAD PUSH2 0x299C JUMP JUMPDEST SWAP5 POP SWAP3 DUP6 ADD SWAP3 SWAP1 DUP6 ADD SWAP1 PUSH1 0x1 ADD PUSH2 0x2AB9 JUMP JUMPDEST POP SWAP3 SWAP8 SWAP7 POP POP POP POP POP POP POP JUMP JUMPDEST PUSH1 0x0 DUP1 PUSH1 0x0 DUP1 PUSH1 0x0 DUP1 PUSH1 0x0 PUSH1 0xE0 DUP9 DUP11 SUB SLT ISZERO PUSH2 0x2B0F JUMPI PUSH1 0x0 DUP1 REVERT JUMPDEST DUP8 CALLDATALOAD PUSH8 0xFFFFFFFFFFFFFFFF DUP1 DUP3 GT ISZERO PUSH2 0x2B27 JUMPI PUSH1 0x0 DUP1 REVERT JUMPDEST PUSH2 0x2B33 DUP12 DUP4 DUP13 ADD PUSH2 0x28AE JUMP JUMPDEST SWAP9 POP PUSH2 0x2B41 PUSH1 0x20 DUP12 ADD PUSH2 0x2861 JUMP JUMPDEST SWAP8 POP PUSH1 0x40 DUP11 ADD CALLDATALOAD SWAP2 POP DUP1 DUP3 GT ISZERO PUSH2 0x2B57 JUMPI PUSH1 0x0 DUP1 REVERT JUMPDEST PUSH2 0x2B63 DUP12 DUP4 DUP13 ADD PUSH2 0x28AE JUMP JUMPDEST SWAP7 POP PUSH1 0x60 DUP11 ADD CALLDATALOAD SWAP2 POP DUP1 DUP3 GT ISZERO PUSH2 0x2B79 JUMPI PUSH1 0x0 DUP1 REVERT JUMPDEST PUSH2 0x2B85 DUP12 DUP4 DUP13 ADD PUSH2 0x28AE JUMP JUMPDEST SWAP6 POP PUSH1 0x80 DUP11 ADD CALLDATALOAD SWAP2 POP DUP1 DUP3 GT ISZERO PUSH2 0x2B9B JUMPI PUSH1 0x0 DUP1 REVERT JUMPDEST PUSH2 0x2BA7 DUP12 DUP4 DUP13 ADD PUSH2 0x28AE JUMP JUMPDEST SWAP5 POP PUSH1 0xA0 DUP11 ADD CALLDATALOAD SWAP4 POP PUSH1 0xC0 DUP11 ADD CALLDATALOAD SWAP2 POP DUP1 DUP3 GT ISZERO PUSH2 0x2BC4 JUMPI PUSH1 0x0 DUP1 REVERT JUMPDEST POP PUSH2 0x2BD1 DUP11 DUP3 DUP12 ADD PUSH2 0x28AE JUMP JUMPDEST SWAP2 POP POP SWAP3 SWAP6 SWAP9 SWAP2 SWAP5 SWAP8 POP SWAP3 SWAP6 POP JUMP JUMPDEST PUSH4 0x4E487B71 PUSH1 0xE0 SHL PUSH1 0x0 MSTORE PUSH1 0x21 PUSH1 0x4 MSTORE PUSH1 0x24 PUSH1 0x0 REVERT JUMPDEST PUSH1 0x5 DUP2 LT PUSH2 0x2C14 JUMPI PUSH4 0x4E487B71 PUSH1 0xE0 SHL PUSH1 0x0 MSTORE PUSH1 0x21 PUSH1 0x4 MSTORE PUSH1 0x24 PUSH1 0x0 REVERT JUMPDEST SWAP1 MSTORE JUMP JUMPDEST PUSH1 0x20 DUP2 MSTORE PUSH1 0x0 DUP3 MLOAD PUSH2 0x180 DUP1 PUSH1 0x20 DUP6 ADD MSTORE PUSH2 0x2C37 PUSH2 0x1A0 DUP6 ADD DUP4 PUSH2 0x299C JUMP JUMPDEST SWAP2 POP PUSH1 0x20 DUP6 ADD MLOAD PUSH2 0x2C53 PUSH1 0x40 DUP7 ADD DUP3 PUSH1 0x1 PUSH1 0x1 PUSH1 0xA0 SHL SUB AND SWAP1 MSTORE JUMP JUMPDEST POP PUSH1 0x40 DUP6 ADD MLOAD PUSH1 0x1F NOT DUP1 DUP7 DUP6 SUB ADD PUSH1 0x60 DUP8 ADD MSTORE PUSH2 0x2C70 DUP5 DUP4 PUSH2 0x299C JUMP JUMPDEST SWAP4 POP PUSH1 0x60 DUP8 ADD MLOAD SWAP2 POP DUP1 DUP7 DUP6 SUB ADD PUSH1 0x80 DUP8 ADD MSTORE PUSH2 0x2C8D DUP5 DUP4 PUSH2 0x299C JUMP JUMPDEST SWAP4 POP PUSH1 0x80 DUP8 ADD MLOAD SWAP2 POP DUP1 DUP7 DUP6 SUB ADD PUSH1 0xA0 DUP8 ADD MSTORE PUSH2 0x2CAA DUP5 DUP4 PUSH2 0x299C JUMP JUMPDEST SWAP4 POP PUSH1 0xA0 DUP8 ADD MLOAD PUSH1 0xC0 DUP8 ADD MSTORE PUSH1 0xC0 DUP8 ADD MLOAD PUSH1 0xE0 DUP8 ADD MSTORE PUSH1 0xE0 DUP8 ADD MLOAD SWAP2 POP PUSH2 0x100 DUP3 DUP2 DUP9 ADD MSTORE DUP1 DUP9 ADD MLOAD SWAP3 POP POP PUSH2 0x120 DUP3 DUP2 DUP9 ADD MSTORE DUP1 DUP9 ADD MLOAD SWAP3 POP POP PUSH2 0x140 DUP3 DUP2 DUP9 ADD MSTORE DUP1 DUP9 ADD MLOAD SWAP3 POP POP PUSH2 0x160 PUSH2 0x2D03 DUP2 DUP9 ADD DUP5 PUSH2 0x2BF6 JUMP JUMPDEST DUP8 ADD MLOAD DUP7 DUP6 SUB SWAP1 SWAP2 ADD DUP4 DUP8 ADD MSTORE SWAP1 POP PUSH2 0x2D1C DUP4 DUP3 PUSH2 0x299C JUMP JUMPDEST SWAP7 SWAP6 POP POP POP POP POP POP JUMP JUMPDEST PUSH1 0x0 DUP1 PUSH1 0x40 DUP4 DUP6 SUB SLT ISZERO PUSH2 0x2D39 JUMPI PUSH1 0x0 DUP1 REVERT JUMPDEST DUP3 CALLDATALOAD PUSH8 0xFFFFFFFFFFFFFFFF DUP2 GT ISZERO PUSH2 0x2D50 JUMPI PUSH1 0x0 DUP1 REVERT JUMPDEST PUSH2 0x2D5C DUP6 DUP3 DUP7 ADD PUSH2 0x28AE JUMP JUMPDEST SWAP6 PUSH1 0x20 SWAP5 SWAP1 SWAP5 ADD CALLDATALOAD SWAP5 POP POP POP POP JUMP JUMPDEST PUSH1 0x1 DUP1 PUSH1 0xA0 SHL SUB DUP7 AND DUP2 MSTORE DUP5 PUSH1 0x20 DUP3 ADD MSTORE DUP4 PUSH1 0x40 DUP3 ADD MSTORE DUP3 PUSH1 0x60 DUP3 ADD MSTORE PUSH1 0xA0 PUSH1 0x80 DUP3 ADD MSTORE PUSH1 0x0 PUSH2 0x2D9E PUSH1 0xA0 DUP4 ADD DUP5 PUSH2 0x299C JUMP JUMPDEST SWAP8 SWAP7 POP POP POP POP POP POP POP JUMP JUMPDEST PUSH1 0x0 DUP1 PUSH1 0x40 DUP4 DUP6 SUB SLT ISZERO PUSH2 0x2DBC JUMPI PUSH1 0x0 DUP1 REVERT JUMPDEST PUSH2 0x2DC5 DUP4 PUSH2 0x2861 JUMP JUMPDEST SWAP5 PUSH1 0x20 SWAP4 SWAP1 SWAP4 ADD CALLDATALOAD SWAP4 POP POP POP JUMP JUMPDEST PUSH1 0x0 DUP1 PUSH1 0x0 PUSH1 0x60 DUP5 DUP7 SUB SLT ISZERO PUSH2 0x2DE8 JUMPI PUSH1 0x0 DUP1 REVERT JUMPDEST DUP4 CALLDATALOAD PUSH8 0xFFFFFFFFFFFFFFFF DUP1 DUP3 GT ISZERO PUSH2 0x2E00 JUMPI PUSH1 0x0 DUP1 REVERT JUMPDEST PUSH2 0x2E0C DUP8 DUP4 DUP9 ADD PUSH2 0x28AE JUMP JUMPDEST SWAP5 POP PUSH1 0x20 DUP7 ADD CALLDATALOAD SWAP4 POP PUSH1 0x40 DUP7 ADD CALLDATALOAD SWAP2 POP DUP1 DUP3 GT ISZERO PUSH2 0x2E29 JUMPI PUSH1 0x0 DUP1 REVERT JUMPDEST POP PUSH2 0x2E36 DUP7 DUP3 DUP8 ADD PUSH2 0x28AE JUMP JUMPDEST SWAP2 POP POP SWAP3 POP SWAP3 POP SWAP3 JUMP JUMPDEST PUSH1 0x20 DUP2 MSTORE PUSH1 0x0 PUSH2 0x279C PUSH1 0x20 DUP4 ADD DUP5 PUSH2 0x299C JUMP JUMPDEST PUSH2 0x180 DUP2 MSTORE PUSH1 0x0 PUSH2 0x2E68 PUSH2 0x180 DUP4 ADD DUP16 PUSH2 0x299C JUMP JUMPDEST PUSH1 0x1 PUSH1 0x1 PUSH1 0xA0 SHL SUB DUP15 AND PUSH1 0x20 DUP5 ADD MSTORE DUP3 DUP2 SUB PUSH1 0x40 DUP5 ADD MSTORE PUSH2 0x2E89 DUP2 DUP15 PUSH2 0x299C JUMP JUMPDEST SWAP1 POP DUP3 DUP2 SUB PUSH1 0x60 DUP5 ADD MSTORE PUSH2 0x2E9D DUP2 DUP14 PUSH2 0x299C JUMP JUMPDEST SWAP1 POP DUP3 DUP2 SUB PUSH1 0x80 DUP5 ADD MSTORE PUSH2 0x2EB1 DUP2 DUP13 PUSH2 0x299C JUMP JUMPDEST SWAP1 POP DUP10 PUSH1 0xA0 DUP5 ADD MSTORE DUP9 PUSH1 0xC0 DUP5 ADD MSTORE DUP8 PUSH1 0xE0 DUP5 ADD MSTORE DUP7 PUSH2 0x100 DUP5 ADD MSTORE DUP6 PUSH2 0x120 DUP5 ADD MSTORE PUSH2 0x2EE1 PUSH2 0x140 DUP5 ADD DUP7 PUSH2 0x2BF6 JUMP JUMPDEST DUP3 DUP2 SUB PUSH2 0x160 DUP5 ADD MSTORE PUSH2 0x2EF4 DUP2 DUP6 PUSH2 0x299C JUMP JUMPDEST SWAP16 SWAP15 POP POP POP POP POP POP POP POP POP POP POP POP POP POP POP JUMP JUMPDEST PUSH1 0x0 DUP3 MLOAD PUSH2 0x2F19 DUP2 DUP5 PUSH1 0x20 DUP8 ADD PUSH2 0x2978 JUMP JUMPDEST SWAP2 SWAP1 SWAP2 ADD SWAP3 SWAP2 POP POP JUMP JUMPDEST PUSH1 0x1 DUP2 DUP2 SHR SWAP1 DUP3 AND DUP1 PUSH2 0x2F37 JUMPI PUSH1 0x7F DUP3 AND SWAP2 POP JUMPDEST PUSH1 0x20 DUP3 LT DUP2 SUB PUSH2 0x2F57 JUMPI PUSH4 0x4E487B71 PUSH1 0xE0 SHL PUSH1 0x0 MSTORE PUSH1 0x22 PUSH1 0x4 MSTORE PUSH1 0x24 PUSH1 0x0 REVERT JUMPDEST POP SWAP2 SWAP1 POP JUMP JUMPDEST PUSH1 0x0 PUSH1 0x20 DUP3 DUP5 SUB SLT ISZERO PUSH2 0x2F6F JUMPI PUSH1 0x0 DUP1 REVERT JUMPDEST POP MLOAD SWAP2 SWAP1 POP JUMP JUMPDEST PUSH4 0x4E487B71 PUSH1 0xE0 SHL PUSH1 0x0 MSTORE PUSH1 0x11 PUSH1 0x4 MSTORE PUSH1 0x24 PUSH1 0x0 REVERT JUMPDEST DUP1 DUP3 MUL DUP2 ISZERO DUP3 DUP3 DIV DUP5 EQ OR PUSH2 0x597 JUMPI PUSH2 0x597 PUSH2 0x2F76 JUMP JUMPDEST PUSH1 0x0 DUP3 PUSH2 0x2FC0 JUMPI PUSH4 0x4E487B71 PUSH1 0xE0 SHL PUSH1 0x0 MSTORE PUSH1 0x12 PUSH1 0x4 MSTORE PUSH1 0x24 PUSH1 0x0 REVERT JUMPDEST POP DIV SWAP1 JUMP JUMPDEST DUP2 DUP2 SUB DUP2 DUP2 GT ISZERO PUSH2 0x597 JUMPI PUSH2 0x597 PUSH2 0x2F76 JUMP JUMPDEST PUSH1 0x1F DUP3 GT ISZERO PUSH2 0x72D JUMPI PUSH1 0x0 DUP2 DUP2 MSTORE PUSH1 0x20 DUP2 KECCAK256 PUSH1 0x1F DUP6 ADD PUSH1 0x5 SHR DUP2 ADD PUSH1 0x20 DUP7 LT ISZERO PUSH2 0x2FFF JUMPI POP DUP1 JUMPDEST PUSH1 0x1F DUP6 ADD PUSH1 0x5 SHR DUP3 ADD SWAP2 POP JUMPDEST DUP2 DUP2 LT ISZERO PUSH2 0x301E JUMPI DUP3 DUP2 SSTORE PUSH1 0x1 ADD PUSH2 0x300B JUMP JUMPDEST POP POP POP POP POP POP JUMP JUMPDEST DUP2 MLOAD PUSH8 0xFFFFFFFFFFFFFFFF DUP2 GT ISZERO PUSH2 0x3040 JUMPI PUSH2 0x3040 PUSH2 0x2898 JUMP JUMPDEST PUSH2 0x3054 DUP2 PUSH2 0x304E DUP5 SLOAD PUSH2 0x2F23 JUMP JUMPDEST DUP5 PUSH2 0x2FD8 JUMP JUMPDEST PUSH1 0x20 DUP1 PUSH1 0x1F DUP4 GT PUSH1 0x1 DUP2 EQ PUSH2 0x3089 JUMPI PUSH1 0x0 DUP5 ISZERO PUSH2 0x3071 JUMPI POP DUP6 DUP4 ADD MLOAD JUMPDEST PUSH1 0x0 NOT PUSH1 0x3 DUP7 SWAP1 SHL SHR NOT AND PUSH1 0x1 DUP6 SWAP1 SHL OR DUP6 SSTORE PUSH2 0x301E JUMP JUMPDEST PUSH1 0x0 DUP6 DUP2 MSTORE PUSH1 0x20 DUP2 KECCAK256 PUSH1 0x1F NOT DUP7 AND SWAP2 JUMPDEST DUP3 DUP2 LT ISZERO PUSH2 0x30B8 JUMPI DUP9 DUP7 ADD MLOAD DUP3 SSTORE SWAP5 DUP5 ADD SWAP5 PUSH1 0x1 SWAP1 SWAP2 ADD SWAP1 DUP5 ADD PUSH2 0x3099 JUMP JUMPDEST POP DUP6 DUP3 LT ISZERO PUSH2 0x30D6 JUMPI DUP8 DUP6 ADD MLOAD PUSH1 0x0 NOT PUSH1 0x3 DUP9 SWAP1 SHL PUSH1 0xF8 AND SHR NOT AND DUP2 SSTORE JUMPDEST POP POP POP POP POP PUSH1 0x1 SWAP1 DUP2 SHL ADD SWAP1 SSTORE POP JUMP JUMPDEST PUSH1 0xA0 DUP2 MSTORE PUSH1 0x0 PUSH2 0x30F9 PUSH1 0xA0 DUP4 ADD DUP9 PUSH2 0x299C JUMP JUMPDEST DUP3 DUP2 SUB PUSH1 0x20 DUP5 ADD MSTORE PUSH2 0x310B DUP2 DUP9 PUSH2 0x299C JUMP JUMPDEST SWAP1 POP DUP3 DUP2 SUB PUSH1 0x40 DUP5 ADD MSTORE PUSH2 0x311F DUP2 DUP8 PUSH2 0x299C JUMP JUMPDEST PUSH1 0x60 DUP5 ADD SWAP6 SWAP1 SWAP6 MSTORE POP POP PUSH1 0x1 PUSH1 0x1 PUSH1 0xA0 SHL SUB SWAP2 SWAP1 SWAP2 AND PUSH1 0x80 SWAP1 SWAP2 ADD MSTORE SWAP4 SWAP3 POP POP POP JUMP JUMPDEST PUSH1 0x80 DUP2 MSTORE PUSH1 0x0 PUSH2 0x3155 PUSH1 0x80 DUP4 ADD DUP8 PUSH2 0x299C JUMP JUMPDEST PUSH1 0x20 DUP4 ADD SWAP6 SWAP1 SWAP6 MSTORE POP PUSH1 0x40 DUP2 ADD SWAP3 SWAP1 SWAP3 MSTORE PUSH1 0x60 SWAP1 SWAP2 ADD MSTORE SWAP2 SWAP1 POP JUMP JUMPDEST PUSH1 0x0 PUSH1 0x20 DUP3 DUP5 SUB SLT ISZERO PUSH2 0x3183 JUMPI PUSH1 0x0 DUP1 REVERT JUMPDEST DUP2 MLOAD DUP1 ISZERO ISZERO DUP2 EQ PUSH2 0x279C JUMPI PUSH1 0x0 DUP1 REVERT JUMPDEST PUSH1 0x20 DUP1 DUP3 MSTORE PUSH1 0x14 SWAP1 DUP3 ADD MSTORE PUSH20 0x1554D115081D1C985B9CD9995C8819985A5B1959 PUSH1 0x62 SHL PUSH1 0x40 DUP3 ADD MSTORE PUSH1 0x60 ADD SWAP1 JUMP JUMPDEST PUSH1 0x20 DUP1 DUP3 MSTORE PUSH1 0x10 SWAP1 DUP3 ADD MSTORE PUSH16 0x141B195919D9481B9BDD08199BDD5B99 PUSH1 0x82 SHL PUSH1 0x40 DUP3 ADD MSTORE PUSH1 0x60 ADD SWAP1 JUMP JUMPDEST PUSH1 0x20 DUP1 DUP3 MSTORE PUSH1 0x11 SWAP1 DUP3 ADD MSTORE PUSH17 0x506C65646765206E6F7420616374697665 PUSH1 0x78 SHL PUSH1 0x40 DUP3 ADD MSTORE PUSH1 0x60 ADD SWAP1 JUMP JUMPDEST DUP1 DUP3 ADD DUP1 DUP3 GT ISZERO PUSH2 0x597 JUMPI PUSH2 0x597 PUSH2 0x2F76 JUMP JUMPDEST DUP4 DUP2 MSTORE DUP3 PUSH1 0x20 DUP3 ADD MSTORE PUSH1 0x60 PUSH1 0x40 DUP3 ADD MSTORE PUSH1 0x0 PUSH2 0x3248 PUSH1 0x60 DUP4 ADD DUP5 PUSH2 0x299C JUMP JUMPDEST SWAP6 SWAP5 POP POP POP POP POP JUMP JUMPDEST PUSH1 0x60 DUP2 MSTORE PUSH1 0x0 DUP1 DUP6 SLOAD PUSH2 0x3263 DUP2 PUSH2 0x2F23 JUMP JUMPDEST DUP1 PUSH1 0x60 DUP7 ADD MSTORE PUSH1 0x80 PUSH1 0x1 DUP1 DUP5 AND PUSH1 0x0 DUP2 EQ PUSH2 0x3285 JUMPI PUSH1 0x1 DUP2 EQ PUSH2 0x329F JUMPI PUSH2 0x32D0 JUMP JUMPDEST PUSH1 0xFF NOT DUP6 AND DUP9 DUP5 ADD MSTORE DUP4 ISZERO ISZERO PUSH1 0x5 SHL DUP9 ADD DUP4 ADD SWAP6 POP PUSH2 0x32D0 JUMP JUMPDEST DUP11 PUSH1 0x0 MSTORE PUSH1 0x20 DUP1 PUSH1 0x0 KECCAK256 PUSH1 0x0 JUMPDEST DUP7 DUP2 LT ISZERO PUSH2 0x32C7 JUMPI DUP2 SLOAD DUP12 DUP3 ADD DUP8 ADD MSTORE SWAP1 DUP5 ADD SWAP1 DUP3 ADD PUSH2 0x32AC JUMP JUMPDEST DUP11 ADD DUP6 ADD SWAP8 POP POP POP JUMPDEST POP POP POP POP PUSH1 0x1 PUSH1 0x1 PUSH1 0xA0 SHL SUB DUP7 AND PUSH1 0x20 DUP6 ADD MSTORE POP SWAP1 POP DUP3 PUSH1 0x40 DUP4 ADD MSTORE SWAP5 SWAP4 POP POP POP POP JUMP JUMPDEST PUSH32 0x416363657373436F6E74726F6C3A206163636F756E7420000000000000000000 DUP2 MSTORE PUSH1 0x0 DUP4 MLOAD PUSH2 0x332C DUP2 PUSH1 0x17 DUP6 ADD PUSH1 0x20 DUP9 ADD PUSH2 0x2978 JUMP JUMPDEST PUSH17 0x1034B99036B4B9B9B4B733903937B6329 PUSH1 0x7D SHL PUSH1 0x17 SWAP2 DUP5 ADD SWAP2 DUP3 ADD MSTORE DUP4 MLOAD PUSH2 0x335D DUP2 PUSH1 0x28 DUP5 ADD PUSH1 0x20 DUP9 ADD PUSH2 0x2978 JUMP JUMPDEST ADD PUSH1 0x28 ADD SWAP5 SWAP4 POP POP POP POP JUMP JUMPDEST PUSH4 0x4E487B71 PUSH1 0xE0 SHL PUSH1 0x0 MSTORE PUSH1 0x32 PUSH1 0x4 MSTORE PUSH1 0x24 PUSH1 0x0 REVERT JUMPDEST PUSH1 0x0 DUP2 PUSH2 0x338E JUMPI PUSH2 0x338E PUSH2 0x2F76 JUMP JUMPDEST POP PUSH1 0x0 NOT ADD SWAP1 JUMP INVALID SWAP5 0xD PUSH12 0x1946FF1D2B5A9F1909219C3C DUP2 LOG3 PUSH17 0x804B5BA0F91EC0828C99A2E6A681976670 PUSH17 0xC54EF182B0F5858B034BEAC1B6F3089AA2 0xD3 XOR DUP12 0xB1 0xE8 SWAP3 SWAP16 0x4F 0xA9 0xB9 0x29 LOG2 PUSH5 0x6970667358 0x22 SLT KECCAK256 PUSH32 0x14D4EED531C666F3007EF8E770475E77C4DA1EE14F5FEF858B16B7327196CE64 PUSH20 0x6F6C63430008130033940D6B1946FF1D2B5A9F19 MULMOD 0x21 SWAP13 EXTCODECOPY DUP2 LOG3 PUSH17 0x804B5BA0F91EC0828C99A2E6A681976670 PUSH17 0xC54EF182B0F5858B034BEAC1B6F3089AA2 0xD3 XOR DUP12 0xB1 0xE8 SWAP3 SWAP16 0x4F 0xA9 0xB9 0x29 "},"methodIdentifiers":{"DEFAULT_ADMIN_ROLE()":"a217fddf","FINANCE_ROLE()":"349b5954","OPERATOR_ROLE()":"f5b541a6","assetInvestors(string,uint256)":"82aefe6c","clientPledges(address,uint256)":"dbe54579","createPledge(string,address,string,string,string,uint256,string)":"4b6a28eb","getAssetInvestors(string)":"2cbd9c33","getClientPledges(address)":"413976ad","getFinancialSummary()":"9837f0df","getInvestorPurchases(address)":"71853559","getPledgeAgreement(string)":"4b73884c","getRoleAdmin(bytes32)":"248a9ca3","grantFinanceRole(address)":"f1ceff33","grantOperatorRole(address)":"27ac0c58","grantRole(bytes32,address)":"2f2ff15d","hasRole(bytes32,address)":"91d14854","investorPurchases(address,uint256)":"b3990166","pause()":"8456cb59","paused()":"5c975abb","payClient(string)":"a637d6c2","platformRevenue()":"24048ba1","pledgeAgreements(string)":"db880da2","purchaseTokens(string,uint256,string)":"8f55aac4","renounceRole(bytes32,address)":"36568abe","repayPledge(string,uint256)":"d849eead","revokeFinanceRole(address)":"9dbade7f","revokeOperatorRole(address)":"b219f7d7","revokeRole(bytes32,address)":"d547741f","rwaToken()":"0c5bf351","setSpreadPercentage(uint256)":"d436b75f","spreadPercentage()":"e4f7b2cc","supportsInterface(bytes4)":"01ffc9a7","totalClientPayments()":"ac0e0033","totalInvestorPayments()":"9f2af9c7","unpause()":"3f4ba83a","usdtToken()":"a98ad46c","withdrawRevenue(address,uint256)":"8b63c267"}}}}}