{
  "_format": "hh-sol-artifact-1",
  "contractName": "MockUSDT",
  "sourceName": "contracts/MockUSDT.sol",
  "abi": [
    {
      "inputs": [],
      "stateMutability": "nonpayable",
      "type": "constructor"
    },
    {
      "anonymous": false,
      "inputs": [
        {
          "indexed": true,
          "internalType": "address",
          "name": "owner",
          "type": "address"
        },
        {
          "indexed": true,
          "internalType": "address",
          "name": "spender",
          "type": "address"
        },
        {
          "indexed": false,
          "internalType": "uint256",
          "name": "value",
          "type": "uint256"
        }
      ],
      "name": "Approval",
      "type": "event"
    },
    {
      "anonymous": false,
      "inputs": [
        {
          "indexed": true,
          "internalType": "address",
          "name": "previousOwner",
          "type": "address"
        },
        {
          "indexed": true,
          "internalType": "address",
          "name": "newOwner",
          "type": "address"
        }
      ],
      "name": "OwnershipTransferred",
      "type": "event"
    },
    {
      "anonymous": false,
      "inputs": [
        {
          "indexed": true,
          "internalType": "address",
          "name": "from",
          "type": "address"
        },
        {
          "indexed": true,
          "internalType": "address",
          "name": "to",
          "type": "address"
        },
        {
          "indexed": false,
          "internalType": "uint256",
          "name": "value",
          "type": "uint256"
        }
      ],
      "name": "Transfer",
      "type": "event"
    },
    {
      "inputs": [
        {
          "internalType": "address",
          "name": "owner",
          "type": "address"
        },
        {
          "internalType": "address",
          "name": "spender",
          "type": "address"
        }
      ],
      "name": "allowance",
      "outputs": [
        {
          "internalType": "uint256",
          "name": "",
          "type": "uint256"
        }
      ],
      "stateMutability": "view",
      "type": "function"
    },
    {
      "inputs": [
        {
          "internalType": "address",
          "name": "spender",
          "type": "address"
        },
        {
          "internalType": "uint256",
          "name": "amount",
          "type": "uint256"
        }
      ],
      "name": "approve",
      "outputs": [
        {
          "internalType": "bool",
          "name": "",
          "type": "bool"
        }
      ],
      "stateMutability": "nonpayable",
      "type": "function"
    },
    {
      "inputs": [
        {
          "internalType": "address",
          "name": "account",
          "type": "address"
        }
      ],
      "name": "balanceOf",
      "outputs": [
        {
          "internalType": "uint256",
          "name": "",
          "type": "uint256"
        }
      ],
      "stateMutability": "view",
      "type": "function"
    },
    {
      "inputs": [],
      "name": "decimals",
      "outputs": [
        {
          "internalType": "uint8",
          "name": "",
          "type": "uint8"
        }
      ],
      "stateMutability": "view",
      "type": "function"
    },
    {
      "inputs": [
        {
          "internalType": "address",
          "name": "spender",
          "type": "address"
        },
        {
          "internalType": "uint256",
          "name": "subtractedValue",
          "type": "uint256"
        }
      ],
      "name": "decreaseAllowance",
      "outputs": [
        {
          "internalType": "bool",
          "name": "",
          "type": "bool"
        }
      ],
      "stateMutability": "nonpayable",
      "type": "function"
    },
    {
      "inputs": [
        {
          "internalType": "uint256",
          "name": "amount",
          "type": "uint256"
        }
      ],
      "name": "faucet",
      "outputs": [],
      "stateMutability": "nonpayable",
      "type": "function"
    },
    {
      "inputs": [],
      "name": "getTestUSDT",
      "outputs": [],
      "stateMutability": "nonpayable",
      "type": "function"
    },
    {
      "inputs": [
        {
          "internalType": "address",
          "name": "spender",
          "type": "address"
        },
        {
          "internalType": "uint256",
          "name": "addedValue",
          "type": "uint256"
        }
      ],
      "name": "increaseAllowance",
      "outputs": [
        {
          "internalType": "bool",
          "name": "",
          "type": "bool"
        }
      ],
      "stateMutability": "nonpayable",
      "type": "function"
    },
    {
      "inputs": [
        {
          "internalType": "address",
          "name": "to",
          "type": "address"
        },
        {
          "internalType": "uint256",
          "name": "amount",
          "type": "uint256"
        }
      ],
      "name": "mint",
      "outputs": [],
      "stateMutability": "nonpayable",
      "type": "function"
    },
    {
      "inputs": [],
      "name": "name",
      "outputs": [
        {
          "internalType": "string",
          "name": "",
          "type": "string"
        }
      ],
      "stateMutability": "view",
      "type": "function"
    },
    {
      "inputs": [],
      "name": "owner",
      "outputs": [
        {
          "internalType": "address",
          "name": "",
          "type": "address"
        }
      ],
      "stateMutability": "view",
      "type": "function"
    },
    {
      "inputs": [],
      "name": "renounceOwnership",
      "outputs": [],
      "stateMutability": "nonpayable",
      "type": "function"
    },
    {
      "inputs": [],
      "name": "symbol",
      "outputs": [
        {
          "internalType": "string",
          "name": "",
          "type": "string"
        }
      ],
      "stateMutability": "view",
      "type": "function"
    },
    {
      "inputs": [],
      "name": "totalSupply",
      "outputs": [
        {
          "internalType": "uint256",
          "name": "",
          "type": "uint256"
        }
      ],
      "stateMutability": "view",
      "type": "function"
    },
    {
      "inputs": [
        {
          "internalType": "address",
          "name": "to",
          "type": "address"
        },
        {
          "internalType": "uint256",
          "name": "amount",
          "type": "uint256"
        }
      ],
      "name": "transfer",
      "outputs": [
        {
          "internalType": "bool",
          "name": "",
          "type": "bool"
        }
      ],
      "stateMutability": "nonpayable",
      "type": "function"
    },
    {
      "inputs": [
        {
          "internalType": "address",
          "name": "from",
          "type": "address"
        },
        {
          "internalType": "address",
          "name": "to",
          "type": "address"
        },
        {
          "internalType": "uint256",
          "name": "amount",
          "type": "uint256"
        }
      ],
      "name": "transferFrom",
      "outputs": [
        {
          "internalType": "bool",
          "name": "",
          "type": "bool"
        }
      ],
      "stateMutability": "nonpayable",
      "type": "function"
    },
    {
      "inputs": [
        {
          "internalType": "address",
          "name": "newOwner",
          "type": "address"
        }
      ],
      "name": "transferOwnership",
      "outputs": [],
      "stateMutability": "nonpayable",
      "type": "function"
    }
  ],
  "bytecode": "0x60806040526005805460ff60a01b1916600360a11b1790553480156200002457600080fd5b5060405180604001604052806009815260200168135bd8dac81554d11560ba1b815250604051806040016040528060048152602001631554d11560e21b8152508160039081620000759190620002a2565b506004620000848282620002a2565b505050620000a16200009b620000dd60201b60201c565b620000e1565b600554620000d7903390620000c290600160a01b900460ff16600a62000483565b620000d190620f42406200049b565b62000133565b620004cb565b3390565b600580546001600160a01b038381166001600160a01b0319831681179093556040519116919082907f8be0079c531659141344cd1fd0a4f28419497f9722a3daafe3b4186f6b6457e090600090a35050565b6001600160a01b0382166200018e5760405162461bcd60e51b815260206004820152601f60248201527f45524332303a206d696e7420746f20746865207a65726f206164647265737300604482015260640160405180910390fd5b8060026000828254620001a29190620004b5565b90915550506001600160a01b038216600081815260208181526040808320805486019055518481527fddf252ad1be2c89b69c2b068fc378daa952ba7f163c4a11628f55a4df523b3ef910160405180910390a35050565b505050565b634e487b7160e01b600052604160045260246000fd5b600181811c908216806200022957607f821691505b6020821081036200024a57634e487b7160e01b600052602260045260246000fd5b50919050565b601f821115620001f957600081815260208120601f850160051c81016020861015620002795750805b601f850160051c820191505b818110156200029a5782815560010162000285565b505050505050565b81516001600160401b03811115620002be57620002be620001fe565b620002d681620002cf845462000214565b8462000250565b602080601f8311600181146200030e5760008415620002f55750858301515b600019600386901b1c1916600185901b1785556200029a565b600085815260208120601f198616915b828110156200033f578886015182559484019460019091019084016200031e565b50858210156200035e5787850151600019600388901b60f8161c191681555b5050505050600190811b01905550565b634e487b7160e01b600052601160045260246000fd5b600181815b80851115620003c5578160001904821115620003a957620003a96200036e565b80851615620003b757918102915b93841c939080029062000389565b509250929050565b600082620003de575060016200047d565b81620003ed575060006200047d565b8160018114620004065760028114620004115762000431565b60019150506200047d565b60ff8411156200042557620004256200036e565b50506001821b6200047d565b5060208310610133831016604e8410600b841016171562000456575081810a6200047d565b62000462838362000384565b80600019048211156200047957620004796200036e565b0290505b92915050565b60006200049460ff841683620003cd565b9392505050565b80820281158282048414176200047d576200047d6200036e565b808201808211156200047d576200047d6200036e565b610d2180620004db6000396000f3fe608060405234801561001057600080fd5b506004361061010b5760003560e01c806357915897116100a257806395d89b411161007157806395d89b4114610224578063a457c2d71461022c578063a9059cbb1461023f578063dd62ed3e14610252578063f2fde38b1461026557600080fd5b806357915897146101c557806370a08231146101d8578063715018a6146102015780638da5cb5b1461020957600080fd5b80632e5f687c116100de5780632e5f687c14610176578063313ce56714610180578063395093511461019f57806340c10f19146101b257600080fd5b806306fdde0314610110578063095ea7b31461012e57806318160ddd1461015157806323b872dd14610163575b600080fd5b610118610278565b6040516101259190610a40565b60405180910390f35b61014161013c366004610aaa565b61030a565b6040519015158152602001610125565b6002545b604051908152602001610125565b610141610171366004610ad4565b610324565b61017e610348565b005b600554600160a01b900460ff1660405160ff9091168152602001610125565b6101416101ad366004610aaa565b610379565b61017e6101c0366004610aaa565b61039b565b61017e6101d3366004610b10565b6103b1565b6101556101e6366004610b29565b6001600160a01b031660009081526020819052604090205490565b61017e610448565b6005546040516001600160a01b039091168152602001610125565b61011861045a565b61014161023a366004610aaa565b610469565b61014161024d366004610aaa565b6104e4565b610155610260366004610b4b565b6104f2565b61017e610273366004610b29565b61051d565b60606003805461028790610b7e565b80601f01602080910402602001604051908101604052809291908181526020018280546102b390610b7e565b80156103005780601f106102d557610100808354040283529160200191610300565b820191906000526020600020905b8154815290600101906020018083116102e357829003601f168201915b5050505050905090565b600033610318818585610593565b60019150505b92915050565b6000336103328582856106b7565b61033d858585610731565b506001949350505050565b60055461037790339061036690600160a01b900460ff16600a610cb2565b610372906103e8610cc1565b6108d5565b565b60003361031881858561038c83836104f2565b6103969190610cd8565b610593565b6103a3610994565b6103ad82826108d5565b5050565b6005546103c990600160a01b900460ff16600a610cb2565b6103d590612710610cc1565b81111561043b5760405162461bcd60e51b815260206004820152602960248201527f43616e6e6f74206d696e74206d6f7265207468616e2031302c3030302055534460448201526854206174206f6e636560b81b60648201526084015b60405180910390fd5b61044533826108d5565b50565b610450610994565b61037760006109ee565b60606004805461028790610b7e565b6000338161047782866104f2565b9050838110156104d75760405162461bcd60e51b815260206004820152602560248201527f45524332303a2064656372656173656420616c6c6f77616e63652062656c6f77604482015264207a65726f60d81b6064820152608401610432565b61033d8286868403610593565b600033610318818585610731565b6001600160a01b03918216600090815260016020908152604080832093909416825291909152205490565b610525610994565b6001600160a01b03811661058a5760405162461bcd60e51b815260206004820152602660248201527f4f776e61626c653a206e6577206f776e657220697320746865207a65726f206160448201526564647265737360d01b6064820152608401610432565b610445816109ee565b6001600160a01b0383166105f55760405162461bcd60e51b8152602060048201526024808201527f45524332303a20617070726f76652066726f6d20746865207a65726f206164646044820152637265737360e01b6064820152608401610432565b6001600160a01b0382166106565760405162461bcd60e51b815260206004820152602260248201527f45524332303a20617070726f766520746f20746865207a65726f206164647265604482015261737360f01b6064820152608401610432565b6001600160a01b0383811660008181526001602090815260408083209487168084529482529182902085905590518481527f8c5be1e5ebec7d5bd14f71427d1e84f3dd0314c0f7b2291e5b200ac8c7c3b925910160405180910390a3505050565b60006106c384846104f2565b9050600019811461072b578181101561071e5760405162461bcd60e51b815260206004820152601d60248201527f45524332303a20696e73756666696369656e7420616c6c6f77616e63650000006044820152606401610432565b61072b8484848403610593565b50505050565b6001600160a01b0383166107955760405162461bcd60e51b815260206004820152602560248201527f45524332303a207472616e736665722066726f6d20746865207a65726f206164604482015264647265737360d81b6064820152608401610432565b6001600160a01b0382166107f75760405162461bcd60e51b815260206004820152602360248201527f45524332303a207472616e7366657220746f20746865207a65726f206164647260448201526265737360e81b6064820152608401610432565b6001600160a01b0383166000908152602081905260409020548181101561086f5760405162461bcd60e51b815260206004820152602660248201527f45524332303a207472616e7366657220616d6f756e7420657863656564732062604482015265616c616e636560d01b6064820152608401610432565b6001600160a01b03848116600081815260208181526040808320878703905593871680835291849020805487019055925185815290927fddf252ad1be2c89b69c2b068fc378daa952ba7f163c4a11628f55a4df523b3ef910160405180910390a361072b565b6001600160a01b03821661092b5760405162461bcd60e51b815260206004820152601f60248201527f45524332303a206d696e7420746f20746865207a65726f2061646472657373006044820152606401610432565b806002600082825461093d9190610cd8565b90915550506001600160a01b038216600081815260208181526040808320805486019055518481527fddf252ad1be2c89b69c2b068fc378daa952ba7f163c4a11628f55a4df523b3ef910160405180910390a35050565b6005546001600160a01b031633146103775760405162461bcd60e51b815260206004820181905260248201527f4f776e61626c653a2063616c6c6572206973206e6f7420746865206f776e65726044820152606401610432565b600580546001600160a01b038381166001600160a01b0319831681179093556040519116919082907f8be0079c531659141344cd1fd0a4f28419497f9722a3daafe3b4186f6b6457e090600090a35050565b600060208083528351808285015260005b81811015610a6d57858101830151858201604001528201610a51565b506000604082860101526040601f19601f8301168501019250505092915050565b80356001600160a01b0381168114610aa557600080fd5b919050565b60008060408385031215610abd57600080fd5b610ac683610a8e565b946020939093013593505050565b600080600060608486031215610ae957600080fd5b610af284610a8e565b9250610b0060208501610a8e565b9150604084013590509250925092565b600060208284031215610b2257600080fd5b5035919050565b600060208284031215610b3b57600080fd5b610b4482610a8e565b9392505050565b60008060408385031215610b5e57600080fd5b610b6783610a8e565b9150610b7560208401610a8e565b90509250929050565b600181811c90821680610b9257607f821691505b602082108103610bb257634e487b7160e01b600052602260045260246000fd5b50919050565b634e487b7160e01b600052601160045260246000fd5b600181815b80851115610c09578160001904821115610bef57610bef610bb8565b80851615610bfc57918102915b93841c9390800290610bd3565b509250929050565b600082610c205750600161031e565b81610c2d5750600061031e565b8160018114610c435760028114610c4d57610c69565b600191505061031e565b60ff841115610c5e57610c5e610bb8565b50506001821b61031e565b5060208310610133831016604e8410600b8410161715610c8c575081810a61031e565b610c968383610bce565b8060001904821115610caa57610caa610bb8565b029392505050565b6000610b4460ff841683610c11565b808202811582820484141761031e5761031e610bb8565b8082018082111561031e5761031e610bb856fea26469706673582212207e0907cc25a79e99cecf279451b909c09232425ff18e093757b0ac5100ca2bd864736f6c63430008130033",
  "linkReferences": {},
  "deployedLinkReferences": {}
}