{
  "_format": "hh-sol-artifact-1",
  "contractName": "RWAToken",
  "sourceName": "contracts/RWAToken.sol",
  "abi": [
    {
      "inputs": [
        {
          "internalType": "string",
          "name": "name",
          "type": "string"
        },
        {
          "internalType": "string",
          "name": "symbol",
          "type": "string"
        },
        {
          "internalType": "address",
          "name": "admin",
          "type": "address"
        }
      ],
      "stateMutability": "nonpayable",
      "type": "constructor"
    },
    {
      "anonymous": false,
      "inputs": [
        {
          "indexed": true,
          "internalType": "address",
          "name": "owner",
          "type": "address"
        },
        {
          "indexed": true,
          "internalType": "address",
          "name": "spender",
          "type": "address"
        },
        {
          "indexed": false,
          "internalType": "uint256",
          "name": "value",
          "type": "uint256"
        }
      ],
      "name": "Approval",
      "type": "event"
    },
    {
      "anonymous": false,
      "inputs": [
        {
          "indexed": true,
          "internalType": "uint256",
          "name": "tokenId",
          "type": "uint256"
        },
        {
          "indexed": true,
          "internalType": "string",
          "name": "assetId",
          "type": "string"
        },
        {
          "indexed": true,
          "internalType": "address",
          "name": "pledger",
          "type": "address"
        },
        {
          "indexed": false,
          "internalType": "string",
          "name": "assetType",
          "type": "string"
        },
        {
          "indexed": false,
          "internalType": "uint256",
          "name": "originalValue",
          "type": "uint256"
        },
        {
          "indexed": false,
          "internalType": "uint256",
          "name": "pledgedValue",
          "type": "uint256"
        },
        {
          "indexed": false,
          "internalType": "uint256",
          "name": "tokensIssued",
          "type": "uint256"
        }
      ],
      "name": "AssetPledged",
      "type": "event"
    },
    {
      "anonymous": false,
      "inputs": [
        {
          "indexed": true,
          "internalType": "uint256",
          "name": "tokenId",
          "type": "uint256"
        },
        {
          "indexed": true,
          "internalType": "string",
          "name": "assetId",
          "type": "string"
        },
        {
          "indexed": true,
          "internalType": "address",
          "name": "pledger",
          "type": "address"
        },
        {
          "indexed": false,
          "internalType": "uint256",
          "name": "tokensRedeemed",
          "type": "uint256"
        }
      ],
      "name": "AssetReleased",
      "type": "event"
    },
    {
      "anonymous": false,
      "inputs": [
        {
          "indexed": false,
          "internalType": "uint256",
          "name": "oldRate",
          "type": "uint256"
        },
        {
          "indexed": false,
          "internalType": "uint256",
          "name": "newRate",
          "type": "uint256"
        }
      ],
      "name": "DiscountRateUpdated",
      "type": "event"
    },
    {
      "anonymous": false,
      "inputs": [
        {
          "indexed": false,
          "internalType": "address",
          "name": "account",
          "type": "address"
        }
      ],
      "name": "Paused",
      "type": "event"
    },
    {
      "anonymous": false,
      "inputs": [
        {
          "indexed": true,
          "internalType": "bytes32",
          "name": "role",
          "type": "bytes32"
        },
        {
          "indexed": true,
          "internalType": "bytes32",
          "name": "previousAdminRole",
          "type": "bytes32"
        },
        {
          "indexed": true,
          "internalType": "bytes32",
          "name": "newAdminRole",
          "type": "bytes32"
        }
      ],
      "name": "RoleAdminChanged",
      "type": "event"
    },
    {
      "anonymous": false,
      "inputs": [
        {
          "indexed": true,
          "internalType": "bytes32",
          "name": "role",
          "type": "bytes32"
        },
        {
          "indexed": true,
          "internalType": "address",
          "name": "account",
          "type": "address"
        },
        {
          "indexed": true,
          "internalType": "address",
          "name": "sender",
          "type": "address"
        }
      ],
      "name": "RoleGranted",
      "type": "event"
    },
    {
      "anonymous": false,
      "inputs": [
        {
          "indexed": true,
          "internalType": "bytes32",
          "name": "role",
          "type": "bytes32"
        },
        {
          "indexed": true,
          "internalType": "address",
          "name": "account",
          "type": "address"
        },
        {
          "indexed": true,
          "internalType": "address",
          "name": "sender",
          "type": "address"
        }
      ],
      "name": "RoleRevoked",
      "type": "event"
    },
    {
      "anonymous": false,
      "inputs": [
        {
          "indexed": true,
          "internalType": "address",
          "name": "from",
          "type": "address"
        },
        {
          "indexed": true,
          "internalType": "address",
          "name": "to",
          "type": "address"
        },
        {
          "indexed": false,
          "internalType": "uint256",
          "name": "value",
          "type": "uint256"
        }
      ],
      "name": "Transfer",
      "type": "event"
    },
    {
      "anonymous": false,
      "inputs": [
        {
          "indexed": false,
          "internalType": "address",
          "name": "account",
          "type": "address"
        }
      ],
      "name": "Unpaused",
      "type": "event"
    },
    {
      "inputs": [],
      "name": "DEFAULT_ADMIN_ROLE",
      "outputs": [
        {
          "internalType": "bytes32",
          "name": "",
          "type": "bytes32"
        }
      ],
      "stateMutability": "view",
      "type": "function"
    },
    {
      "inputs": [],
      "name": "MINTER_ROLE",
      "outputs": [
        {
          "internalType": "bytes32",
          "name": "",
          "type": "bytes32"
        }
      ],
      "stateMutability": "view",
      "type": "function"
    },
    {
      "inputs": [],
      "name": "PAUSER_ROLE",
      "outputs": [
        {
          "internalType": "bytes32",
          "name": "",
          "type": "bytes32"
        }
      ],
      "stateMutability": "view",
      "type": "function"
    },
    {
      "inputs": [],
      "name": "PLEDGE_MANAGER_ROLE",
      "outputs": [
        {
          "internalType": "bytes32",
          "name": "",
          "type": "bytes32"
        }
      ],
      "stateMutability": "view",
      "type": "function"
    },
    {
      "inputs": [
        {
          "internalType": "address",
          "name": "owner",
          "type": "address"
        },
        {
          "internalType": "address",
          "name": "spender",
          "type": "address"
        }
      ],
      "name": "allowance",
      "outputs": [
        {
          "internalType": "uint256",
          "name": "",
          "type": "uint256"
        }
      ],
      "stateMutability": "view",
      "type": "function"
    },
    {
      "inputs": [
        {
          "internalType": "address",
          "name": "spender",
          "type": "address"
        },
        {
          "internalType": "uint256",
          "name": "amount",
          "type": "uint256"
        }
      ],
      "name": "approve",
      "outputs": [
        {
          "internalType": "bool",
          "name": "",
          "type": "bool"
        }
      ],
      "stateMutability": "nonpayable",
      "type": "function"
    },
    {
      "inputs": [
        {
          "internalType": "string",
          "name": "",
          "type": "string"
        }
      ],
      "name": "assetIdToTokenId",
      "outputs": [
        {
          "internalType": "uint256",
          "name": "",
          "type": "uint256"
        }
      ],
      "stateMutability": "view",
      "type": "function"
    },
    {
      "inputs": [
        {
          "internalType": "uint256",
          "name": "",
          "type": "uint256"
        }
      ],
      "name": "assets",
      "outputs": [
        {
          "internalType": "string",
          "name": "assetType",
          "type": "string"
        },
        {
          "internalType": "string",
          "name": "description",
          "type": "string"
        },
        {
          "internalType": "uint256",
          "name": "originalValue",
          "type": "uint256"
        },
        {
          "internalType": "uint256",
          "name": "pledgedValue",
          "type": "uint256"
        },
        {
          "internalType": "string",
          "name": "assetId",
          "type": "string"
        },
        {
          "internalType": "address",
          "name": "pledger",
          "type": "address"
        },
        {
          "internalType": "uint256",
          "name": "pledgeTimestamp",
          "type": "uint256"
        },
        {
          "internalType": "bool",
          "name": "isActive",
          "type": "bool"
        }
      ],
      "stateMutability": "view",
      "type": "function"
    },
    {
      "inputs": [
        {
          "internalType": "address",
          "name": "account",
          "type": "address"
        }
      ],
      "name": "balanceOf",
      "outputs": [
        {
          "internalType": "uint256",
          "name": "",
          "type": "uint256"
        }
      ],
      "stateMutability": "view",
      "type": "function"
    },
    {
      "inputs": [],
      "name": "decimals",
      "outputs": [
        {
          "internalType": "uint8",
          "name": "",
          "type": "uint8"
        }
      ],
      "stateMutability": "view",
      "type": "function"
    },
    {
      "inputs": [
        {
          "internalType": "address",
          "name": "spender",
          "type": "address"
        },
        {
          "internalType": "uint256",
          "name": "subtractedValue",
          "type": "uint256"
        }
      ],
      "name": "decreaseAllowance",
      "outputs": [
        {
          "internalType": "bool",
          "name": "",
          "type": "bool"
        }
      ],
      "stateMutability": "nonpayable",
      "type": "function"
    },
    {
      "inputs": [],
      "name": "discountRate",
      "outputs": [
        {
          "internalType": "uint256",
          "name": "",
          "type": "uint256"
        }
      ],
      "stateMutability": "view",
      "type": "function"
    },
    {
      "inputs": [
        {
          "internalType": "string",
          "name": "assetId",
          "type": "string"
        }
      ],
      "name": "getAssetByAssetId",
      "outputs": [
        {
          "components": [
            {
              "internalType": "string",
              "name": "assetType",
              "type": "string"
            },
            {
              "internalType": "string",
              "name": "description",
              "type": "string"
            },
            {
              "internalType": "uint256",
              "name": "originalValue",
              "type": "uint256"
            },
            {
              "internalType": "uint256",
              "name": "pledgedValue",
              "type": "uint256"
            },
            {
              "internalType": "string",
              "name": "assetId",
              "type": "string"
            },
            {
              "internalType": "address",
              "name": "pledger",
              "type": "address"
            },
            {
              "internalType": "uint256",
              "name": "pledgeTimestamp",
              "type": "uint256"
            },
            {
              "internalType": "bool",
              "name": "isActive",
              "type": "bool"
            }
          ],
          "internalType": "struct RWAToken.AssetInfo",
          "name": "",
          "type": "tuple"
        }
      ],
      "stateMutability": "view",
      "type": "function"
    },
    {
      "inputs": [
        {
          "internalType": "uint256",
          "name": "tokenId",
          "type": "uint256"
        }
      ],
      "name": "getAssetByTokenId",
      "outputs": [
        {
          "components": [
            {
              "internalType": "string",
              "name": "assetType",
              "type": "string"
            },
            {
              "internalType": "string",
              "name": "description",
              "type": "string"
            },
            {
              "internalType": "uint256",
              "name": "originalValue",
              "type": "uint256"
            },
            {
              "internalType": "uint256",
              "name": "pledgedValue",
              "type": "uint256"
            },
            {
              "internalType": "string",
              "name": "assetId",
              "type": "string"
            },
            {
              "internalType": "address",
              "name": "pledger",
              "type": "address"
            },
            {
              "internalType": "uint256",
              "name": "pledgeTimestamp",
              "type": "uint256"
            },
            {
              "internalType": "bool",
              "name": "isActive",
              "type": "bool"
            }
          ],
          "internalType": "struct RWAToken.AssetInfo",
          "name": "",
          "type": "tuple"
        }
      ],
      "stateMutability": "view",
      "type": "function"
    },
    {
      "inputs": [
        {
          "internalType": "bytes32",
          "name": "role",
          "type": "bytes32"
        }
      ],
      "name": "getRoleAdmin",
      "outputs": [
        {
          "internalType": "bytes32",
          "name": "",
          "type": "bytes32"
        }
      ],
      "stateMutability": "view",
      "type": "function"
    },
    {
      "inputs": [
        {
          "internalType": "bytes32",
          "name": "role",
          "type": "bytes32"
        },
        {
          "internalType": "address",
          "name": "account",
          "type": "address"
        }
      ],
      "name": "grantRole",
      "outputs": [],
      "stateMutability": "nonpayable",
      "type": "function"
    },
    {
      "inputs": [
        {
          "internalType": "bytes32",
          "name": "role",
          "type": "bytes32"
        },
        {
          "internalType": "address",
          "name": "account",
          "type": "address"
        }
      ],
      "name": "hasRole",
      "outputs": [
        {
          "internalType": "bool",
          "name": "",
          "type": "bool"
        }
      ],
      "stateMutability": "view",
      "type": "function"
    },
    {
      "inputs": [
        {
          "internalType": "address",
          "name": "spender",
          "type": "address"
        },
        {
          "internalType": "uint256",
          "name": "addedValue",
          "type": "uint256"
        }
      ],
      "name": "increaseAllowance",
      "outputs": [
        {
          "internalType": "bool",
          "name": "",
          "type": "bool"
        }
      ],
      "stateMutability": "nonpayable",
      "type": "function"
    },
    {
      "inputs": [],
      "name": "name",
      "outputs": [
        {
          "internalType": "string",
          "name": "",
          "type": "string"
        }
      ],
      "stateMutability": "view",
      "type": "function"
    },
    {
      "inputs": [],
      "name": "pause",
      "outputs": [],
      "stateMutability": "nonpayable",
      "type": "function"
    },
    {
      "inputs": [],
      "name": "paused",
      "outputs": [
        {
          "internalType": "bool",
          "name": "",
          "type": "bool"
        }
      ],
      "stateMutability": "view",
      "type": "function"
    },
    {
      "inputs": [
        {
          "internalType": "string",
          "name": "assetId",
          "type": "string"
        },
        {
          "internalType": "string",
          "name": "assetType",
          "type": "string"
        },
        {
          "internalType": "string",
          "name": "description",
          "type": "string"
        },
        {
          "internalType": "uint256",
          "name": "originalValue",
          "type": "uint256"
        },
        {
          "internalType": "address",
          "name": "pledger",
          "type": "address"
        }
      ],
      "name": "pledgeAsset",
      "outputs": [],
      "stateMutability": "nonpayable",
      "type": "function"
    },
    {
      "inputs": [
        {
          "internalType": "string",
          "name": "assetId",
          "type": "string"
        },
        {
          "internalType": "address",
          "name": "tokenHolder",
          "type": "address"
        },
        {
          "internalType": "uint256",
          "name": "tokensToRedeem",
          "type": "uint256"
        }
      ],
      "name": "releaseAsset",
      "outputs": [],
      "stateMutability": "nonpayable",
      "type": "function"
    },
    {
      "inputs": [
        {
          "internalType": "bytes32",
          "name": "role",
          "type": "bytes32"
        },
        {
          "internalType": "address",
          "name": "account",
          "type": "address"
        }
      ],
      "name": "renounceRole",
      "outputs": [],
      "stateMutability": "nonpayable",
      "type": "function"
    },
    {
      "inputs": [
        {
          "internalType": "bytes32",
          "name": "role",
          "type": "bytes32"
        },
        {
          "internalType": "address",
          "name": "account",
          "type": "address"
        }
      ],
      "name": "revokeRole",
      "outputs": [],
      "stateMutability": "nonpayable",
      "type": "function"
    },
    {
      "inputs": [
        {
          "internalType": "uint256",
          "name": "newRate",
          "type": "uint256"
        }
      ],
      "name": "setDiscountRate",
      "outputs": [],
      "stateMutability": "nonpayable",
      "type": "function"
    },
    {
      "inputs": [
        {
          "internalType": "bytes4",
          "name": "interfaceId",
          "type": "bytes4"
        }
      ],
      "name": "supportsInterface",
      "outputs": [
        {
          "internalType": "bool",
          "name": "",
          "type": "bool"
        }
      ],
      "stateMutability": "view",
      "type": "function"
    },
    {
      "inputs": [],
      "name": "symbol",
      "outputs": [
        {
          "internalType": "string",
          "name": "",
          "type": "string"
        }
      ],
      "stateMutability": "view",
      "type": "function"
    },
    {
      "inputs": [],
      "name": "totalPledgedValue",
      "outputs": [
        {
          "internalType": "uint256",
          "name": "",
          "type": "uint256"
        }
      ],
      "stateMutability": "view",
      "type": "function"
    },
    {
      "inputs": [],
      "name": "totalSupply",
      "outputs": [
        {
          "internalType": "uint256",
          "name": "",
          "type": "uint256"
        }
      ],
      "stateMutability": "view",
      "type": "function"
    },
    {
      "inputs": [
        {
          "internalType": "address",
          "name": "to",
          "type": "address"
        },
        {
          "internalType": "uint256",
          "name": "amount",
          "type": "uint256"
        }
      ],
      "name": "transfer",
      "outputs": [
        {
          "internalType": "bool",
          "name": "",
          "type": "bool"
        }
      ],
      "stateMutability": "nonpayable",
      "type": "function"
    },
    {
      "inputs": [
        {
          "internalType": "address",
          "name": "from",
          "type": "address"
        },
        {
          "internalType": "address",
          "name": "to",
          "type": "address"
        },
        {
          "internalType": "uint256",
          "name": "amount",
          "type": "uint256"
        }
      ],
      "name": "transferFrom",
      "outputs": [
        {
          "internalType": "bool",
          "name": "",
          "type": "bool"
        }
      ],
      "stateMutability": "nonpayable",
      "type": "function"
    },
    {
      "inputs": [],
      "name": "unpause",
      "outputs": [],
      "stateMutability": "nonpayable",
      "type": "function"
    }
  ],
  "bytecode": "0x60806040526046600c553480156200001657600080fd5b5060405162002bab38038062002bab833981016040819052620000399162000273565b828260036200004983826200038f565b5060046200005882826200038f565b50506006805460ff191690555060016007556200007760008262000109565b620000a37f9f2df0fed2c77648de5860a4cc508cd0818c85b8b8a1ab4ceeef8d981c8956a68262000109565b620000cf7f65d7a28e3265b37a6474929f336521b332c1681b933f6cb9f3376673440d862a8262000109565b620000fb7f2ef5d4c2e30cf00fae79a6e05082007a6ef7f47f7cfbcb848a7f60dd8b4fc0198262000109565b50506001600a55506200045b565b60008281526005602090815260408083206001600160a01b038516845290915290205460ff16620001aa5760008281526005602090815260408083206001600160a01b03851684529091529020805460ff19166001179055620001693390565b6001600160a01b0316816001600160a01b0316837f2f8788117e7eff1d82e926ec794901d17c78024a50270940304540a733656f0d60405160405180910390a45b5050565b634e487b7160e01b600052604160045260246000fd5b600082601f830112620001d657600080fd5b81516001600160401b0380821115620001f357620001f3620001ae565b604051601f8301601f19908116603f011681019082821181831017156200021e576200021e620001ae565b816040528381526020925086838588010111156200023b57600080fd5b600091505b838210156200025f578582018301518183018401529082019062000240565b600093810190920192909252949350505050565b6000806000606084860312156200028957600080fd5b83516001600160401b0380821115620002a157600080fd5b620002af87838801620001c4565b94506020860151915080821115620002c657600080fd5b50620002d586828701620001c4565b604086015190935090506001600160a01b0381168114620002f557600080fd5b809150509250925092565b600181811c908216806200031557607f821691505b6020821081036200033657634e487b7160e01b600052602260045260246000fd5b50919050565b601f8211156200038a57600081815260208120601f850160051c81016020861015620003655750805b601f850160051c820191505b81811015620003865782815560010162000371565b5050505b505050565b81516001600160401b03811115620003ab57620003ab620001ae565b620003c381620003bc845462000300565b846200033c565b602080601f831160018114620003fb5760008415620003e25750858301515b600019600386901b1c1916600185901b17855562000386565b600085815260208120601f198616915b828110156200042c578886015182559484019460019091019084016200040b565b50858210156200044b5787850151600019600388901b60f8161c191681555b5050505050600190811b01905550565b612740806200046b6000396000f3fe608060405234801561001057600080fd5b50600436106101fb5760003560e01c80637c69febd1161011a578063aa858899116100ad578063d53913931161007c578063d53913931461045d578063d547741f14610484578063dd62ed3e14610497578063e63ab1e9146104aa578063e6c0e6d5146104d157600080fd5b8063aa858899146103e5578063b5d6de27146103f8578063cf35bdd01461040b578063d04ec72a1461043257600080fd5b80639606d584116100e95780639606d584146103a4578063a217fddf146103b7578063a457c2d7146103bf578063a9059cbb146103d257600080fd5b80637c69febd1461036e5780638456cb591461038157806391d148541461038957806395d89b411461039c57600080fd5b8063313ce567116101925780633f4ba83a116101615780633f4ba83a1461030b5780634641e0db146103135780635c975abb1461033a57806370a082311461034557600080fd5b8063313ce567146102cd57806333399b52146102dc57806336568abe146102e557806339509351146102f857600080fd5b806323b872dd116101ce57806323b872dd146102625780632471764c14610275578063248a9ca3146102955780632f2ff15d146102b857600080fd5b806301ffc9a71461020057806306fdde0314610228578063095ea7b31461023d57806318160ddd14610250575b600080fd5b61021361020e366004611fc5565b6104da565b60405190151581526020015b60405180910390f35b6102306104eb565b60405161021f919061203f565b61021361024b36600461206e565b61057d565b6002545b60405190815260200161021f565b610213610270366004612098565b610595565b610288610283366004612177565b6105b9565b60405161021f91906121b4565b6102546102a3366004612267565b60009081526005602052604090206001015490565b6102cb6102c6366004612280565b610842565b005b6040516012815260200161021f565b610254600b5481565b6102cb6102f3366004612280565b61086c565b61021361030636600461206e565b6108ea565b6102cb61090c565b6102547f2ef5d4c2e30cf00fae79a6e05082007a6ef7f47f7cfbcb848a7f60dd8b4fc01981565b60065460ff16610213565b6102546103533660046122ac565b6001600160a01b031660009081526020819052604090205490565b6102cb61037c366004612267565b610941565b6102cb6109e7565b610213610397366004612280565b610a19565b610230610a44565b6102886103b2366004612267565b610a53565b610254600081565b6102136103cd36600461206e565b610cc1565b6102136103e036600461206e565b610d3c565b6102cb6103f33660046122c7565b610d4a565b6102cb61040636600461236a565b6110df565b61041e610419366004612267565b611333565b60405161021f9897969594939291906123b1565b610254610440366004612177565b805160208183018101805160098252928201919093012091525481565b6102547f9f2df0fed2c77648de5860a4cc508cd0818c85b8b8a1ab4ceeef8d981c8956a681565b6102cb610492366004612280565b61151a565b6102546104a5366004612425565b61153f565b6102547f65d7a28e3265b37a6474929f336521b332c1681b933f6cb9f3376673440d862a81565b610254600c5481565b60006104e58261156a565b92915050565b6060600380546104fa9061244f565b80601f01602080910402602001604051908101604052809291908181526020018280546105269061244f565b80156105735780601f1061054857610100808354040283529160200191610573565b820191906000526020600020905b81548152906001019060200180831161055657829003601f168201915b5050505050905090565b60003361058b81858561159f565b5060019392505050565b6000336105a38582856116c3565b6105ae858585611737565b506001949350505050565b6105c1611f75565b60006009836040516105d39190612489565b90815260200160405180910390205490508060000361062b5760405162461bcd60e51b815260206004820152600f60248201526e105cdcd95d081b9bdd08199bdd5b99608a1b60448201526064015b60405180910390fd5b60008181526008602052604090819020815161010081019092528054829082906106549061244f565b80601f01602080910402602001604051908101604052809291908181526020018280546106809061244f565b80156106cd5780601f106106a2576101008083540402835291602001916106cd565b820191906000526020600020905b8154815290600101906020018083116106b057829003601f168201915b505050505081526020016001820180546106e69061244f565b80601f01602080910402602001604051908101604052809291908181526020018280546107129061244f565b801561075f5780601f106107345761010080835404028352916020019161075f565b820191906000526020600020905b81548152906001019060200180831161074257829003601f168201915b50505050508152602001600282015481526020016003820154815260200160048201805461078c9061244f565b80601f01602080910402602001604051908101604052809291908181526020018280546107b89061244f565b80156108055780601f106107da57610100808354040283529160200191610805565b820191906000526020600020905b8154815290600101906020018083116107e857829003601f168201915b505050918352505060058201546001600160a01b031660208201526006820154604082015260079091015460ff1615156060909101529392505050565b60008281526005602052604090206001015461085d816118e6565b61086783836118f0565b505050565b6001600160a01b03811633146108dc5760405162461bcd60e51b815260206004820152602f60248201527f416363657373436f6e74726f6c3a2063616e206f6e6c792072656e6f756e636560448201526e103937b632b9903337b91039b2b63360891b6064820152608401610622565b6108e68282611976565b5050565b60003361058b8185856108fd838361153f565b61090791906124bb565b61159f565b7f65d7a28e3265b37a6474929f336521b332c1681b933f6cb9f3376673440d862a610936816118e6565b61093e6119dd565b50565b600061094c816118e6565b60008211801561095d575060648211155b6109a15760405162461bcd60e51b8152602060048201526015602482015274496e76616c696420646973636f756e74207261746560581b6044820152606401610622565b600c80549083905560408051828152602081018590527f227be254fa4b9a8595aa4c4633298eb0f7b486f2cabef39d251c9cf8f3a0c206910160405180910390a1505050565b7f65d7a28e3265b37a6474929f336521b332c1681b933f6cb9f3376673440d862a610a11816118e6565b61093e611a2f565b60009182526005602090815260408084206001600160a01b0393909316845291905290205460ff1690565b6060600480546104fa9061244f565b610a5b611f75565b600082118015610a6c5750600a5482105b610aab5760405162461bcd60e51b815260206004820152601060248201526f125b9d985b1a59081d1bdad95b88125160821b6044820152606401610622565b6000828152600860205260409081902081516101008101909252805482908290610ad49061244f565b80601f0160208091040260200160405190810160405280929190818152602001828054610b009061244f565b8015610b4d5780601f10610b2257610100808354040283529160200191610b4d565b820191906000526020600020905b815481529060010190602001808311610b3057829003601f168201915b50505050508152602001600182018054610b669061244f565b80601f0160208091040260200160405190810160405280929190818152602001828054610b929061244f565b8015610bdf5780601f10610bb457610100808354040283529160200191610bdf565b820191906000526020600020905b815481529060010190602001808311610bc257829003601f168201915b505050505081526020016002820154815260200160038201548152602001600482018054610c0c9061244f565b80601f0160208091040260200160405190810160405280929190818152602001828054610c389061244f565b8015610c855780601f10610c5a57610100808354040283529160200191610c85565b820191906000526020600020905b815481529060010190602001808311610c6857829003601f168201915b505050918352505060058201546001600160a01b031660208201526006820154604082015260079091015460ff16151560609091015292915050565b60003381610ccf828661153f565b905083811015610d2f5760405162461bcd60e51b815260206004820152602560248201527f45524332303a2064656372656173656420616c6c6f77616e63652062656c6f77604482015264207a65726f60d81b6064820152608401610622565b6105ae828686840361159f565b60003361058b818585611737565b7f2ef5d4c2e30cf00fae79a6e05082007a6ef7f47f7cfbcb848a7f60dd8b4fc019610d74816118e6565b610d7c611a6c565b610d84611ab4565b6000865111610dd55760405162461bcd60e51b815260206004820152601860248201527f41737365742049442063616e6e6f7420626520656d70747900000000000000006044820152606401610622565b600986604051610de59190612489565b908152602001604051809103902054600014610e3b5760405162461bcd60e51b8152602060048201526015602482015274105cdcd95d08185b1c9958591e481c1b195919d959605a1b6044820152606401610622565b6001600160a01b038216610e915760405162461bcd60e51b815260206004820152601760248201527f496e76616c696420706c656467657220616464726573730000000000000000006044820152606401610622565b60008311610eec5760405162461bcd60e51b815260206004820152602260248201527f41737365742076616c7565206d7573742062652067726561746572207468616e604482015261020360f41b6064820152608401610622565b600a805460009182610efd836124ce565b91905055905060006064600c5486610f1591906124e7565b610f1f91906124fe565b604080516101008101825289815260208082018a905281830189905260608201849052608082018c90526001600160a01b03881660a08301524260c0830152600160e08301526000868152600890915291909120815192935090918190610f869082612566565b5060208201516001820190610f9b9082612566565b50604082015160028201556060820151600382015560808201516004820190610fc49082612566565b5060a08201516005820180546001600160a01b0319166001600160a01b0390921691909117905560c0820151600682015560e0909101516007909101805460ff19169115159190911790556040518290600990611022908b90612489565b90815260200160405180910390208190555080600b600082825461104691906124bb565b9091555060009050611060670de0b6b3a7640000836124fe565b905061106c8582611b0d565b846001600160a01b0316896040516110849190612489565b6040518091039020847f8e08635fec9f3c370f2205a4356fc32c49d6db589de3038cd00c4156a3162e5d8b8a87876040516110c29493929190612626565b60405180910390a45050506110d76001600755565b505050505050565b7f2ef5d4c2e30cf00fae79a6e05082007a6ef7f47f7cfbcb848a7f60dd8b4fc019611109816118e6565b611111611a6c565b611119611ab4565b600060098560405161112b9190612489565b90815260200160405180910390205490508060000361117e5760405162461bcd60e51b815260206004820152600f60248201526e105cdcd95d081b9bdd08199bdd5b99608a1b6044820152606401610622565b60008181526008602052604090206007015460ff166111d55760405162461bcd60e51b81526020600482015260136024820152724173736574206973206e6f742061637469766560681b6044820152606401610622565b826111f5856001600160a01b031660009081526020819052604090205490565b10156112435760405162461bcd60e51b815260206004820152601a60248201527f496e73756666696369656e7420746f6b656e2062616c616e63650000000000006044820152606401610622565b61124d8484611bd8565b60008181526008602052604081206003015461127290670de0b6b3a7640000906124fe565b90508084106112b257600082815260086020526040812060078101805460ff1916905560030154600b8054919290916112ac908490612655565b90915550505b600082815260086020526040908190206005015490516001600160a01b03909116906112df908890612489565b6040518091039020837f338f020b8c6c983a2fa8c339aef72ce1560c9f79e49863e9443c1b8ffaadb0288760405161131991815260200190565b60405180910390a4505061132d6001600755565b50505050565b60086020526000908152604090208054819061134e9061244f565b80601f016020809104026020016040519081016040528092919081815260200182805461137a9061244f565b80156113c75780601f1061139c576101008083540402835291602001916113c7565b820191906000526020600020905b8154815290600101906020018083116113aa57829003601f168201915b5050505050908060010180546113dc9061244f565b80601f01602080910402602001604051908101604052809291908181526020018280546114089061244f565b80156114555780601f1061142a57610100808354040283529160200191611455565b820191906000526020600020905b81548152906001019060200180831161143857829003601f168201915b5050505050908060020154908060030154908060040180546114769061244f565b80601f01602080910402602001604051908101604052809291908181526020018280546114a29061244f565b80156114ef5780601f106114c4576101008083540402835291602001916114ef565b820191906000526020600020905b8154815290600101906020018083116114d257829003601f168201915b505050506005830154600684015460079094015492936001600160a01b039091169290915060ff1688565b600082815260056020526040902060010154611535816118e6565b6108678383611976565b6001600160a01b03918216600090815260016020908152604080832093909416825291909152205490565b60006001600160e01b03198216637965db0b60e01b14806104e557506301ffc9a760e01b6001600160e01b03198316146104e5565b6001600160a01b0383166116015760405162461bcd60e51b8152602060048201526024808201527f45524332303a20617070726f76652066726f6d20746865207a65726f206164646044820152637265737360e01b6064820152608401610622565b6001600160a01b0382166116625760405162461bcd60e51b815260206004820152602260248201527f45524332303a20617070726f766520746f20746865207a65726f206164647265604482015261737360f01b6064820152608401610622565b6001600160a01b0383811660008181526001602090815260408083209487168084529482529182902085905590518481527f8c5be1e5ebec7d5bd14f71427d1e84f3dd0314c0f7b2291e5b200ac8c7c3b925910160405180910390a3505050565b60006116cf848461153f565b9050600019811461132d578181101561172a5760405162461bcd60e51b815260206004820152601d60248201527f45524332303a20696e73756666696369656e7420616c6c6f77616e63650000006044820152606401610622565b61132d848484840361159f565b6001600160a01b03831661179b5760405162461bcd60e51b815260206004820152602560248201527f45524332303a207472616e736665722066726f6d20746865207a65726f206164604482015264647265737360d81b6064820152608401610622565b6001600160a01b0382166117fd5760405162461bcd60e51b815260206004820152602360248201527f45524332303a207472616e7366657220746f20746865207a65726f206164647260448201526265737360e81b6064820152608401610622565b611808838383611d16565b6001600160a01b038316600090815260208190526040902054818110156118805760405162461bcd60e51b815260206004820152602660248201527f45524332303a207472616e7366657220616d6f756e7420657863656564732062604482015265616c616e636560d01b6064820152608401610622565b6001600160a01b03848116600081815260208181526040808320878703905593871680835291849020805487019055925185815290927fddf252ad1be2c89b69c2b068fc378daa952ba7f163c4a11628f55a4df523b3ef910160405180910390a361132d565b61093e8133611d1e565b6118fa8282610a19565b6108e65760008281526005602090815260408083206001600160a01b03851684529091529020805460ff191660011790556119323390565b6001600160a01b0316816001600160a01b0316837f2f8788117e7eff1d82e926ec794901d17c78024a50270940304540a733656f0d60405160405180910390a45050565b6119808282610a19565b156108e65760008281526005602090815260408083206001600160a01b0385168085529252808320805460ff1916905551339285917ff6391f5c32d9c69d2a47ea670b442974b53935d1edc7fd64eb21e047a839171b9190a45050565b6119e5611d77565b6006805460ff191690557f5db9ee0a495bf2e6ff9c91a7834c1ba4fdd244a5e8aa4e537bd38aeae4b073aa335b6040516001600160a01b03909116815260200160405180910390a1565b611a37611a6c565b6006805460ff191660011790557f62e78cea01bee320cd4e420270b5ea74000d11b0c9f74754ebdbfc544b05a258611a123390565b60065460ff1615611ab25760405162461bcd60e51b815260206004820152601060248201526f14185d5cd8589b194e881c185d5cd95960821b6044820152606401610622565b565b600260075403611b065760405162461bcd60e51b815260206004820152601f60248201527f5265656e7472616e637947756172643a207265656e7472616e742063616c6c006044820152606401610622565b6002600755565b6001600160a01b038216611b635760405162461bcd60e51b815260206004820152601f60248201527f45524332303a206d696e7420746f20746865207a65726f2061646472657373006044820152606401610622565b611b6f60008383611d16565b8060026000828254611b8191906124bb565b90915550506001600160a01b038216600081815260208181526040808320805486019055518481527fddf252ad1be2c89b69c2b068fc378daa952ba7f163c4a11628f55a4df523b3ef910160405180910390a35050565b6001600160a01b038216611c385760405162461bcd60e51b815260206004820152602160248201527f45524332303a206275726e2066726f6d20746865207a65726f206164647265736044820152607360f81b6064820152608401610622565b611c4482600083611d16565b6001600160a01b03821660009081526020819052604090205481811015611cb85760405162461bcd60e51b815260206004820152602260248201527f45524332303a206275726e20616d6f756e7420657863656564732062616c616e604482015261636560f01b6064820152608401610622565b6001600160a01b0383166000818152602081815260408083208686039055600280548790039055518581529192917fddf252ad1be2c89b69c2b068fc378daa952ba7f163c4a11628f55a4df523b3ef910160405180910390a3505050565b610867611a6c565b611d288282610a19565b6108e657611d3581611dc0565b611d40836020611dd2565b604051602001611d51929190612668565b60408051601f198184030181529082905262461bcd60e51b82526106229160040161203f565b60065460ff16611ab25760405162461bcd60e51b815260206004820152601460248201527314185d5cd8589b194e881b9bdd081c185d5cd95960621b6044820152606401610622565b60606104e56001600160a01b03831660145b60606000611de18360026124e7565b611dec9060026124bb565b67ffffffffffffffff811115611e0457611e046120d4565b6040519080825280601f01601f191660200182016040528015611e2e576020820181803683370190505b509050600360fc1b81600081518110611e4957611e496126dd565b60200101906001600160f81b031916908160001a905350600f60fb1b81600181518110611e7857611e786126dd565b60200101906001600160f81b031916908160001a9053506000611e9c8460026124e7565b611ea79060016124bb565b90505b6001811115611f1f576f181899199a1a9b1b9c1cb0b131b232b360811b85600f1660108110611edb57611edb6126dd565b1a60f81b828281518110611ef157611ef16126dd565b60200101906001600160f81b031916908160001a90535060049490941c93611f18816126f3565b9050611eaa565b508315611f6e5760405162461bcd60e51b815260206004820181905260248201527f537472696e67733a20686578206c656e67746820696e73756666696369656e746044820152606401610622565b9392505050565b604051806101000160405280606081526020016060815260200160008152602001600081526020016060815260200160006001600160a01b03168152602001600081526020016000151581525090565b600060208284031215611fd757600080fd5b81356001600160e01b031981168114611f6e57600080fd5b60005b8381101561200a578181015183820152602001611ff2565b50506000910152565b6000815180845261202b816020860160208601611fef565b601f01601f19169290920160200192915050565b602081526000611f6e6020830184612013565b80356001600160a01b038116811461206957600080fd5b919050565b6000806040838503121561208157600080fd5b61208a83612052565b946020939093013593505050565b6000806000606084860312156120ad57600080fd5b6120b684612052565b92506120c460208501612052565b9150604084013590509250925092565b634e487b7160e01b600052604160045260246000fd5b600082601f8301126120fb57600080fd5b813567ffffffffffffffff80821115612116576121166120d4565b604051601f8301601f19908116603f0116810190828211818310171561213e5761213e6120d4565b8160405283815286602085880101111561215757600080fd5b836020870160208301376000602085830101528094505050505092915050565b60006020828403121561218957600080fd5b813567ffffffffffffffff8111156121a057600080fd5b6121ac848285016120ea565b949350505050565b60208152600082516101008060208501526121d3610120850183612013565b91506020850151601f19808685030160408701526121f18483612013565b9350604087015160608701526060870151608087015260808701519150808685030160a0870152506122238382612013565b92505060a085015161224060c08601826001600160a01b03169052565b5060c085015160e085015260e085015161225d8286018215159052565b5090949350505050565b60006020828403121561227957600080fd5b5035919050565b6000806040838503121561229357600080fd5b823591506122a360208401612052565b90509250929050565b6000602082840312156122be57600080fd5b611f6e82612052565b600080600080600060a086880312156122df57600080fd5b853567ffffffffffffffff808211156122f757600080fd5b61230389838a016120ea565b9650602088013591508082111561231957600080fd5b61232589838a016120ea565b9550604088013591508082111561233b57600080fd5b50612348888289016120ea565b9350506060860135915061235e60808701612052565b90509295509295909350565b60008060006060848603121561237f57600080fd5b833567ffffffffffffffff81111561239657600080fd5b6123a2868287016120ea565b9350506120c460208501612052565b60006101008083526123c58184018c612013565b905082810360208401526123d9818b612013565b905088604084015287606084015282810360808401526123f98188612013565b6001600160a01b039690961660a0840152505060c0810192909252151560e09091015295945050505050565b6000806040838503121561243857600080fd5b61244183612052565b91506122a360208401612052565b600181811c9082168061246357607f821691505b60208210810361248357634e487b7160e01b600052602260045260246000fd5b50919050565b6000825161249b818460208701611fef565b9190910192915050565b634e487b7160e01b600052601160045260246000fd5b808201808211156104e5576104e56124a5565b6000600182016124e0576124e06124a5565b5060010190565b80820281158282048414176104e5576104e56124a5565b60008261251b57634e487b7160e01b600052601260045260246000fd5b500490565b601f82111561086757600081815260208120601f850160051c810160208610156125475750805b601f850160051c820191505b818110156110d757828155600101612553565b815167ffffffffffffffff811115612580576125806120d4565b6125948161258e845461244f565b84612520565b602080601f8311600181146125c957600084156125b15750858301515b600019600386901b1c1916600185901b1785556110d7565b600085815260208120601f198616915b828110156125f8578886015182559484019460019091019084016125d9565b50858210156126165787850151600019600388901b60f8161c191681555b5050505050600190811b01905550565b6080815260006126396080830187612013565b6020830195909552506040810192909252606090910152919050565b818103818111156104e5576104e56124a5565b7f416363657373436f6e74726f6c3a206163636f756e74200000000000000000008152600083516126a0816017850160208801611fef565b7001034b99036b4b9b9b4b733903937b6329607d1b60179184019182015283516126d1816028840160208801611fef565b01602801949350505050565b634e487b7160e01b600052603260045260246000fd5b600081612702576127026124a5565b50600019019056fea264697066735822122072042086cabfd91fe89df99801e24754173e068f7a17d82c6c71cb865151e89464736f6c63430008130033",
  "linkReferences": {},
  "deployedLinkReferences": {}
}